:020000040800F2
:10300000F0170020F51301082D0301082F03010814
:1030100031030108330301083503010800000000F3
:10302000000000000000000000000000370301085D
:1030300039030108000000003B0301084BE00008D1
:10304000C9140108CD140108D1140108D5140108D0
:10305000D9140108DD1401083D03010857030108D4
:10306000E9140108ED140108F1140108F514010830
:10307000F9140108FD1401080115010805150108DE
:10308000091501080D15010811150108151501088C
:10309000C10301081D15010821150108710301086C
:1030A000291501082D1501083115010835150108EC
:1030B00039150108BD920008039300084515010861
:1030C000491501084D15010851150108551501084C
:1030D00059150108C90301086115010865150108A2
:1030E000A50301086D150108711501087515010882
:1030F000791501082DE9F04F82460FF27C60A5B0EA
:1031000017461D46D0E90023CDE9122304AE002066
:10311000049170620DF1500800E04F440020ADF8BA
:10312000020012AB4FF0FF3239460DF1020001F000
:1031300098F88146B9F1010F08DA3878B0F1010941
:1031400069EB09096FEA09004FEAD079BDF802007E
:1031500025280CBFA9F1010BCB46BBF1010F0EDBFB
:103160003C4614F8011B0498D0470490002800F056
:10317000FD82706A401C7062BBF1010BF1D1BDF899
:103180000200252807D10020F06030617061B06135
:10319000F061306205E00028BFD1706AE8E240F0DB
:1031A000010017F8011F2029F9D023290DD02B2960
:1031B00004D02D2906D030290AD00CE040F00200BE
:1031C00080B2EEE740F00400FAE740F00800F7E7CD
:1031D00040F01000F4E72A290DD129680A1D2A6061
:1031E0000968F162002904D5494240F00400F16207
:1031F00080B27F1C13E00021F1620BE0F16A6FF0F6
:103200000043994205D001EB810302EB43013039C1
:10321000F1627F1C3A78A2F130010A29EED33978A5
:103220002E2903D04FF0FF31B1621EE017F8011FC5
:103230002A2906D129680A1D2A607F1C0968B16203
:1032400013E00021B1620BE0B16A6FF000439942D4
:1032500005D001EB810302EB43013039B1627F1CE1
:103260003A78A2F130010A29EED330860FF21050DD
:10327000397801F017F808B117F8010B8DF8420002
:103280009DF84200682802BF39786829622005D07D
:103290006C2804BF38786C2803D171208DF8420067
:1032A0007F1C14A8B0603978B1F125002AD01C38F1
:1032B00000F0C680001F022840F2C280133800F0E0
:1032C000EA80093800F0BC80801E00F07D81401E3D
:1032D00000F02681401E022840F2B280001F00F05C
:1032E0001F81401F00F08180401E00F0D480401EEE
:1032F0002AD0C01E0BD0801E00F0CD80C01E00F072
:10330000CA8081E1F068411CF160252186E19DF8C9
:1033100042006C28286813D0011D29600068B26A39
:103320007060002A02D500F0C9FF07E0002100F01C
:10333000E1FF00281ABF7168401AB06A30616FE17E
:10334000011D2960026858E12868011D29600021DB
:103350000068CDE902014FF03C0E14A87060DDE971
:10336000020111B908B9B26ACAB10206120FA0EB84
:1033700002123032AEF10103D2B29E463A2AA8BF01
:103380002732000903F8082040EA0170090908BF44
:10339000002804D0726814AB73449A42E5D314A990
:1033A00071447160CEF13C00B16A3061884207DA45
:1033B000081AB0614FF6EF71308E084030862FE169
:1033C000002940F12D8196F8301001F014011029E8
:1033D00040F02681F16AF268891AB269891A081ADE
:1033E0000128C0F21D81B0611AE19DF842006228F7
:1033F00018D0682806D06A280BD06C2819D07128FC
:1034000007D016E02868011D29600068716A0180F4
:1034100006E12A68101D28601268706AC117C2E9A7
:103420000001FDE02868011D29600068716A0170D3
:10343000F6E02868011D29600068716A0160EFE00C
:103440002868C01D20F00700286000F108022A60EB
:10345000D0E90023CDE90223002B04D5F068421CFB
:10346000F2602D220DE0308E820704D5F068421CF8
:10347000F2602B2205E0C00705D5F068421CF2601F
:10348000202200F80820F06814AA8018706002A8B2
:1034900000F0DAFBC4E09DF842006C2808BF2A68FF
:1034A00011D0712808BF2A6802D02A686A280AD178
:1034B000D21D22F007022A60144604F108022A6095
:1034C000D4E9002303E0131D2B6000231268CDE92B
:1034D0000223682808BF92B207D0622808BFD2B280
:1034E00003D0742818BF7A2802D10023CDE9022323
:1034F00096F8300000075FD5DDE90223002B08BFF6
:10350000002A59D041F02000782855D1F0683022A7
:1035100000F80820401C421CF26000F808104BE044
:103520009DF8420062280CD0682810D06A281AD072
:103530006C2823D0712816D074281FD07A280CD07C
:103540001CE02868021D2A6090F900201AE0286813
:10355000021D2A60B0F9002014E02868021D2A60CC
:10356000002302680FE02868C01D20F007002860D3
:1035700000F108022A60D0E9002304E02868021D57
:103580002A600268D317CDE90223002B04DAF06821
:10359000421CF2602D220DE0308E820704D5F068C7
:1035A000421CF2602B2205E0C00705D5F068421CE2
:1035B000F260202200F80820F06814AA80187060D9
:1035C00002A800F092FA2BE09DF842006C2807D088
:1035D000F068411CF16029680A1D2A6009681DE035
:1035E0002868011D296001AA0068ADF804000020C8
:1035F000ADF806004FF0FF30B06202A9504600F06F
:10360000C3F800280CD5B1E0F068421CF260252216
:1036100000F8082021B1F068421CF26000F80810A0
:10362000F06AF168401AB169401A3169401AF169CB
:10363000401A7169401A316AA0EB010996F830000E
:103640007F1C400710D420208DF80000002409E0E2
:10365000012300AA02A9504600F0DFFD002840F037
:103660008580641C4C45F3DBF4680DF1500B0AE0D7
:103670001BF8011B0498D0470490002876D0706A8C
:10368000401C7062641E002CF2D130208DF80000C6
:103690004FF0000BB46909E0012300AA02A95046CB
:1036A00000F0BBFD002861D10BF1010BA345F3DB5A
:1036B0003469D6F804B00AE01BF8011B0498D0471F
:1036C0000490002852D0706A401C7062641E002C66
:1036D000F2D130208DF800004FF0000BF46909E0C2
:1036E000012300AA02A9504600F097FD00283DD111
:1036F0000BF1010BA345F3DB30697168746900EBD2
:10370000010B09E01BF8011B0498D047049068B333
:10371000706A401C7062641E002CF3D130208DF85A
:1037200000004FF0000B346A08E0012300AA02A950
:10373000504600F072FDC8B90BF1010BA345F4DB54
:1037400096F8300040077FF5E9AC20208DF80000A6
:10375000002400E0641C4C45BFF6E0AC012300AA45
:1037600002A9504600F059FD0028F3D04FF0FF3079
:1037700025B0BDE8F08F0000000000000000000050
:10378000686A6C747A4C00002DE9F44F0F4694B0CF
:10379000D7F830808346B8F1000F48BF6FF000487B
:1037A00000F0D4FD796B401801900FF69C20D0E911
:1037B0000023CDE9022397F83800400702D401988E
:1037C000412805D240200DF1100A0190002509E0A2
:1037D00000F0C2FD5FEA000AF8D14FF0FF3081E14E
:1037E000A8EB0908B8F1010FC0F2C3801498018852
:1037F00002AA0DF1010000F007FE8146002800F149
:10380000CF801498008818B9B9F1010900F1C88077
:10381000C845C0F2AE807869019909EB0002914277
:1038200080F095807D634042396A401AB969401A38
:10383000796A401AF969401AB96A451A97F8380046
:10384000400710D420208DF80000002409E0012357
:1038500000AA3946584600F0E0FC002840F0A0805D
:10386000641CAC42F3DB7B6952463946584600F093
:10387000D4FC002840F0948030208DF80000002611
:103880003C6A09E0012300AA3946584600F0C5FC0D
:10389000002840F08580761CA642F3DBBC69FE68F8
:1038A0000AE016F8011BB868D847B860002877D03E
:1038B000F86A401CF862641E002CF2D130208DF8AA
:1038C000000000267C6A08E0012300AA3946584619
:1038D00000F0A3FC002863D1761CA642F4DBB86993
:1038E000F968FC6946180AE016F8011BB868D84761
:1038F000B860002854D0F86A401CF862641E002C9E
:10390000F2D130208DF800000026BC6A08E00123C7
:1039100000AA3946584600F080FC002840D1761CA9
:10392000A642F4DB97F8380040070ED520208DF82A
:103930000000002407E0012300AA3946584600F0A1
:103940006CFC68BB641CAC42F5DB00257D614A461B
:1039500078690DF10101504400F064FD7869484434
:1039600078611498801C1490801E008800287FF4D1
:1039700037AF786B7969401A396A401AB969401AC9
:10398000796A401AF969401AB96AA0EB010897F8F8
:103990003800400719D420208DF80000A94612E015
:1039A0004FF0FF3597E0012400AE16F8011BB86810
:1039B000D847B8600028F3D0F86A401CF862641E4B
:1039C000F3D109F10109C145EDDB7B695246394666
:1039D000584600F022FC0028E2D130208DF800008B
:1039E000A946386A01900FE0012400AE16F8011BC9
:1039F000B868D847B8600028D2D0F86A401CF8628E
:103A0000641EF3D109F1010901988145ECDBBB6922
:103A1000FA683946584600F000FC0028C0D1302032
:103A20008DF80000A946786A01900FE0012400AEED
:103A300016F8011BB868D847B8600028B0D0F86AFB
:103A4000401CF862641EF3D109F101090198814517
:103A5000ECDBB869F968FB6942183946584600F052
:103A6000DCFB00289CD130208DF80000A946B86A04
:103A700001900FE0012400AE16F8011BB868D8478A
:103A8000B86000288CD0F86A401CF862641EF3D13C
:103A900009F1010901988145ECDB97F838004007EE
:103AA00017D520208DF80000A94610E0012400AEB3
:103AB00016F8011BB868D847B86000283FF470AF0B
:103AC000F86A401CF862641EF2D109F10109C1458F
:103AD000ECDB7D617D6304A882451CBF504600F08D
:103AE000DDFC284615B0BDE8F08F2DE9FA47064603
:103AF00082B035690A466F2A08BF082705D041F011
:103B00002000782814BF0A271027D6E900013C249A
:103B100080468946642A18BF692A05D1002903DA3C
:103B2000D8F1000869EB4909B9F1000F08BFB8F1F5
:103B3000000F0CD1306B50B9082F3BD196F83800EC
:103B4000000737D530203B2485F83B0032E0CDE933
:103B50000089FB17404649463A4600F0DFFCB8466C
:103B6000A8FB0023DDE90089A8EB02023032A4F1B2
:103B7000010AD2B254463A2A03DB9DF80830513B81
:103B80009A180AF8052080465FEA010908BFB8F1D3
:103B9000000F03D0F06861198842D8D3082F09D1EB
:103BA00096F83800000705D5605D302802D0641E05
:103BB00030206055C4F13C00B0616119F160316B97
:103BC000884207DA081A30624FF6EF71308F0840EA
:103BD000308710E000290ED596F8381001F0140156
:103BE000102908D1716B7269891A326A891A081A08
:103BF0000128A8BF306204B0BDE8F0872DE9D043AA
:103C000006460F4614464FF00008DFF8389012E0E1
:103C1000E00707D542464B463046394600F0F6FCF1
:103C200006460F4664104046494642464B4600F061
:103C3000EDFC80468946002CEAD130463946BDE885
:103C4000D0830000000024402DE9F04F04468FB0DF
:103C50008846D4E90001CDE9020148F0200904AF0B
:103C6000B9F1610F0AD0206B002848BF062004D4A8
:103C700008BFB9F1670F01D1012020636168C1F36A
:103C80000A5040F2FF7290421AD1080304BF206824
:103C9000002808D10320A061A8F161001A2834D3BC
:103CA0000FF2B85107E00320A061A8F161001A28C3
:103CB00028D30FF2A051E068032200F0B3FB84E1A7
:103CC000012815DA204600F072FD012810DB0026DD
:103CD0000020B9F1610F1FD1E168302201F8012BFA
:103CE0004A1CE260B8F1610F0CBF782258220FE045
:103CF000626840F2FE3161F31E52461A62604FF074
:103D0000FF30E6E70FF24851D5E70FF24C51D2E70A
:103D10000A706169891C616110B9002500264CE1B7
:103D2000B9F1610F40F09580206B00284CBF212530
:103D3000451CDDE902012DB26F1CD4E900AB002265
:103D4000002300F055FD3ABF8BF00040CDE902A002
:103D5000CDE902AB361F8DF810200DF1110A01E0FC
:103D600000F2070A012F32DBDDE902010022002305
:103D700000F056FD2BD21C2102A800F069FDDDE900
:103D8000020100F0EBFDFF1F8146012F09DB00F06F
:103D900011FE02460B46DDE9020100F023FECDE9EB
:103DA00002010AF20700072105E009F00F0200F8FE
:103DB000012D4FEA2919B9F1010F01DB491EF4D594
:103DC000491E5CBF002200F8012DF9D5C8E70DF1AE
:103DD0001100AAEB00010DF11107A942B8BF0D4671
:103DE0002DB228002ED4884206DA04A94118497859
:103DF0000829A8BF0F2100DA002104AA821800E0D8
:103E00006D1E12F80139401E8B42F9D00F2904D1E2
:103E100004A941184A78521C4A70002802D504AF00
:103E20006D1C361D2DB2681E0CD4C119A8F13A03C1
:103E30000A783032D2B23A2AA8BF9A1801F801297A
:103E4000401EF5D5206B002840F1B780681E206326
:103E5000B3E0DDE902010022002300F0C9FC3CBF11
:103E600081F00041CDE9020136B247F2975070432C
:103E7000314990FBF1F636B2C6F10702012A04DBA4
:103E8000DDE90201FFF7BAFE0AE0524200202B49A9
:103E9000FFF7B4FE02460B46DDE9020100F062FEC8
:103EA000CDE90201B9F1660F0CBF06F10A00062048
:103EB000216B4518142DA8BF132530208DF8100054
:103EC0000DF11107DFF878B0012D3BDBDDE90201D0
:103ED00000F05AFD07F1080104220A23B0FBF3F3B6
:103EE00003EB8307A0EB4700303001F8010D0A20F7
:103EF000B3FBF0F000EB8007A3EB4703303301F88E
:103F0000013D521EE9D1083D01F10807012DDBDB1F
:103F1000DDE9020100F038FD00F056FD02460B46D7
:103F2000DDE9020100F05EFD00225B4600F06EFB61
:103F3000CDE90201CAE700BFA08601000000F03F02
:103F400084D797410DF11100381A0DF1110702E0E5
:103F5000401E761E7F1C39783029F9D0B9F1660FE2
:103F600002D136B2711C04E0B9F1650F0CBF01211A
:103F70000021226B8D182DB2A842B8BF05462DB284
:103F800029001AD4814204DAC85D3528A8BF392037
:103F900000DA3020CA19521E00E06D1E12F80139F5
:103FA000491E8342F9D0392802D1C85D401CC8554A
:103FB000002902D57F1E6D1C761C36B200962BB2EE
:103FC0003A464146204600F003F80FB0BDE8F08FB6
:103FD0002DE9F04786B006468A4690461D4600F019
:103FE00002FF406A376B90F80090012D02DA01253C
:103FF0000FF26C284AF02000BDF93840662808BF4F
:10400000641C12D0672875D114F1040F78DBBC4210
:1040100076DA96F83800641C000702D4BD42B8BFB7
:104020002F4624B23F1B48BF0027F068B16924B275
:10403000012C21DA30234A1C0B54012F03DA96F8A5
:104040003810090702D502F80090521CB261E7420D
:10405000B8BF7C4224B26142E7197162AF42B8BF77
:104060003D462DB2F5612A46B3694146181800F065
:10407000D9F9781BB062B9E00818A54216DA2A46C9
:10408000414600F0CFF9B1696918B161601B7062F7
:10409000012F03DA96F83800000705D5F06801F81B
:1040A0000090F069401CF061B7629FE022464146F3
:1040B00000F0B8F9B06920182D1B012F03DA96F82B
:1040C0003810090703D5F16800F80190401C2DB2A3
:1040D000B061AF42B8BF3D46F3682DB22A4604EB4B
:1040E0000801C01800F09EF9B0692818B061781B6B
:1040F00070627BE0BAF1610F14D14FF0700A16E0E4
:10410000BD4204DA96F83810090758BF2F467F1EC3
:1041100048BF0027BAF1670F14BF4FF0450A4FF0B0
:10412000650A04E0BAF1410F08BF4FF0500AB169C7
:10413000F06818F8013B0B544A1C012F05DA96F879
:104140003810090758BFB26115D502F80090531C0A
:10415000B361012F0FDB6D1E2DB2AF42B8BF3D46DC
:104160002DB22A464146181800F05CF9B0692818AB
:10417000B061781B7062B069F16800EB0108200043
:1041800008F801AB03D42B2008F8010B03E02D2124
:1041900008F8011B6442002502AF08E00A2200A8CB
:1041A00000F03AFE019807F8010B6D1C009C21B24B
:1041B0000129F3DA022D06DA4AF02000652804BF4F
:1041C000302008F8010B4DB9302008F8010B07E04A
:1041D0006D1E02A8285C303008F8010B012DF7DABB
:1041E000B069F1684018A8EB0000F06196F838005B
:1041F00000F0140010280DD17069B1690818716AB7
:104200000818F1690818B16A0818716B8842BCBFB8
:10421000081A306206B0BDE8F087F8B504460D46CE
:1042200016461F46002004E0E86A401CE8627F1E34
:10423000002047B116F8011BA868A047A860002815
:10424000F2D14FF0FF30F2BD00000000000000008E
:104250006E616E004E414E00696E6600494E46002A
:104260003000F8B504460D4616461F4600F0DCFD4A
:104270003B4632462946204601B0BDE8F04000F0FA
:10428000EABD50F8041B61B150F8042BD30744BFBA
:10429000A9F101039A18002342F8043B091FFAD13F
:1042A000EFE770470278C9B28A421AB11CBF10F812
:1042B000012FF9E718BF00207047040000F1010347
:1042C000810704D010F8011B89B18107FAD1026877
:1042D000B2F10131914311F0803F04BF50F8042F37
:1042E000F6E710F8011B11B110F8011BFBE7C01A2B
:1042F00070470800C9B2830706D0521E22D310F8B7
:10430000013B9942F7D11FE0083A13D302F10402AE
:1043100041EA012141EA014150F8043B121F21BF4B
:104320004B40A3F1013C2CEA030C1CF0803FF3D07E
:10433000C9B2001F083210F8013B521E28BF91EA93
:10434000030FF8D818BF0120401E704780B500F059
:104350006BFD012002BD020070B5054605F10F009E
:10436000C408E400C046C046A54232D2082C04D29C
:10437000082402E0083000F091F822480268110099
:104380000CD1011D0A6802B31368A34238BF111D86
:10439000F8D310E01D68A5420DD2191D0B68002B43
:1043A000F8D11268011D00E0191D0B6893420CD072
:1043B0001D68A542F8D361B10D682A68A2F108030F
:1043C000A3420AD26A680A600FE000F067FD002885
:1043D000D0D1C046C046002070BD63190B60121BCF
:1043E0006E685E600B681A602C60096800291DBF4A
:1043F0004A68002A091D00210160C046C04605F137
:10440000080070BD1813002070B504460D4616460E
:1044100000F00AFD324629462046BDE8704000F013
:104420000DBD030062B38B0708D0521E11F8013B8B
:1044300000F8013B00F024808B07F6D1830740F0A1
:10444000208000BF103A07D330B4B1E83810103ADA
:10445000A0E83810F9D230BC530724BFB1E80810E7
:10446000A0E8081044BF51F8043B40F8043BD207D1
:1044700024BF31F8022B20F8022B44BF0B780370C5
:104480007047083A07D3B1E80810083A40F8043BEF
:1044900040F804CBF7D25307E4E7070000B97047B0
:1044A00010B5A0F108042068082833D310F0070FD6
:1044B00030D1C046C0461848416809B18C4203D289
:1044C0006160446017E019464B680BB1A342FAD310
:1044D0000A6853189C421BD3A34204D123689A183C
:1044E0000A600C4607E04A681AB123681B199A4211
:1044F0000ED362604C60616851B1226813198B421F
:1045000006D1002303600868801820604868606056
:10451000C046C04610BD0000181300201B4213D136
:10452000094236D12AB18446B0FBF2F002FB10C238
:10453000704700F0C9BCFCD30022002370470B0079
:104540000200002100207047904271EB030CF6D36B
:1045500070B5B1FA81F4B3FA83F52C1BA340C4F112
:10456000200532FA05F63343A2405FF00046E640EC
:1045700002E05B085FEA3202841A71EB030524BF94
:10458000204629467641F4D302000B00300000217A
:1045900070BD012ACFD970B5140C20D0B1FA81F4C6
:1045A000B2FA82F5C4F120046419B4F12006D6D31E
:1045B000B2405FF00044F440002502E052085FEA98
:1045C0003303C61A71EB020E24BF304671466441B4
:1045D0006D41F3D302000B002000290070BD0C4692
:1045E000B1FBF2F102FB11452D0445EA1045B5FB84
:1045F000F2F402FB145580B240EA0545B5FBF2F037
:1046000002FB105240EA044070BD0700B0B581EAD9
:10461000030C0CF0004C40F2FF7515EA11541DBF5D
:1046200015EA1357AC42AF4239E0E41923EA455387
:1046300043F48013C90241F0004141EA505EC702D1
:104640001100A7FB020200284FF00000EEFB012042
:104650004FF00001E3FB072118BF42F001024018B0
:1046600000214941E3FB0E01A4F580640F0302D24F
:1046700052004041494154F101046CDD470872F198
:10468000004250F1000051EB0451A1F580115CBFD4
:1046900041EA0C01B0BD4CEA05510020B0BD05EA6D
:1046A0001357AC4214BFAF4241E050EA410E1CBF69
:1046B00052EA430E02E061460020B0BD24423C4471
:1046C0001BD15FEA070EF6D0090302BF01460020A6
:1046D000AEF1140EB1FA81F7AEEB070401FA07FE52
:1046E0000C37C7F1200100FA07F7C8404EEA000E68
:1046F00023EA455343F48013A2E733F00043B3FAAF
:1047000083F704BFB2FA82FE77440B3FE41BB7F194
:10471000200E2FBF02FA0EF3BB40C7F1200E22FA83
:104720000EFE38BF43EA0E03BA40641C82E750EA2B
:10473000410E14BF52EA430E6FF000014FF4001710
:1047400017EB430F8ABF194617EB410FB5E74CEA49
:1047500005510020B0BDD4F10104B4F120070FDAF7
:10476000C4F12007520828BF42F0010210FA07F5F1
:1047700001FA07F7E1BF2A43E0403843E1400FE088
:10478000352C98DCC7F1200452EA400220FA07F2E7
:1047900018BF42F0010231FA07F0A1400A4300219C
:1047A00072F1004250F1000051EB0C01B0BD30B489
:1047B000436803F0004201211B031B0B436004BF4D
:1047C0000368002B08D10DE00368DD0F45EA4404BF
:1047D00044605B000360491E4468E302F4D5230390
:1047E0001B0B436043681A434260084630BC704765
:1047F0004FF4001C1CEB410F94BF1CEB430F09E06E
:1048000041EA030C50EA4C0C52EA0C0C03D29942D8
:1048100008BF9042704714BF8B42824270475A587B
:104820004FF4001C1CEB410F94BF1CEB430F09E03D
:1048300041EA030C50EA4C0C52EA0C0C03D28B42B6
:1048400008BF8242704714BF99429042704705FFEB
:1048500070B504460D466068C0F30A5040F2FF711F
:10486000884207D16068000304BF2068002817D081
:10487000022070BD20B92046FFF799FF012867DAB2
:10488000012D0FDB40F2FF71091A8D420AD36068D7
:10489000002847BF00202F4900202F49C4E900010C
:1048A000012070BD4142A942616806DA6FF31E51D2
:1048B000401941EA0050606041E0401E63680122F7
:1048C000451962F31F5305F1350001F000416360A3
:1048D000352803D361600020206070BD002215F1EF
:1048E0001F0F04DA226823600020203560606842D0
:1048F00013D0521E25689241C0F12003D2439D403F
:1049000045EAD27225686668C54006FA03F32B4370
:104910002360636823FA00F06060606808436060A9
:10492000B2F1004F03D80DD12078C0070AD5206816
:10493000401C2060206828B96068401C60604FF00F
:10494000FF3070BD6068884204BF20680028F6D13F
:10495000002070BD0000F0FF0000F07FF446400D25
:1049600040EAC120490006D200F014F8004248BFD6
:104970006FF00040604700F00DF84FF000418842B2
:104980008CBF084640426047400D40EAC1204900C4
:1049900080F00D8040F00040490DA1F58061491C78
:1049A00005D4D1F11F0154BFC840C01770474FF064
:1049B00000007047010040F10980F446404200F0D9
:1049C00005F851F000416047010000BF09D0B0FA7E
:1049D00080F18840C91CC1F58461090501EBD02133
:1049E0004005704770B44FF0004591EA030F44BF93
:1049F0006B4000F075BA00BF841A71EB030604D255
:104A00006E40001BB141121973414FF4001C1CEBA6
:104A1000410F34BF7CEB430684E00C0DA4EB13562E
:104A2000362E7DDC012E43DC45EAC32343EA525394
:104A300012BFD20292025B08240545EAC12141EA75
:104A40005051D2EBC020994125D407D1B0FA80F65D
:104A500010FA06F164D00020203608E0B1FA81F6A1
:104A6000B140C6F1200220FA02F21143B0404FEAF1
:104A7000F474B4EB465434F001064FEA74040AD8D7
:104A8000D6F50016760D04F00044F04061FA06F207
:104A90005040F1404840C00A40EA415021F00041F6
:104AA00028BF5FEA500550F1000044EBD12137E008
:104AB00045EAC323DB0A45EAC121C90AB6F120054C
:104AC0000EDD42EA0242120CC5F1200603FA06F698
:104AD000EB4042EA06056D42984161F100010DE0AC
:104AE00062FA06F5F240554063FA06FC82EA0C02CF
:104AF000F3405A406D42904161EB030111F4801F75
:104B000005D1641E620502D06D004041494121F487
:104B10008011430875F1004350F1000041EB04514E
:104B200070BC70471CEB410F15D223F0004352EAD2
:104B300043060BD04FEA4C0CBCEB410F04D80C0DD4
:104B4000661E342EB7DDEBE7801A994150EA410624
:104B500008BF0021E4E708BF1CEB430F28BF6FF03C
:104B60000001DDE7F0B540F2FF7581EA030C0CF0BF
:104B7000004C15EA11541DBF15EA1357AC42AF4261
:104B8000E5E0BC41C1F31301C3F31303801A99415B
:104B900043F4801304D2641E4000494180185941F7
:104BA000C90241EA5051B1FBF3F603FB1611A2FB17
:104BB0000675D7EBC020A94102D2761E8018594154
:104BC000C90241EA5051B1FBF3FE03FB1E11A2FBE7
:104BD0000E75D7EBC020A94103D2AEF1010E8018AB
:104BE0005941890241EA9051760546EA8E2EB1FB81
:104BF000F3F603FB1611A2FB0675D7EB8020A94143
:104C000002D2761E80185941C90241EA50514EEA3B
:104C1000060EB1FBF3F603FB1611A2FB0675D7EBEC
:104C2000C020A94102D2761E80185941C90241EA2A
:104C30005051B1FBF3F703FB1711A2FB0735D3EB80
:104C4000C020A94167F100070CBF004247F00107EF
:104C500066F3D5274FEA1E31B80814F5806412DDDB
:104C6000BD0775F1004250EB0E5051EB045111F5A8
:104C7000801F5CBF41EA0C01F0BD4CF07F6141F048
:104C8000E0410020F0BDBD076D0840EA0E5041F440
:104C90008011D4F10104B4F120060ADAC4F120062F
:104CA0000200E04001FA06F3E1401843B240154328
:104CB0000EE0342C13DCC6F1200445EA40056D08F3
:104CC00020FA06F2154321FA06F0A1400D43002117
:104CD00075F1004250F1000051EB0C01F0BD0020D5
:104CE0005FEA0C01F0BDCFB992185B41B3FA83F7CC
:104CF00004BFB2FA82F6BF190B3FB7F120062FBFEF
:104D000002FA06F3BB40C7F1200622FA06F638BFC6
:104D10003343BA401CB1E419641E33E77F4231F0DB
:104D20000041B1FA81F404BFB0FA80F6A4190B3C3B
:104D3000B4F120062FBF00FA06F1A140C4F120060D
:104D400020FA06F638BF3143A0403C1B1AE7AC42BC
:104D50001ABF05EA1357AF4212E050EA41061CBFE2
:104D600052EA4306BFE750EA4107304661461CBF9E
:104D700041EA0551F0BD52EA430C08BFC143F0BD02
:104D800000204FF4001616EB410F98BF16EB430FAF
:104D900008BF16EB410F24BFC14305E016EB430FDC
:104DA0000CBF61464CEA0551F0BD018080B5134847
:104DB00000F000F90FF24801016041608160C160BC
:104DC0000161416181610FF23C0242628162C16214
:104DD000016341630FF2300282630FF23402C26357
:104DE0000164416401BD10B5044800F0E3F80446D5
:104DF000206808B9FFF7DAFF204610BD0000002048
:104E0000000000002E00000066616C736500000069
:104E1000747275650000000091FBF2F303FB121140
:104E2000C0E900317047018080B5DFF80C0000F068
:104E3000C1F8806902BD00009000002030B430B994
:104E40000FF24800D0E90045C2E900451BE00170BF
:104E5000012030BC704730B431B90FF23800D0E9CE
:104E60000045C3E900450EE01AB930BC6FF00100FF
:104E7000704708B10A7802800978481E804130BC2A
:104E8000C043C00F7047002030BC704700000000D6
:104E90000000000000000000000000000749086852
:104EA00008B1002070470648C008C00008600549E6
:104EB000C908C900091A0160704700BFB01300207B
:104EC000F7170020F01800207047000070B44FF072
:104ED000004591EA030C44BF6B40FFF78DBD00BF56
:104EE000841A71EB030603D2001BB14112197341FE
:104EF0004FF4001C1CEB410F34BF7CEB430443E038
:104F00000C0DA4EB1356352E50DC45EAC323DB0A07
:104F100045EAC121C912B6F120050DDD63FA05F697
:104F2000EB4086EA0305124218BF45F00105C018A0
:104F300051F100010CD213E062FA06F5F24055403F
:104F4000F3415A40B340F3405A408018594107D3C7
:104F500049085FEA30005FEA350528BF45F00105E2
:104F600001F58011420875F1004250F1000041EB5B
:104F7000045170BC4FF4001C1CEB410F38BF70474C
:104F80000020090D090570471CEB410F10D252EAB1
:104F900043060BD0BCEB410F05D80C0DAB43661E8E
:104FA000342EB5DD02E0AB438018594170BC704728
:104FB00070BC704770470000F0B587B0040001F086
:104FC00056F80700A0208DF803000DF1030201211F
:104FD0009F2001F057F9B4F9000061684843FFF7DA
:104FE000F3FC0022DFF80838FFF7BCFDFFF7B6FC42
:104FF0000500FFB2002F41D0632001F069FA0020C4
:105000008DF800009DF80000FF2805D09DF80000F5
:10501000401C8DF80000F5E701F056FBDFF80C09A5
:105020000078C0B24008C0B24028E8D1DFF80009DB
:105030000068DFF8C017884203D2002000F0BDFFEF
:1050400002E0012000F0B9FF622001F041FA0020E7
:105050008DF800009DF80000FF2805D09DF80000A5
:10506000401C8DF80000F5E701F02EFBDFF8BC08CE
:105070000078C0B24008C0B20328E8D15FF48020B5
:1050800000FB05F0DFF8A8180968B0FBF1F0060096
:10509000300080B2001210F00F008DF80A003000CE
:1050A0008DF80B00A0684002DFF8841809688909B0
:1050B000B0FBF1F0401C8DF80800606801F033FD92
:1050C0000DF102020121A32001F071F99DF8020007
:1050D00010F0FD008DF802000DF102020121A32065
:1050E00001F0D0F804AA0DF11101206900F084FB51
:1050F0009DF811008DF81400607B9DF81010084396
:105100008DF815000DF106020DF10701606900F040
:1051100005FD9DF806009DF8071051EA00108DF876
:10512000160001AA0DF10501A06900F00FFC9DF821
:1051300005009DF8041051EA00108DF81700FFB229
:10514000022F02D0FFB2032F5AD1DFF8E407006824
:10515000DFF8E017884205D1B6208DF80100B620AF
:105160008DF80900DFF8C8070068DFF8CC1788421F
:1051700005D1AC208DF80100AC208DF80900DFF8D6
:10518000B0070068DFF8B417884205D1A3208DF876
:105190000100A3208DF80900DFF894070068DFF80C
:1051A0005416884205D13B208DF80100B6208DF8B9
:1051B0000900DFF87C070068DFF88417884205D112
:1051C00036208DF80100AC208DF80900DFF860076B
:1051D0000068DFF87017884205D131208DF8010092
:1051E000A3208DF809000DF101020121072001F033
:1051F00049F80690DFF83407BDF81810018032E056
:10520000DFF82C070068DFF82C17884206D0DFF89B
:1052100020070068DFF8DC15884202D1B6208DF83F
:105220000900DFF80C070068DFF80C17884206D089
:10523000DFF8FC060068DFF80817884202D1AC20CE
:105240008DF80900DFF8E8060068DFF8F0168842FC
:1052500006D0DFF8DC060068DFF8E816884202D1E5
:10526000A3208DF80900DFF8C8060068DFF8D8161B
:1052700088420ED3DFF8B80600684008DFF8B81699
:10528000884201D3012000E00020C0B200F02CF8D9
:105290000CE0DFF89C060068DFF89C16884201D31A
:1052A000012000E00020C0B200F01EF814F10C0252
:1052B00001216C2000F0E6FF02AA04210C2000F07E
:1052C000E1FF05AA04211A2000F0DCFF0690DFF8B8
:1052D0005C06BDF818100180012000F0CCFD60686C
:1052E00000F07DF907B0F0BD1CB5040000208DF87A
:1052F000000000AA0121012001F059F80190DFF817
:105300002C06BDF804100180E4B2012C06D19DF8F2
:10531000000050F040008DF8000005E09DF800000E
:1053200010F0BF008DF8000000AA0121012000F05C
:10533000A9FF0190DFF8F405BDF80410018013BD4A
:10534000F8B4010000208DF8000000208DF8010065
:10535000082600220F23DFF80809814206D3DFF870
:105360000409814202D2062005001FE0DFF8F80898
:10537000814206D3DFF8F408814202D20C200500F6
:1053800014E0DFF8EC08814206D3DFF8E808814238
:1053900002D21020050009E0DFF8DC08814205D3C5
:1053A000DFF8D808814201D220200500DFF8D008BC
:1053B000B1FBF0F0EDB268430400DFF8C808C08B21
:1053C000844204D30F20060001208DF800009DF8D0
:1053D000000000283AD176B2DFF8A80830F81600AD
:1053E000844217D376B2DFF89C0810EB4600408861
:1053F000A04206D301208DF8000001208DF80100A5
:10540000E5E732005BB252B2981A022790FBF7F040
:105410008619DCE776B2DFF86C0810EB460030F84E
:10542000020C844203D301208DF80000CFE7330043
:105430005BB252B2981A022790FBF7F0361A5BB2B1
:1054400076B2B342C3D100200600C0E79DF8010048
:10545000002813D076B20F2E10DA76B2DFF82408C7
:1054600030F81600201A76B2DFF8187817EB4607E6
:105470007F883F1BB84219D3761C17E09DF80100C6
:10548000002813D176B20F2E10DA76B2DFF8F407C7
:1054900030F81600001B76B2DFF8E87717EB460706
:1054A00037F8027CE71BB84200D3761E76B2082795
:1054B00096FBF7F000FB1760C0B2F2BC704700B576
:1054C00083B000AA0421082000F071FF0190DFF8EA
:1054D0005C04BDF8041001809DF8000010F01F006E
:1054E0009DF80110490311EB40509DF8021010EB9C
:1054F00041109DF8031010EBD1000EBD00B583B034
:1055000000AA01210B2000F052FF0190DFF81C04DB
:10551000BDF8041001809DF8000010F0070001287C
:1055200001D1002010E09DF8000010F007000328D2
:1055300001D1012008E09DF8000010F007000428C8
:1055400001D1022000E003200EBD00B583B000AA07
:1055500001216C2000F02BFF0190DFF8D003BDF893
:10556000041001809DF800000EBD00B583B000AAB4
:1055700001210C2000F01BFF0190DFF8B003BDF803
:10558000041001809DF80000DFF8A4130968484367
:10559000C00B0EBD1CB500AA02210E2000F007FFB3
:1055A0000190DFF88803BDF8041001809DF8000029
:1055B0009DF8011011EB0021080502D551F470414E
:1055C00001E00905090D0C0024B2DFF8640300684E
:1055D00000FB04F05FF4802290FBF2F016BD2DE991
:1055E000F04F87B00400DFF87806844206D3DFF876
:1055F0007406844202D2002081461FE0DFF868066C
:10560000844206D3DFF86406844202D20120814638
:1056100014E0DFF85C06844206D3DFF858068442C3
:1056200002D20220814609E0DFF84C06844205D30D
:10563000DFF84806844201D203208146FFF7AAFF23
:105640008046FFF792FF0500FFF77FFF060018EB8B
:105650000400F6B206FB0500824600F097FC471CEA
:1056600000F005FD00283AD05FFA89F9B9F1000F82
:105670002AD0B9F1020F0FD01AD3B9F1030F2ED1EE
:10568000DFF80C06824503D2002001F0F9FA02E0AF
:10569000012001F0F5FA22E0DFF8F805824503D297
:1056A000002001F0EDFA02E0012001F0E9FA16E035
:1056B000DFF8E405824503D2002001F0E1FA02E0C0
:1056C000012001F0DDFA0AE0DFF8D005824503D2BF
:1056D000002001F0D5FA02E0012001F0D1FA504695
:1056E000FFF72EFE8DF810005FFA89F9DFF8240429
:1056F00019F8000000FB04F0FFF766F9CDE902019C
:10570000FFB25FF4802000FB07F0FFF753F9CDE90B
:10571000000187480068FFF757F902000B00DDE938
:105720000001FFF71FFADDE90223FEF76FFFFFF725
:105730002BF983465FEA5B5010F01F009DF81010B4
:10574000490108438DF814005FEA5B308DF81500BD
:105750005FEA5B108DF816005FFA89F9DFF828051B
:1057600019F8000050EACB008DF8170005AA0421B3
:10577000082000F087FD0090DFF81005BDF800104C
:10578000018001F085F807B0BDE8F08F2DE9F04702
:10579000FFF795FE8246FFF7B1FE070000F0F6FB2B
:1057A000461C5046FFF710F980468946604800685D
:1057B000FFF70AF904000D00F6B2FFB2D548385CD5
:1057C00000FB06F05FF480214843FFF7F3F8020086
:1057D0000B0020002900FFF7C5F942464B46FEF7B3
:1057E00015FF01F071FAFFF7CFF8BDE8F087000070
:1057F00080842E41006CDC022DE9FE4305000E0082
:10580000170000208DF808000F245FF0000900F059
:105810002EFC002802D000F0F2FB81469DF8080023
:10582000002811D164B2002C0ED4BB480068D4F11A
:10583000140119EB0101C840854203D301208DF802
:105840000800EBE7641EE9E764B2002C03D50020F2
:10585000040040B201E064B220003C700120D4F1A9
:105860001701884000FB05F0AB49096819F10502F2
:10587000D140B0FBF1F080460020C0B2032824DA0A
:105880005FFA88F8C0B210EB0801491E002914D055
:105890005FFA88F8C0B210EB0801FF319E4A126827
:1058A00019F10503DA405143D4F11702D140691AC6
:1058B000C0B200AA22F8101005E0C0B200A947F655
:1058C000FF7221F81020401CD7E74FF6FF7000212F
:1058D000C9B2032928DAC9B200AA32F91120012A73
:1058E00004DBC9B200AA32F9112004E0C9B200AA4F
:1058F00032F91120524280B2824213DAC9B200AAB0
:1059000032F91120012A04DBC9B200A830F81100D5
:1059100004E0C9B200A830F91100404211EB0802BE
:10592000521E3270491CD3E7BDE8F7838413002070
:105930007413002000366E0140787D0180BA8C011E
:1059400080F0FA020075190381BA8C012DE9FE4F2F
:1059500004000D00160000208DF8000000208DF8D6
:1059600001005FF02C0B5FF000085FF059095FF059
:10597000010A00F07CFB002808D000F040FB002862
:1059800002D00220824601E001208246624800687F
:105990005FFA8AFAB0FBFAF06421B0FBF1F09DF8EF
:1059A000001000294BD14FFA8BFBAC4931F81B108A
:1059B000414340F62822B1FBF2F1A14221D24FFA35
:1059C0008BFBA64911EB4B0131F8021C414340F619
:1059D0002822B1FBF2F1A14206D301218DF800107B
:1059E00001218DF80110DAE7D9464FFA89F94FFA0B
:1059F00088F8B9EB0801022291FBF2F1BBEB010B35
:105A0000CDE74FFA8BFB954911EB4B014988414398
:105A100040F62822B1FBF2F18C4203D301218DF82C
:105A20000010BCE7D8464FFA89F94FFA88F8B9EB6D
:105A30000801022291FBF2F111EB0B0BAFE75F467D
:105A40000021C9B2032926DA7FB2C9B2CA19521E8F
:105A5000002A05D57FB2C9B2CA19521E5A2A12DAD3
:105A60007FB2C9B2CA197D4B13EB420232F8022C45
:105A7000424340F62823B2FBF3F2A21AC9B201ABAB
:105A800023F8112005E0C9B201AA47F6FF7322F8F6
:105A90001130491CD5E74FF6FF710022D2B2032A1C
:105AA00027DAD2B201AB33F91230012B04DBD2B2C8
:105AB00001AB33F9123004E0D2B201AB33F912304A
:105AC0005B4289B28B4212DAD2B201AB33F91230A7
:105AD000012B04DBD2B201A931F8121004E0D2B2DA
:105AE00001A931F912104942D3195B1E9B46521C81
:105AF000D4E74FFA8BFB09229BFBF2F232704FFA8C
:105B00008BFB09229BFBF2F302FB13B22A70BDE868
:105B1000F78F000088140108741300202DE9FE435C
:105B200005000E00170000208DF8080009245FF022
:105B3000000800F09CFA002801D018F101089DF837
:105B40000800002811D164B2002C0ED4DFF87403D1
:105B5000006818F10F01091BC840854203D30120DA
:105B60008DF80800EBE7641EE9E764B2002C03D56A
:105B70000020040040B201E064B220003C70D4F187
:105B80000C0018EB000015FA00F0DFF83813096874
:105B90008909B0FBF1F081465FFA89F9B9F1080F84
:105BA00001DBB9F108090020C0B2032825DA5FFA49
:105BB00089F9C0B210EB0901491E082915DADFF88E
:105BC0000413096889095FFA89F9C0B210EB090268
:105BD000D21D5143D4F10C0218EB0202D140691AD4
:105BE000C0B200AA22F8101005E0C0B200A947F622
:105BF000FF7221F81020401CD6E74FF6FF700021FD
:105C0000C9B2032928DAC9B200AA32F91120012A3F
:105C100004DBC9B200AA32F9112004E0C9B200AA1B
:105C200032F91120524280B2824213DAC9B200AA7C
:105C300032F91120012A04DBC9B200A830F81100A2
:105C400004E0C9B200A830F91100404211EB09028A
:105C5000521E3270491CD3E7BDE8F78344050108A2
:105C600080565F2EE12F0C3980E40117616A141C05
:105C7000C060D211E1D7CE14408FE10861D06F0A25
:105C800040420F003C1301088C14010884130020CB
:105C9000E2F49C09C4E93913068DA2190B1A4533A5
:105CA0002DE9F04F83B082460F00380001F02EF846
:105CB000DFF81422DFF81432FFF708F9DFF81022BA
:105CC000DFF81032FEF74EFF01F048F80600300012
:105CD00001F01CF8DFF80022DFF80032FEF796FC36
:105CE00004000D00300001F011F822002B00FEF737
:105CF0008DFC04000D00300001F008F822002B009C
:105D0000FEF784FC04000D00300000F0FFFF2200CD
:105D10002B00FEF77BFC80468946300000F0F6FF42
:105D2000DFF8BC21DFF8BC31FEF770FC04000D0089
:105D3000300000F0EBFF22002B00FEF767FC0400B0
:105D40000D00300000F0E2FF22002B00FEF75EFCA9
:105D500042464B46FFF7BAF880468946300000F0CD
:105D6000D5FFDFF88421DFF88431FEF74FFC040013
:105D70000D00300000F0CAFF22002B00FEF746FCA9
:105D800002000B0040464946FEF72CFE04000D00C1
:105D9000300000F0BBFFDFF85821DFF85831FEF784
:105DA00035FC02000B0020002900FEF71BFEDFF887
:105DB0004821DFF84831FFF789F800F085FFFEF74A
:105DC000CDFD8DF800009DF800005B2804DB5A2013
:105DD0008DF80000C0B201E09DF80000DAF1170074
:105DE000834600AA01215846C0B200F04BFA019048
:105DF000DFF80C01BDF804100180BDE8F78F1CB579
:105E0000040000AA0121182000F0D1FA9DF800003A
:105E100010F03F008DF800009DF8000020438DF841
:105E2000000000AA0121182000F02CFA0190DFF8F0
:105E30000802BDF80410018013BD1CB5040000AABF
:105E40000121182000F0B3FA9DF8000010F0F800CE
:105E50008DF800009DF8000020438DF8000000AA96
:105E60000121182000F00EFA0190DFF8CC01BDF8F6
:105E70000410018013BD1CB5040000208DF8000043
:105E800000AA01211E2000F092FAE4B2012C06D1F2
:105E90009DF8000050F080008DF8000005E09DF8AE
:105EA000000010F07F008DF8000000AA01211E20E4
:105EB00000F0E8F90190DFF88001BDF804100180DE
:105EC00013BD00007413002036AB3E575BD1224057
:105ED000295C8FC2F5282840D862B7CF2A33B53F56
:105EE0005DDC4603780BF13F0ABFD4CF9B8AEA3FC3
:105EF0004C37894160253C40E5D022DBF91E474004
:105F0000841300201CB5040000AA0121272000F002
:105F10004EFAE4B2012C06D19DF8000050F01000BA
:105F20008DF8000005E09DF8000010F0EF008DF8FE
:105F3000000000AA0121272000F0A4F901903E48AA
:105F4000BDF80410018013BD1CB5040000AA012196
:105F50009E2000F02CFAE4B2012C06D19DF800003E
:105F600050F080008DF8000005E09DF8000010F072
:105F70007F008DF8000000AA01219E2000F082F928
:105F800001902D48BDF80410018013BD00B583B009
:105F900000AA01219E2000F00AFA01902648BDF8CF
:105FA000041001809DF80000C0B2C009C0B20028F2
:105FB00001D0012000E000200EBD1CB5040000AAA5
:105FC0000121B42000F0F3F9E4B2012C06D19DF8D0
:105FD000000010F0F7008DF8000005E09DF80000CB
:105FE00050F008008DF8000000AA0121B42000F054
:105FF00049F901901048BDF80410018013BD00B5A7
:1060000083B000AA0121B42000F0D1F901900A4820
:10601000BDF8041001809DF80000C0F3C000C0B2BC
:10602000002801D0002000E001200EBD03480068D8
:1060300070470249086070478413002074130020E1
:1060400000B583B000AA0221F02000F0B0F9019061
:106050000948BDF8041001809DF800009DF801106A
:1060600051EA002080B20EBD044908707047034811
:1060700000787047000000008413002026040020F0
:1060800000B587B000F02BFFC0B2DFF81C1651F846
:106090002000DFF81816086000F021FFDFF8101666
:1060A00011EB4000DFF80C16086000F018FFDFF875
:1060B000081611EB8000DFF80416086000F00FFFEF
:1060C000002853D101214FF4805001F057F80121ED
:1060D000102001F025F805220F21DFF8E40501F07A
:1060E0000FFB05220E21DFF8D80501F009FB052280
:1060F0000D21DFF8CC0501F003FB02208DF8040030
:1061000000208DF8060002208DF8070003208DF88E
:1061100005004FF40050009000A9DFF8A40501F03D
:1061200059F94FF48040009000A9DFF8940501F080
:1061300051F94FF40040009000A9DFF8840501F008
:1061400049F94FF48050009001208DF804000020A0
:106150008DF8060001208DF8070003208DF805005A
:1061600000A9DFF85C0501F035F952E001210220B9
:1061700000F0D6FF05220E21DFF8480501F0C0FA35
:1061800005220F21DFF83C0501F0BAFA05220D21A6
:10619000DFF8300501F0B4FA02208DF80400002089
:1061A0008DF8060002208DF8070003208DF8050009
:1061B0004FF40050009000A9DFF8080501F00AF93B
:1061C0004FF40040009000A9DFF8F80401F002F954
:1061D0004FF48040009000A9DFF8E80401F0FAF8DD
:1061E0004FF48050009001208DF8040000208DF8BD
:1061F000060001208DF8070003208DF8050000A996
:10620000DFF8C00401F0E6F801214FF4804000F00F
:10621000E3FFDFF89804006801F046FB4FF482705A
:10622000ADF80A000020ADF808000020ADF80C0021
:106230000020ADF80E000020ADF810004FF4007003
:10624000ADF812000820ADF814000020ADF81600DB
:106250000720ADF8180002A9DFF85004006801F02B
:1062600050FB0121DFF84404006801F0F1FBDFF886
:106270004C0400680068DFF83C1409680988018351
:1062800007B000BD2DE9F04184B004000D001600F8
:106290000020ADF802000DF1020700208DF8040087
:1062A0008DF8054072B6DFF8140400680068DFF866
:1062B00004140968098841830020ADF80000BDF886
:1062C0000000002805D1BDF80000401CADF800001A
:1062D000F5E75FF00008B8F1020F2BDA0221DFF8D2
:1062E000CC03006801F002FC0028F7D001A818F8E0
:1062F000001089B2DFF8B403006801F0E4FB01216B
:10630000DFF8A803006801F0F1FB0028F7D0DFF800
:106310009C03006801F0C5FBBDF8021080B2D8F103
:106320000102D2B2D20090404018ADF8020018F13C
:106330000108D0E75FF00008EDB2A8451FDA02219E
:10634000DFF86803006801F0D1FB0028F7D018F8E7
:10635000061089B2DFF85403006801F0B4FB012194
:10636000DFF84803006801F0C1FB0028F7D0DFF830
:106370003C03006801F095FB18F10108DCE70221FD
:10638000DFF82803006801F0B1FB0028F7D0DFF840
:106390002C0300680068DFF81C1309680988018372
:1063A00062B638880290029804B0BDE8F0812DE909
:1063B000FE4304000D0016000020ADF802000DF1B0
:1063C00002074FF0FF0801208DF804008DF805400A
:1063D00072B6DFF8E80200680068DFF8D8120968D2
:1063E000098841830020ADF80000BDF800000028B6
:1063F00005D1BDF80000401CADF80000F5E75FF0E6
:106400000009B9F1020F2BDA0221DFF8A0020068BF
:1064100001F06CFB0028F7D001A819F8001089B230
:10642000DFF88802006801F04EFB0121DFF87C02F2
:10643000006801F05BFB0028F7D0DFF8700200680D
:1064400001F02FFBBDF8021080B2D9F10102D2B2E7
:10645000D20090404018ADF8020019F10109D0E7D0
:106460005FF00009EDB2A9451EDA02218F480068ED
:1064700001F03CFB0028F8D05FFA88F8414689B269
:106480008A48006801F01FFB01218848006801F07C
:106490002DFB0028F8D08548006801F002FB307021
:1064A000761C19F10109DDE702218048006801F03E
:1064B0001DFB0028F8D08148006800687D49096804
:1064C0000988018362B6388802900298BDE8FE838D
:1064D00070B584B004000020ADF802000DF1020593
:1064E00080208DF804008DF8054072B6734800686E
:1064F000006870490968098841830020ADF80000F0
:10650000BDF80000002805D1BDF80000401CADF822
:106510000000F5E70026022E25DA02216348006814
:1065200001F0E4FA0028F8D001A8315C89B25F4894
:10653000006801F0C8FA01215C48006801F0D6FA51
:106540000028F8D05948006801F0ABFABDF80210F5
:1065500080B2D6F10102D2B2D20090404018ADF81C
:106560000200761CD7E702215048006801F0BEFA0D
:106570000028F8D05148006800684E490968098829
:10658000018362B628880290029804B070BD2DE99C
:10659000F04184B004000D000020ADF802000DF1C0
:1065A0000206FF2701208DF80400FF208DF805006A
:1065B00072B64248006800683E490968098841830C
:1065C0000020ADF80000BDF80000002805D1BDF89E
:1065D0000000401CADF80000F5E75FF00008B8F1DE
:1065E000020F27DA02213148006801F07FFA002803
:1065F000F8D001A818F8001089B22C48006801F002
:1066000062FA01212948006801F070FA0028F8D0E8
:106610002648006801F045FABDF8021080B2D8F1B2
:106620000102D2B2D20090404018ADF8020018F139
:106630000108D4E75FF00008E4B2A0451DDA0221AA
:106640001A48006801F052FA0028F8D0FFB2390069
:1066500089B21648006801F036FA01211348006833
:1066600001F044FA0028F8D01048006801F019FA47
:1066700028706D1C18F10108DEE702210B48006844
:1066800001F034FA0028F8D00C4800680068094985
:1066900009680988018362B630880290029804B0C4
:1066A000BDE8F08100000000A0030020601300207E
:1066B0004814010868130020AC0300206413002074
:1066C000001002400004024080B500AA0121C02051
:1066D000FFF76DFE0149086001BD00BF8413002073
:1066E0002DE9F04F87B00400DFF84804844206D358
:1066F000DFF84404844202D2002081461FE0DFF824
:106700003C04844206D3DFF83804844202D20120DC
:10671000814614E0DFF82C04844206D3DFF8280415
:10672000844202D20220814609E0DFF8200484423C
:1067300005D3DFF81C04844201D203208146FEF712
:1067400029FF8046FEF711FF0500FEF7FEFE06005A
:1067500018EB0400F6B206FB05008346FFF716FCB3
:10676000471CFFF784FC00283AD05FFA89F9B9F199
:10677000000F2AD0B9F1020F0FD01AD3B9F1030FCD
:106780002ED1DFF8D003834503D2002000F078FA41
:1067900002E0012000F074FA22E0DFF8BC03834538
:1067A00003D2002000F06CFA02E0012000F068FA49
:1067B00016E0DFF8A803834503D2002000F060FA5A
:1067C00002E0012000F05CFA0AE0DFF89403834560
:1067D00003D2002000F054FA02E0012000F050FA49
:1067E0005846FEF7ADFD8DF81000FFF71FFC8246FE
:1067F0002000FEF7E9F8CDE90201FFB25FFA89F95E
:10680000DFF8600319F8000000FB07F05FF4802157
:106810004843FEF7CFF8CDE900015046FEF7D4F823
:1068200002000B00DDE90001FEF79CF9DDE902231F
:10683000FDF7ECFEFEF7A8F806900698400D10F064
:106840001F009DF81010490108438DF814000698A8
:10685000400B8DF81500069840098DF81600069833
:106860005FFA89F9DFF8001319F8011051EAC00046
:106870008DF8170005AA04210820FFF703FD0090FA
:10688000DFF8E802BDF80010018007B0BDE8F08F26
:106890002DE9F04782B000275FF00008FFF7C6FB44
:1068A0008146FFF7E4FB8246DFF8C40281450ED340
:1068B000FFF76CFB00280AD101200700FEF766FFF6
:1068C00006000120FFF740FB3000FFF709FFFEF74D
:1068D0005DFF060019208DF8000000AA0121A1200B
:1068E000FFF7D0FC012000F04DF9FFF7EDFEDFF8D7
:1068F0007C020078C0B24008C0B240280DD101200F
:106900008046622001F02AF9FFF7DEFE9748007802
:10691000C0B24008C0B20328F6D1662001F01EF9CB
:10692000FFF7D2FE91480078C0B24008C0B20F28ED
:10693000F6D100F04EF90500622001F00FF9FFF7E3
:10694000C3FE8A480078C0B24008C0B20328F6D11E
:106950008748814508D35FFA8AFABAF1010F03D15B
:1069600084488019FFF7BCFE652001F0F7F8FFF7B7
:10697000ABFE7E480078C0B24008C0B20F28F6D106
:1069800000F027F90400622001F0E8F8FFF79CFE10
:1069900076480078C0B24008C0B20328F6D15FFA4A
:1069A00088F8B8F1010F02D1632001F0D7F8002078
:1069B00000F0E8F8FFB2002F07D16D4881450AD3F7
:1069C0005FFA8AFABAF1010F05D10020FFF7BCFA8D
:1069D0003000FFF785FE11208DF8000000AA01218C
:1069E000A120FFF74FFC2800C0B200F003F92000FF
:1069F000C0B200F021F9BDE8F38738B5FFF716FB08
:106A00000400FFF734FB0500EDB2012D20D15A48F8
:106A100084421DD202208DF8000000AA01215020DE
:106A2000FFF730FC632001F099F829208DF8000071
:106A300000AA0121B420FFF725FC06208DF80000F4
:106A400000AA01215020FFF71DFC622001F086F80A
:106A500031BD1CB5FFF70BFB0400E4B2012C18D1CB
:106A6000002001900198FF2803D20198401C01905A
:106A7000F8E710208DF8000000AA0121A820FFF7F8
:106A800001FC00208DF8000000AA0121A820FFF7DA
:106A9000F9FB13BD10B582B0FFF7E9FA0400E4B2C8
:106AA000012C17D1A8208DF8000000AA0121A920EF
:106AB000FFF7E8FB4B208DF8000000AA0121AA2077
:106AC000FFF7E0FBFC208DF8000000AA0121AB20BD
:106AD000FFF7D8FB13BD38B528480078012821D02E
:106AE000FFF7A4FA0400FFF7C2FA0500EDB2012D8A
:106AF0000AD11F48844207D3214800681D4908185D
:106B0000FFF7EEFDFFF7C6FF90208DF8000000AA0A
:106B10000121A520FFF7B6FB0020FFF770F9174809
:106B20000121017031BD154902220A701449086023
:106B30007047000080565F2EE12F0C3980E401176A
:106B4000616A141CC060D211E1D7CE14408FE108F5
:106B500061D06F0AE2F49C09C4E93913068DA219C9
:106B60000B1A453384140108801401088413002093
:106B700081BA8C012C540700006CDC022704002031
:106B8000701300201CB5040000AA01215020FFF75B
:106B90000EFC01903948BDF804100180E4B2012CCC
:106BA00006D19DF8000050F002008DF8000005E0CD
:106BB0009DF8000010F0FD008DF8000000AA0121F2
:106BC0005020FFF75FFB01902C48BDF804100180B6
:106BD00013BD00B583B000AA0121E520FFF7E7FB54
:106BE00001902648BDF8041001809DF8000010F0C7
:106BF0007F000EBD1CB5040000AA01216E20FFF726
:106C0000D6FB01901D48BDF8041001809DF80000DE
:106C100010F080008DF800009DF8000020438DF8F2
:106C2000000000AA01216E20FFF72CFB0190134801
:106C3000BDF80410018013BD1CB5040000AA012199
:106C40006F20FFF7B4FB01900C48BDF804100180E1
:106C50009DF8000010F080008DF800009DF8000005
:106C600020438DF8000000AA01216F20FFF70AFBE6
:106C700001900248BDF80410018013BD8413002068
:106C800010B582B0040000AA01219E20FFF78FFBFF
:106C90009DF8000010F0F9008DF80000E4B2012C1E
:106CA00006D19DF8000050F002008DF8000005E0CC
:106CB0009DF8000050F004008DF8000000AA0121AA
:106CC0009E20FFF7DFFA13BD83B5012100A800F075
:106CD00055FF401E012811D9002100A800F04EFFE9
:106CE00060B10198DDE90023002847BF0020054975
:106CF00000200549FEF7EAF8CDE90001DDE90001D1
:106D000003B000BD0000F0BF0000F03F5FF0FF0CDB
:106D10001CEAD05114BF614506E0C110400721F0C4
:106D2000E04101F16051704779B900F00041000283
:106D30000AD0B0FA80FC00FA0CF001F16051A1EB2E
:106D40000C5101EBD0214005704741020CBF40F4CB
:106D5000E0016FF000010020704700004FEAF17C75
:106D6000BCF1E04C2CBFBCF5001F11E05FEA4C0CFD
:106D700034BFBCF17F5F2EE05FEA9C0C4FEA0C1C35
:106D80004FEA3C0CC10071F100414CEB5070704770
:106D9000C90241EA5051C00218BF41F0010141F05F
:106DA00000414FEA6C50C0F10900212810D240EA9E
:106DB000CC7CCCF1200C11FA0CF070F10040CCF13D
:106DC000200C21FA0CF00CF0004C40EB0C0070474A
:106DD0004FEACC707047490011F5001F04D84FEA04
:106DE000CC10FF30C0057047C8177047E0B50121CF
:106DF000102000F095F901208DF8080000208DF892
:106E00000B0003208DF8090000208DF80A000220F5
:106E1000019001A9334800F0DDFA3348008850F0B2
:106E200002003149088000208DF800009DF8000024
:106E3000002805D19DF80000401C8DF80000F5E702
:106E40002A480088800703D529480021017035E0D1
:106E50000121082000F064F90420019001A92548CF
:106E600000F0B8FA2448008850F004002249088055
:106E700000208DF800009DF80000002805D19DF845
:106E80000000401C8DF80000F5E71C480088400712
:106E900003D517480121017002E015480221017055
:106EA00000208DF8080001A9124800F093FA12485A
:106EB00000884FF6FB7108400F49088002200190BE
:106EC00000208DF8080001A9064800F083FA064862
:106ED00000884FF6FD7108400349088007BD04484B
:106EE0000078704700100240141002401010024059
:106EF00024040020000C0240140C0240100C02403C
:106F000010B50400E4B2002C08D0E4B2012C05D086
:106F10004FF4D271DFF8680400F024FFDFF8680452
:106F2000E4B2046010BD10B50400E4B2002C08D037
:106F3000E4B2012C05D040F2D511DFF8440400F092
:106F400011FFDFF84804E4B2046010BDF0B4002182
:106F500000220023002400250026DFF820743F686B
:106F600017F00C0739000F00002F06D0042F15D0A2
:106F7000082F17D00C2F19D042E0DFF808743F68B3
:106F8000C7F342373E00012716F1010C17FA0CF740
:106F90004FF4004C0CFB07F7076041E0DFF8F0739B
:106FA00007603DE0DFF8EC73076039E0DFF8CC7391
:106FB0003F6817F470173A00DFF8C0733F6817F4A2
:106FC00040073B00920CDFF8D073D25D9B0D5B1C39
:106FD000DFF8A8733F6817F480373C00002C07D116
:106FE000DFF8AC7307FB02F7B7FBF3F7076006E0C7
:106FF000DFF8A07307FB02F7B7FBF3F707600FE0BA
:10700000DFF880733F68C7F342373E00012716F16F
:10701000010C17FA0CF74FF4004C0CFB07F7076054
:10702000DFF858733F6817F0F00739000909DFF8F7
:107030006C73CF5D3D000768EF404760DFF83C733D
:107040003F6817F4E0673900090ADFF85073CF5D35
:107050003D004768EF408760DFF820733F6817F412
:1070600060573900C90ADFF83473CF5D3D004768C7
:10707000EF40C760F0BC704738B504000025B4F598
:10708000803F17D0B4F5003F14D0B4F5403F11D085
:10709000DFF80C0384420DD0DFF80803844209D0E6
:1070A000DFF80403844205D040F2E131DFF8D0027A
:1070B00000F058FE14F44030B0F5403F0BD1DFF83B
:1070C000B8020068050035F0C04514F0C040054323
:1070D000DFF8A4020560DFF8D402006830F4403025
:1070E000DFF8C8120860DFF8C402006814F4403109
:1070F0000843DFF8B812086031BD10B50400E4B2EF
:10710000002C08D0E4B2012C05D040F20341DFF896
:10711000700200F027FEDFF89802E4B2046010BDB0
:1071200038B504000D00DFF88C02044201D1002CB8
:1071300005D140F22F41DFF8480200F013FEEDB216
:10714000002D08D0EDB2012D05D04FF48661DFF897
:10715000300200F007FEEDB2002D07D0DFF8580234
:1071600000682043DFF85012086006E0DFF84802AC
:107170000068A043DFF84012086031BD38B5040054
:107180000D00DFF83802044201D1002C05D140F295
:107190005141DFF8EC0100F0E5FDEDB2002D08D023
:1071A000EDB2012D05D040F25241DFF8D40100F0DC
:1071B000D9FDEDB2002D07D0DFF8040200682043AE
:1071C000DFF8FC11086006E0DFF8F4010068A04376
:1071D000DFF8EC11086031BD38B504000D00DFF8B0
:1071E000E401044201D1002C05D140F27C41DFF8DA
:1071F000900100F0B7FDEDB2002D08D0EDB2012DE9
:1072000005D040F27D41DFF8780100F0ABFDEDB232
:10721000002D07D0DFF8B00100682043DFF8A81187
:10722000086006E0DFF8A0010068A043DFF89811CD
:10723000086031BD38B504000D00DFF8800104425C
:1072400001D1002C04D140F2BC414D4800F08AFD30
:10725000EDB2002D07D0EDB2012D04D040F2BD41BA
:10726000474800F07FFDEDB2002D07D0DFF85C014C
:1072700000682043DFF85411086006E0DFF84C0195
:107280000068A043DFF84411086031BD38B5040040
:107290000D004C48044201D1002C04D140F2E441DD
:1072A000374800F05FFDEDB2002D07D0EDB2012DA3
:1072B00004D040F2E541324800F054FDEDB2002D1B
:1072C00005D04348006820434149086004E0404835
:1072D0000068A0433E49086031BDF8B504000025B0
:1072E00000260027E4B2212C28D0E4B2312C25D08E
:1072F000E4B2292C22D0E4B2392C1FD0E4B2492CBC
:107300001CD0E4B2412C19D0E4B25A2C16D0E4B20D
:107310005B2C13D0E4B25C2C10D0E4B25D2C0DD009
:10732000E4B25E2C0AD0E4B25F2C07D0E4B25E2C4B
:1073300004D040F2B651124800F014FDE4B26009E6
:10734000C0B20500012D03D10B480068060002E021
:10735000164800680600E4B214F01F00050036FA73
:1073600005F0C00702D50120070001E0002007005A
:107370003800C0B2F2BD00000038024008380240B8
:10738000040A0108043802400000474280064742D0
:107390000024F40000127A00D003002090030020A3
:1073A0000000032000000340000003603438024066
:1073B000D8064742C06FFFFE1C380240E2ADFFFF17
:1073C00020380240C8B5194F243802401438024012
:1073D000183802402DE9F04104000D000026002776
:1073E0005FF00008DFF8A404844218D0DFF8A0049E
:1073F000844214D0DFF89C04844210D0DFF8980453
:1074000084420CD0DFF89404844208D0DFF8900462
:10741000844204D0C121DFF88C0400F0A3FC28686A
:10742000002804D1C221DFF87C0400F09BFC2879FD
:1074300000280DD0287901280AD02879022807D001
:107440002879032804D0C321DFF8580400F08AFC0F
:10745000E87900280AD0E879012807D0E8790228DD
:1074600004D0C421DFF83C0400F07CFC00200600BE
:10747000102E65D20120B0400700286838408046B1
:10748000B8455BD1206803213200D2B2520091404E
:1074900088432060206829793200D2B2520091409E
:1074A000084320602879012802D02879022835D1A4
:1074B000687900280DD0687901280AD068790228F7
:1074C00007D06879032804D0D821DFF8D80300F06A
:1074D00049FCA06803213200D2B252009140884397
:1074E000A060A06869793200D2B25200914008438E
:1074F000A060A879002807D0A879012804D0DF214E
:10750000DFF8A00300F02EFCA0880121B1408843E1
:10751000A080A088A979B1400843A080E068032139
:107520003200D2B2520091408843E060E068E979CD
:107530003200D2B2520091400843E060761C97E7D7
:10754000BDE8F08170B504000D000026DFF83C03B3
:10755000844219D0DFF83803844215D0DFF83403B1
:10756000844211D0DFF8300384420DD0DFF82C03C1
:10757000844209D0DFF82803844205D040F2391153
:10758000DFF8200300F0EEFBADB2012D3AD0ADB232
:10759000022D37D0ADB2042D34D0ADB2082D31D08C
:1075A000ADB2102D2ED0ADB2202D2BD0ADB2402DCE
:1075B00028D0ADB2802D25D0ADB2B5F5807F21D0D9
:1075C000ADB2B5F5007F1DD0ADB2B5F5806F19D065
:1075D000ADB2B5F5006F15D0ADB2B5F5805F11D085
:1075E000ADB2B5F5005F0DD0ADB2B5F5804F09D0A5
:1075F000ADB2B5F5004F05D04FF49D71DFF8A40290
:1076000000F0B0FB208AADB2284202D00120060073
:1076100001E0002006003000C0B270BD10B50400CB
:10762000DFF86802844219D0DFF86402844215D082
:10763000DFF86002844211D0DFF85C0284420DD092
:10764000DFF85802844209D0DFF85402844205D0A2
:1076500040F24F11DFF84C0200F084FB208A10BD8D
:1076600038B504000D00DFF82402844219D0DFF899
:107670002002844215D0DFF81C02844211D0DFF8CA
:10768000180284420DD0DFF81402844209D0DFF8DA
:107690001002844205D04FF4C471DFF8080200F0F4
:1076A00061FBADB2002D05D140F28911DFF8F40184
:1076B00000F058FB258331BD38B504000D00734838
:1076C000844213D07248844210D0724884420DD054
:1076D000714884420AD07148844207D0704884427D
:1076E00004D040F29B116F4800F03CFBADB2002D7E
:1076F00004D14FF4CE716B4800F034FB658331BD8B
:107700002DE9F04104000D00160000275FF000088D
:107710005E48844213D05E48844210D05D48844263
:107720000DD05D4884420AD05C48844207D05C4852
:10773000844204D040F209215A4800F013FBADB254
:10774000002D31D0ADB2012D2ED0ADB2022D2BD0F7
:10775000ADB2032D28D0ADB2042D25D0ADB2052D8C
:1077600022D0ADB2062D1FD0ADB2072D1CD0ADB2C8
:10777000082D19D0ADB2092D16D0ADB20A2D13D0F7
:10778000ADB20B2D10D0ADB20C2D0DD0ADB20D2D74
:107790000AD0ADB20E2D07D0ADB20F2D04D040F2FD
:1077A0000A21404800F0DEFAF6B2002E46D0F6B2CA
:1077B000002E43D0F6B2002E40D0F6B2002E3DD0BF
:1077C000F6B2002E3AD0F6B2002E37D0F6B2012E25
:1077D00034D0F6B2022E31D0F6B2022E2ED0F6B24E
:1077E000032E2BD0F6B2032E28D0F6B2032E25D0CE
:1077F000F6B2042E22D0F6B2042E1FD0F6B2052E19
:107800001CD0F6B2052E19D0F6B2072E16D0F6B25D
:10781000072E13D0F6B2072E10D0F6B20A2E0DD0D6
:10782000F6B20B2E0AD0F6B20E2E07D0F6B20F2EFD
:1078300004D040F20B211B4800F094FAF6B215F088
:107840000700C0B2800016FA00F00700ADB2E810E1
:1078500014EB8000ADB2E91014EB8101096A0F222C
:1078600015F00703DBB29B009A4091430162ADB271
:10787000E81014EB8000006A38438046ADB2E8108F
:1078800014EB8000C0F82080BDE8F08100000240C9
:107890000004024000080240000C024000100240B8
:1078A000001402400008010810B50400DFF8A0022F
:1078B000844208D0DFF89C02844204D08D21DFF896
:1078C000980200F04FFADFF8880284420AD10121C1
:1078D0004FF48050FFF7AEFC00214FF48050FFF7CB
:1078E000A9FC0DE0DFF86C02844209D101214FF4BC
:1078F0008040FFF7CBFC00214FF48040FFF7C6FC2F
:1079000010BD70B504000D000026DFF8440284426B
:1079100008D0DFF84002844204D0AF21DFF83802FB
:1079200000F020FA2888002810D02888B0F5806F51
:107930000CD02888B0F5004F08D02888B0F5404F0B
:1079400004D0B221DFF8100200F00CFA6888B0F51C
:10795000827F07D06888002804D0B321DFF8F801BF
:1079600000F000FAA888B0F5006F07D0A8880028BA
:1079700004D0B421DFF8E00100F0F4F9E888002831
:1079800007D0E888022804D0B521DFF8CC0100F048
:10799000E9F92889002807D02889012804D0B621D0
:1079A000DFF8B40100F0DEF96889B0F5007F07D098
:1079B0006889002804D0B721DFF89C0100F0D2F9D3
:1079C000A889002819D0A889082816D0A8891028C5
:1079D00013D0A889182810D0A88920280DD0A889EC
:1079E00028280AD0A889302807D0A889382804D0A8
:1079F000B821DFF8640100F0B5F9E889002807D064
:107A0000E889802804D0B921DFF84C0100F0AAF9F8
:107A1000288A002804D1BA21DFF83C0100F0A2F93D
:107A20002088060016F44156288869880843A988EA
:107A30000843E98808432989084369890843A989D3
:107A40000843E989084306432680288A208270BDBE
:107A500038B504000D00DFF8F800844208D0DFF8E4
:107A6000F400844204D0FB21DFF8EC0000F07AF946
:107A7000EDB2002D07D0EDB2012D04D0FC21DFF8CE
:107A8000D80000F06FF9EDB2002D04D0208850F03E
:107A90004000208004E020884FF6BF71084020801D
:107AA00031BD10B50400DFF8A800844209D0DFF82A
:107AB000A400844205D04FF4C671DFF89C0000F0AA
:107AC00051F9A08910BD38B504000D00DFF8800021
:107AD000844209D0DFF87C00844205D040F29B113B
:107AE000DFF8740000F03EF9A58131BD70B50400E7
:107AF0000D0000261648844207D01648844204D060
:107B000040F2EB21144800F02DF9ADB2802D13D0D6
:107B1000ADB2402D10D0ADB2202D0DD0ADB2102D94
:107B20000AD0ADB2022D07D0ADB2012D04D04FF472
:107B30003B71094800F016F92089284202D0012043
:107B4000060001E0002006003000C0B270BD000059
:107B500000300140003800405C0B010810B582B0D5
:107B600004002000C0B2FEF7B3FC00900248BDF84C
:107B70000010018013BD00BF841300204268C2F3CF
:107B80000A5240F2FF739A4209D14168090304BFC7
:107B90000068002801D10120704702207047436827
:107BA0005B0004BF0368002B25D040F233439A1AD0
:107BB000521A012A1FDB352A06DB416801F0004119
:107BC00041600021016013E0012102F01F03994090
:107BD000491E920607D5426811404A404260026839
:107BE0001143002202E0026811404A40026011B1D4
:107BF0004FF0FF30704700207047000080B54FF411
:107C000040515FF0006000F031F901211F20FFF7C3
:107C100087FA00F057F900F062F900F059F900F026
:107C200087FB00F005FBFFF7E1F8002000F0A0FB68
:107C3000002000F0FCFB012000F09AFB022000F085
:107C400097FB032000F094FB042000F091FB01213E
:107C5000012000F043FC0121042000F03FFC012141
:107C6000032000F03BFC0121002000F037FC022142
:107C7000042000F0F1FC00F0F4FF00F0E5FD00F05E
:107C8000F0FE3D490D2000F05CFF01F007F800F028
:107C9000A6FDFEF7F5F901F03DF87020FFF75EFF55
:107CA000FEF7ABFE01F089FE00F092FD01210320FA
:107CB00000F0D2FC00230F220F21032000F05AFD18
:107CC00001230F220F21032000F054FD00F087FD57
:107CD00000F028F8022002F083F94FF4807002F0DF
:107CE000A4FF00230F220F21012000F043FD2348B1
:107CF00000210170224800210180224800680528E7
:107D000003D1032000F093FBF7E7032000F0B4FB5E
:107D1000F3E770471C480121016070471B480121AF
:107D200001607047E0B501F015FF19480068029046
:107D300002A802F097FF17480068019001A802F01E
:107D400091FF15480068009000A802F08BFF012108
:107D5000012000F081FC00230F220F21012000F000
:107D600009FD07BD38B504000D002A0021000B48AD
:107D700003F002F8FEE7000033335340E91300201C
:107D8000C61300209C130020301300203413002061
:107D9000581401085C140108601401086C110108F2
:107DA00010B50400B4F5E06F0FD0B4F5C06F0CD07F
:107DB000B4F5A06F09D0B4F5806F06D0B4F5407F5C
:107DC00003D078213648FFF7CDFF364820433649A7
:107DD000086010BDF8B50400002500260F27E078E4
:107DE000002806D0E078012803D08C212C48FFF72A
:107DF000B9FF6078102803DB8D212948FFF7B2FF17
:107E0000A078102803DB8E212548FFF7ABFFE07830
:107E1000002820D02448006810F4E060D0F5E0602D
:107E2000000A0500D5F104000600EF406078B0407C
:107E30000500A078384005432D0120781B494554A2
:107E4000207840111A490122237813F01F039A4029
:107E500041F8202009E020784011164901222378BA
:107E600013F01F039A4041F82020F1BD38B50400FB
:107E70000D00B4F1005F06D0B4F1006F03D0B5215E
:107E80000748FFF76FFF0C48854203D3B62104482B
:107E9000FFF768FF0948284020430949086031BDC1
:107EA000600D01080000FA050CED00E000E400E0C0
:107EB00000E100E080E100E0FFFF010080FFFF1F24
:107EC00008ED00E080B501210120FFF757F901BD61
:107ED00080B501215FF40000FFF77EF901BD80B598
:107EE0004FF4C060FFF75CFF14208DF80000012004
:107EF0008DF8010000208DF8020001208DF80300AC
:107F000000A8FFF767FF26208DF8000000208DF8FD
:107F1000010000A8FFF75EFF01BD10B50400E4B248
:107F2000002C03D0012002F039FF02E0002002F013
:107F300035FF10BD80B5DFF8A4034FF41651016082
:107F4000DFF8980300218180DFF890030021C180D1
:107F5000DFF888034FF4C0610181DFF8800300215E
:107F60008181DFF878030C214181DFF87013002054
:107F700002F0B6FF012240F22551DFF8640303F05E
:107F80004EF901BD80B5DFF85C030079002803D00D
:107F900002280CD005D310E0DFF840030021C18097
:107FA0000FE0DFF838034FF44051C18009E0DFF8FB
:107FB0002C034FF40051C18003E0FFF7BBFF00200A
:107FC00049E0DFF820034079002803D002280CD0D4
:107FD00005D310E0DFF80403002101810FE0DFF892
:107FE000FC024FF48061018109E0DFF8F0024FF4F8
:107FF000C061018103E0FFF79DFF00202BE0DFF867
:10800000E4028079072802D0082804D010E0B348A1
:108010000021818010E0B1480089002803D1AF48D9
:108020000021818003E0AD484FF48051818003E05E
:10803000FFF780FF00200EE0A848AA490968016008
:10804000A64800218181A5480C214181A349002037
:1080500002F046FF012002BD38B5A3480078012890
:1080600000F08680A1480068402802D19F48002186
:1080700001609E4800689E490968884207D09D4873
:108080000078042803D09B480078062803D196483E
:10809000002101706CE096480068944909688842A4
:1080A00006D292480068D0F140009349086006E08B
:1080B0008F4800688D490968401A8F4908608E48CA
:1080C000006841280FD3894800680400402005005B
:1080D0008648006840308549086087480068403815
:1080E000854908600FE08148006804008248006804
:1080F00005007E4800688049096808187B490860C7
:108100007D48002101607848012101702A0092B267
:10811000C021A4B27948201803F0CCF9290089B213
:10812000012003F005FB012003F04FFA71480078AD
:10813000022808D16F4803210170714801210170A4
:1081400004F004F814E06B480078032806D169486D
:10815000042101706A480021017009E06548007837
:10816000072805D163480621017065480021017088
:1081700031BD80B55B488079072809D1584803F0A4
:1081800036F85B4909685D4A10F07F0088540AE0C0
:1081900054488079082806D1514803F028F85449FA
:1081A0000968564A885452480068401C5049086083
:1081B0004F480068402802D14D480021016001BDB0
:1081C00070B55048006804004F48006805004F48EB
:1081D000006806003419002C09D008224C49200000
:1081E00000F006F804224B49280000F001F870BDA9
:1081F00030B4002300242300DBB2D2B2934215D264
:10820000040F0A2C05D2DBB2040F303401F81340FE
:1082100004E0DBB2040F373401F813400001DBB295
:1082200011EB4304002565705B1CE5E730BC70472B
:1082300010B582B000208DF8000000208DF80100FC
:1082400000208DF80200002004F04EFA43F2F221E3
:10825000884214D000F021F82F4830490968416065
:108260002D482F49096881602B48002101602A4868
:1082700004F038F80400009800F054F80CE00120F5
:1082800004F0A4FA04F0BEF84FF4807004F067FA2A
:108290005FF4003002F0C9FC13BD80B5012004F08A
:1082A00095FA0120FEF73FFE4120FFF716F800285F
:1082B000FAD05FF40030FEF7DFFE1948FF210160BD
:1082C00016487F2101600120FEF717FF04F09AF89D
:1082D00000214FF4807004F0A7F901BDEC120020DA
:1082E00000440040DC030020CC13002028130020B1
:1082F00024130020E71300202C130020101200206C
:10830000E41300205000F81F5400F81F6400F81F09
:108310003E0300204E030020FC1200200813002022
:108320002013002001B500A9002004F0A0F801BD31
:1083300080B50948094901600748006802210172B7
:108340000748084901600848084901600448006876
:108350000068804701BD00BF90130020D0120020AC
:10836000941300208002002098130020D8020020DF
:108370001CB50400FEF7B3FD1421524A01FB002096
:1083800051490860FEF7ABFD0A21504A01FB00206D
:108390004F490860FEF7A3FD14214E4A01FB00205F
:1083A0004D4908600121E4B24B48006850F82400B0
:1083B000FEF7B6FEE4B24648006830F814000090BC
:1083C00001208DF8040000208DF8060000208DF8B3
:1083D000070003208DF8050000A9E4B23A480068C0
:1083E00050F82400FEF7F6FFFEF779FD002803D0D1
:1083F000FEF775FD01280AD1E4B23348006850F851
:108400002400E4B23249096831F814100183FEF700
:1084100066FD02280AD1E4B22B48006850F8240017
:10842000E4B22B49096831F81410418313BD10B52B
:108430000400FEF754FD002803D0FEF750FD01288C
:108440000AD1E4B22048006850F82400E4B2204980
:10845000096831F814104183FEF741FD02280AD162
:10846000E4B21948006850F82400E4B218490968D9
:1084700031F81410018310BD10B50400FEF72FFD74
:10848000002803D0FEF72BFD01280AD1E4B20E48E4
:10849000006850F82400E4B20D49096831F814105E
:1084A0000183FEF71CFD02280AD1E4B206480068E9
:1084B00050F82400E4B20649096831F814104183E9
:1084C00010BD000010020020541300201C130108EE
:1084D00058130020FC1001085C13002030B585B053
:1084E00004000D00FEF7FBFC1C214D4A01FB00209F
:1084F0004C490860FEF7F3FC0E214B4A01FB0020BB
:108500004A490860FEF7EBFC1C21494A01FB0020A8
:1085100048490860FEF7E3FC0E21474A01FB0020B2
:1085200046490860FEF7DBFC0E21454A01FB0020AE
:1085300044490860FEF7D3FC0E21434A01FB0020AA
:1085400042490860FEF7CBFC0E21414A01FB0020A6
:10855000404908600121E4B23648006850F8240020
:10856000FEF7DEFD01210120FEF708FE00208DF858
:10857000100000208DF81300E4B22C48006830F899
:108580001400039003A9E4B22648006850F82400C0
:10859000FEF720FFEDB2012D40D1E4B22B48006878
:1085A00030F81410C9B2E4B22648006830F814005C
:1085B000C0B202F015FCE4B22048006830F81400A4
:1085C000019000208DF80800E4B2002C03D00C20AC
:1085D0008DF8090002E008208DF8090001208DF8CF
:1085E0000A0001A802F056FAE4B21A48006830F80E
:1085F00014008DF800000F208DF8010000208DF888
:10860000020001208DF80300E4B20C48006830F845
:10861000140002F00AFB00A8FFF7DCFB05B030BD38
:10862000FC000020381300209C1101083C1300209E
:108630006410010840130020C811010844130020F1
:10864000F411010848130020201201084C130020E7
:108650004C120108501300207FB504000D000026C5
:10866000E4B2002C0FD0E4B2012C0CD0E4B2022C06
:1086700009D0E4B2032C06D0E4B2042C03D0F421D8
:108680006048FFF76FFBEDB2002D09D0EDB2012D70
:1086900006D0EDB2022D03D0F5215A48FFF762FB58
:1086A000FEF71DFC0121E4B2C0B240101422564B6B
:1086B00002FB003050F82400FEF732FD01210120BA
:1086C000FEF75CFDEDB2022D03D101208DF8040010
:1086D00002E000208DF80400E4B24C48205C8DF8E4
:1086E0000700E4B24A48205C8DF80500E4B249482E
:1086F000205C8DF80600E4B2474830F81400009082
:10870000FEF7EDFB00A9E4B2C0B240101422434BC7
:1087100002FB003050F82400FEF75CFEE4B2404853
:1087200050F824000290E4B23E48205C8DF80C0022
:10873000E4B23D48205C8DF80D008DF80E60EDB27E
:10874000012D10D1FEF7CBFBE4B23849615CE4B2F5
:10875000C0B24010364A12EB8000205C02F040FBB1
:1087600001208DF80E00E4B2042C02D002A802F021
:1087700091F97FBDF8B504000D0016001F00E4B2AA
:108780002C48205C8DF800008DF801508DF80260B7
:108790008DF8037000A8FFF71DFBF1BD10B50400B4
:1087A000FEF79DFBE4B2C0B2401014211B4A01FB4E
:1087B000002050F82400FEF731FF0100E4B2164813
:1087C00030F81400014201D0012000E0002010BD6B
:1087D00080B54FF400511848FEF742FF01BD80B547
:1087E0004FF400511448FEF767FF002000900098F6
:1087F000B0F5F05F03D20098401C0090F7E701BD90
:1088000000000000040E010878120108301401086D
:10881000281401083814010804140108B0020020CB
:10882000C4130108741401087814010870140108B5
:10883000401401087C1401080008024080B504209F
:10884000FFF7ACFF02BD000000B587B0FEF747FBA5
:1088500000284BD101215FF48000FEF7BDFC01210F
:108860000220FEF75DFC04220A21DFF84404FEF733
:1088700047FF04220B21DFF83804FEF741FF4FF4D5
:108880004060009003208DF8050002208DF8040060
:1088900001208DF8060000208DF8070000A9DFF800
:1088A0001004FEF797FDDFF80C0403F0A3FF00208F
:1088B000ADF80C004BF6FF70ADF80E00A020ADF83F
:1088C00010004FF48060ADF812004FF48040ADF816
:1088D0001400DFF8E403029002A9DFF8D80303F0E4
:1088E000B2FF0121DFF8CC0304F07BF807B000BD34
:1088F00038B504000D005FF40031DFF8B80304F070
:10890000AFF9002810D0DFF8B4030088401EDFF86C
:10891000AC13088080B20028EDD1DFF8A0034FF639
:10892000FF71018000209BE00121DFF8880304F043
:1089300083F8DFF88C13DFF87C0304F010F90028CB
:1089400010D1DFF880030088401EDFF8781308801C
:1089500080B20028EDD1DFF86C034FF6FF71018083
:1089600000207DE00022E4B2DFF85C03215CDFF848
:10897000440304F0B7F8DFF85413DFF8380304F0C9
:10898000EEF8002810D1DFF848030088401EDFF819
:108990004013088080B20028EDD1DFF834034FF691
:1089A000FF71018000205BE00021DFF8080304F084
:1089B000C2F8DFF82013DFF8FC0204F051F90028B8
:1089C00010D1DFF814030088401EDFF80C13088074
:1089D00080B20028EDD1DFF800034FF6FF7101806F
:1089E00000203DE02900C9B2DFF8C80204F0A3F876
:1089F000DFF8E012DFF8BC0204F032F9002810D1F1
:108A0000DFF8D8020088401EDFF8D012088080B25C
:108A10000028EDD1DFF8C4024FF6FF71018000207D
:108A20001EE0DFF8BC12DFF88C0204F019F9002810
:108A300010D1DFF8B0020088401EDFF8A8120880CD
:108A400080B20028EDD1DFF89C024FF6FF71018063
:108A5000002005E00121DFF85C0204F018F8012095
:108A600032BD00B589B0FEF73AFA002831D10121B4
:108A70004FF40070FEF782FB01210420FEF750FB4B
:108A80003B20009003208DF8050000208DF80400A5
:108A900001208DF8060000208DF8070000A9DFF8FE
:108AA0004802FEF797FC00208DF80C0000208DF89E
:108AB0000D00002005900020049000200690012069
:108AC0008DF81C000020029002A9DFF8200204F0BB
:108AD0007BF909B000BD38B5040040F6E125FEF78A
