:020000040800F2
:10300000882C0020514D0108152D0108172D0108AD
:10301000192D01081B2D01081D2D010800000000BD
:103020000000000000000000000000001F2D01084B
:10303000212D010800000000232D0108E798000859
:10304000594E01085D4E0108614E0108654E0108A8
:10305000694E01086D4E0108252D01083F2D01081C
:10306000712D01087D4E0108814E0108854E010831
:10307000894E01088D4E0108914E0108954E0108B8
:10308000994E01089D4E0108A14E0108A54E010868
:10309000292E0108AD4E0108B14E0108952D0108F9
:1030A000B94E0108BD4E0108C14E0108C54E0108C8
:1030B000C94E010839A700087FA70008D54E0108AE
:1030C000D94E0108DD4E0108E14E0108E54E010828
:1030D000E94E0108ED4E0108F14E0108F54E0108D8
:1030E000F52D0108FD4E0108014F0108054F0108AB
:1030F000094F0108F0B587B00400A0208DF8030047
:103100000DF1030201219F2001F086FBB4F90000BC
:1031100001F020FE0700606801F026FE390001F092
:1031200043FEDFF80C1801F0ABFE01F027FF0500AD
:103130006068DFF81418884204D36068DFF80C1860
:10314000884224D36068DFF80818884204D3606896
:10315000DFF8001888421AD36068DFF8FC1788424D
:1031600004D36068DFF8F417884210D36068DFF892
:10317000F017884204D36068DFF83818884206D315
:10318000DFF8B027BA21DFF8B00701F019FF607B44
:10319000002812D0607B50280FD0607B10280CD004
:1031A000607B202809D0607B302806D0DFF88C2790
:1031B000BB21DFF8840701F003FF2069642804D3F2
:1031C0002069DFF87C17884206D3DFF87827BC2116
:1031D000DFF8640701F0F4FEDFF8DC070068404226
:1031E0005FF4802190FBF1F04FF400614843854289
:1031F00008DBDFF8C4070068800C40F2FF71484329
:10320000A84206DADFF85C27BD21DFF82C0701F0C1
:10321000D7FEDFF8A4070068C00BFF214843A16870
:10322000884206D2DFF84027BE21DFF80C0701F004
:10323000C7FE6069DFF880170968B0EB114F08D34B
:10324000DFF8740700680F214843800A61698842EB
:1032500006D2DFF86827BF21DFF8DC0601F0B0FEF8
:10326000632001F0FFFB00208DF800009DF80000B6
:10327000FF2805D09DF80000401C8DF80000F5E700
:1032800001F0AFFEDFF838070078C0B24008C0B2E6
:103290004028E8D1DFF820070068DFF828178842C7
:1032A0002AD2002001F062F9DFF80C070068DFF88D
:1032B0001817B0FBF1F040F24C4148431A21B0FB23
:1032C000F1F0A16981420FD3DFF8EC060068DFF866
:1032D000F816B0FBF1F0DFF8F41648431A21B0FB02
:1032E000F1F0A169884233D2DFF8E426CE21DFF87D
:1032F000480601F065FE2BE0012001F037F9DFF808
:10330000B80600684008DFF8C016B0FBF1F040F2E4
:103310004C4148431A21B0FBF1F0A169814210D31E
:10332000DFF8940600684008DFF89C16B0FBF1F067
:10333000DFF8981648431A21B0FBF1F0A1698842E2
:1033400006D2DFF89026D321DFF8EC0501F038FE35
:10335000622001F087FB00208DF800009DF800003E
:10336000FF2805D09DF80000401C8DF80000F5E70F
:1033700001F037FEDFF848060078C0B24008C0B25E
:103380000328E8D1280001F0E5FC5FF0914101F04D
:103390000BFD0700DFF82006006801F0E5FC0100E6
:1033A000380001F06DFD01F0E9FD0600300080B24B
:1033B000001210F00F008DF80A0030008DF80B009D
:1033C000A0684002DFF8F01509688909B0FBF1F048
:1033D000401C8DF80800606802F00AF80DF1020246
:1033E0000121A32001F0ADFA9DF8020010F0FD00CC
:1033F0008DF802000DF102020121A32001F00CFA68
:10340000606836B2DFF8B015096801FB06F110EB11
:103410009140A168227B02FB0100DFF82C15884255
:1034200010D3606836B2DFF89015096801FB06F129
:1034300010EB9140A168227B02FB0100DFF80C1524
:1034400088426CD3606836B2DFF86C15096801FBFE
:1034500006F110EB9140A168227B02FB0100DFF82E
:10346000F014884210D3606836B2DFF84C15096852
:1034700001FB06F110EB9140A168227B02FB0100E9
:10348000DFF8D01488424AD3606836B2DFF82815D6
:10349000096801FB06F110EB9140A168227B02FB59
:1034A0000100DFF8B414884210D3606836B2DFF848
:1034B0000815096801FB06F110EB9140A168227B19
:1034C00002FB0100DFF89414884228D3606836B20A
:1034D000DFF8E414096801FB06F110EB9140A168E4
:1034E000227B02FB0100DFF87814884210D3606869
:1034F00036B2DFF8C414096801FB06F110EB914005
:10350000A168227B02FB0100DFF8A814884206D3E1
:10351000DFF8C826EF21DFF8200401F051FD05AAED
:103520000DF11501206900F099FB9DF815008DF84B
:103530001800607B9DF8141008438DF819000DF1F8
:1035400006020DF10701606900F006FD9DF8060016
:103550009DF8071051EA00108DF81A0001AA0DF12C
:103560000501A06900F026FC9DF805009DF80410F7
:1035700051EA00108DF81B00DFF83C040068DFF80A
:10358000C416884205D1B6208DF80100B6208DF80A
:103590000900DFF824040068DFF8AC16884205D182
:1035A000AC208DF80100AC208DF80900DFF808048C
:1035B0000068DFF89816884205D1A3208DF8010035
:1035C000A3208DF80900DFF8F0030068DFF8F4139A
:1035D000884205D13B208DF80100B6208DF8090006
:1035E000DFF8D4030068DFF86816884205D136207A
:1035F0008DF80100AC208DF80900DFF8BC030068ED
:10360000DFF85016884205D131208DF80100A32043
:103610008DF809000DF101020121072001F0FCF8ED
:103620000490DFF89C03BDF810100180DFF88803D8
:103630000068DFF8241688420ED3DFF87C030068A8
:103640004008DFF80416884201D3012000E0002082
:10365000C0B200F03DF80CE0DFF85C030068DFF872
:10366000E815884201D3012000E00020C0B200F03C
:103670002FF814F10C0201216C2001F0CDF802AA00
:1036800004210C2001F0C8F806AA04211A2001F038
:10369000C3F80490DFF82803BDF810100180012062
:1036A00000F08EFE80208DF80800E3208DF80900E0
:1036B00002AA0221992001F0AFF80490DFF800037C
:1036C000BDF810100180606800F086F907B0F0BD09
:1036D0001CB5040000208DF80000E4B2002C0AD0D4
:1036E000E4B2012C07D0DFF86C2840F2B111DFF80A
:1036F000480201F065FC00AA0121012001F021F936
:103700000190DFF8BC02BDF804100180E4B2012C86
:1037100006D19DF8000050F040008DF8000005E053
:103720009DF8000010F0BF008DF8000000AA0121F4
:10373000012001F071F80190DFF88402BDF8041057
:10374000018013BDF8B50400DFF8FC01844203D307
:10375000DFF8F80184421FD3DFF8F401844203D379
:10376000DFF8F001844217D3DFF8EC01844203D381
:10377000DFF8E80184420FD3DFF8E401844203D389
:10378000DFF83002844207D3DFF8D0284FF4F3711A
:10379000DFF8A40101F014FCDFF8AC01844206D389
:1037A000DFF8A801844202D2062007001FE0DFF8FC
:1037B000A001844206D3DFF89C01844202D20C208F
:1037C000070014E0DFF89001844206D3DFF88C0193
:1037D000844202D21020070009E0DFF8840184420D
:1037E00005D3DFF8D001844201D220200700DFF8A2
:1037F000D801B4FBF0F0FFB278430600DFF86808A8
:10380000C08B864202D30F20050021E00020050076
:103810006DB20F2D08DA6DB2DFF84C0830F81500E4
:10382000B04201D26D1CF3E76DB2002D10D06DB225
:10383000DFF8340810EB450030F8020C301A6DB296
:10384000DFF8241831F81510891B884200D26D1E4C
:103850006DB2082195FBF1F000FB1150C0B2F2BD32
:1038600000B583B000AA0421082001F06AF8019095
:10387000DFF84C01BDF8041001809DF8000010F045
:103880001F009DF80110490311EB40509DF80210F4
:1038900010EB41109DF8031010EBD1000EBD00B5E8
:1038A00083B000AA01210B2001F04BF8019044489D
:1038B000BDF8041001809DF8000010F007000128F9
:1038C00001D1002010E09DF8000010F0070003284F
:1038D00001D1012008E09DF8000010F00700042845
:1038E00001D1022000E003200EBD00B583B000AA84
:1038F00001216C2001F025F801903148BDF8041039
:1039000001809DF800000EBD00B583B000AA012122
:103910000C2001F016F801902948BDF80410018030
:103920009DF80000244909684843C00B0EBD000003
:103930000024744920450108343D010890420108E3
:1039400031C807009048010880565F2EE12F0C39DE
:1039500080E40117616A141CC060D211E1D7CE1453
:10396000408FE10860460108C44101081CB500AA67
:1039700002210E2000F0E5FF01901148BDF804106F
:1039800001809DF800009DF8011011EB0021080551
:1039900002D551F4704101E00905090D0C0024B273
:1039A0000548006800FB04F05FF4802290FBF2F011
:1039B00016BD000061D06F0A34240020584501086C
:1039C0003C240020006CDC0240420F0064350C00F7
:1039D0003C440108D04201082DE9F04F87B00400B3
:1039E000DFF88C06844203D3DFF8880684421FD3B5
:1039F000DFF88406844203D3DFF88006844217D3BD
:103A0000DFF87C06844203D3DFF8780684420FD3C4
:103A1000DFF87406844203D3DFF87006844207D3CC
:103A2000DFF86C2640F23931DFF8400601F0C8FAC1
:103A3000DFF83C06844206D3DFF83806844202D21F
:103A4000002081461FE0DFF83006844206D3DFF80D
:103A50002C06844202D20120814614E0DFF82006C1
:103A6000844206D3DFF81C06844202D2022081463B
:103A700009E0DFF81406844205D3DFF8100684421B
:103A800001D203208146FFF771FF8046FFF73CFF1C
:103A90000500FFF72AFF060018EB0400F6B206FB4C
:103AA0000500824600F047FD471C5FFA89F9B9F12D
:103AB000000F2AD0B9F1020F0FD01AD3B9F1030FBA
:103AC0002ED1DFF8D005824503D2002001F049FD58
:103AD00002E0012001F045FD22E0DFF8BC0582454F
:103AE00003D2002001F03DFD02E0012001F039FD8C
:103AF00016E0DFF8A805824503D2002001F031FD71
:103B000002E0012001F02DFD0AE0DFF860078245A8
:103B100003D2002001F025FD02E0012001F021FD8B
:103B20005046FFF70FFE8DF810005FFA89F99F48A5
:103B300019F8000000FB04F001F056FDCDE9020188
:103B4000FFB25FF4802000FB07F001F043FDCDE9F8
:103B500000019748006801F047FD02000B00DDE915
:103B6000000101F04FFDDDE9022301F06FFE01F0DD
:103B700055FF83465FEA5B5010F01F009DF8101060
:103B8000490108438DF814005FEA5B308DF8150099
:103B90005FEA5B108DF816005FFA89F9DFF8C4045C
:103BA00019F8000050EACB008DF8170005AA04218F
:103BB000082000F031FE0090DFF8A404BDF80010EA
:103BC0000180DFF8B4060078012802D101F00EFB75
:103BD00000E0002007B0BDE8F08F0000C82F01080A
:103BE0002DE9F047FFF73CFE8246FFF758FE07003D
:103BF00000F0A1FC461C504601F0F6FC80468946C8
:103C00006B48006801F0F0FC04000D00F6B2FFB252
:103C10006648385C00FB06F05FF48021484301F001
:103C2000D9FC02000B002000290001F0EBFC424609
:103C30004B4601F00BFE01F007FF01F0EFFEBDE87F
:103C4000F087000000366E0140787D0180BA8C015B
:103C500080F0FA020075190381BA8C012DE9FE4348
:103C600005000E00170000208DF808000F245FF0FB
:103C70000009642D03D3DFF8F805854207D3DFF888
:103C8000F42540F2E931DFF8E40301F099F900F09E
:103C90009BFC81469DF80800002812D164B2002CDC
:103CA0000FD4DFF850060068D4F1140119EB0101BC
:103CB000C840854203D301208DF80800EAE7641E5E
:103CC000E8E764B2002C03D50020040040B201E014
:103CD00064B220003C700120D4F11701884000FB41
:103CE00005F0DFF81016096819F10502D140B0FBA4
:103CF000F1F080460020C0B2032825DA5FFA88F888
:103D0000C0B210EB0801491E002915D05FFA88F8EF
:103D1000C0B210EB0801FF31DFF8D825126819F1A5
:103D20000503DA405143D4F11702D140691AC0B2F9
:103D300000AA22F8101005E0C0B200A947F6FF72F1
:103D400021F81020401CD6E74FF6FF700021C9B2C1
:103D5000032928DAC9B200AA32F91120012A04DBAA
:103D6000C9B200AA32F9112004E0C9B200AA32F99E
:103D70001120524280B2824213DAC9B200AA32F94B
:103D80001120012A04DBC9B200A830F8110004E0B8
:103D9000C9B200A830F91100404211EB0802521ECE
:103DA0003270491CD3E7BDE8F7830000084E0108D4
:103DB000342400202DE9F04383B005000E001700E5
:103DC0005FF0010900F000FC002802D002208146CB
:103DD00001E001208146DFF81C0500685FFA89F9DF
:103DE000B0FBF9F0DFF89414B0FBF1F040F24C4175
:103DF00048431A21B0FBF1F0854212D3DFF8F404F6
:103E000000685FFA89F9B0FBF9F0DFF87014B0FBD5
:103E1000F1F0DFF8E41448431A21B0FBF1F0A842B6
:103E200007D2DFF8D82440F23341DFF8400201F036
:103E3000C7F8DFF8C00400685FFA89F9B0FBF9F051
:103E40006421B0FBF1F000210C0064B25A2C0CDAB2
:103E500064B23F4931F81410414340F62822B1FBC7
:103E6000F2F18D4201D2641CEFE764B2002C60D005
:103E7000A0460021C9B203292CDA4FFA88F8C9B24A
:103E800011EB0802521E002A07D54FFA88F8C9B272
:103E900011EB0802521E5A2A14DA4FFA88F8C9B2F6
:103EA00011EB08022A4B13EB420232F8022C424378
:103EB00040F62823B2FBF3F2AA1AC9B200AB23F8EA
:103EC000112005E0C9B200AA47F6FF7322F81130AD
:103ED000491CCFE74FF6FF710022D2B2032A28DA3D
:103EE000D2B200AB33F91230012B04DBD2B200ABFB
:103EF00033F9123004E0D2B200AB33F912305B4236
:103F000089B28B4213DAD2B200AB33F91230012BF3
:103F100004DBD2B200A931F8121004E0D2B200A939
:103F200031F91210494212EB08035B1E1C00521CAF
:103F3000D3E764B2092194FBF1F1397064B209212D
:103F400094FBF1F201FB12413170BDE8F7830000F0
:103F5000803001081C4D01082DE9F04F83B00400AA
:103F60008B4692460025DFF88C03006800F0FCFECB
:103F70005FF0914100F084FF0600DFF878030068ED
:103F8000B4EB104F07D3DFF86C0300680F214843F0
:103F9000800AA04207D2DFF868234FF48D61DFF872
:103FA000CC0001F00DF800200700FFB20A2F17DA4D
:103FB0000120B84001F00EFB0022DFF8483301F089
:103FC00045FC01F02BFD00F0CFFE310000F0ECFECF
:103FD00001F05CFD01900198844201D37F1CE4E76D
:103FE0008AF8007000200700FFB2082F28DA009539
:103FF000FFB2380001F0F8FA0022DFF8C03301F018
:1040000057FD00225FF0804301F0FCFA80468946AC
:1040100001209AF90010884001F0DCFA42464B4634
:1040200001F014FC01F0FAFC00F09EFE310000F0FB
:10403000BBFE01F02BFD0500AC4201D37F1CD3E792
:104040008BF800700098201A291B884204D29BF834
:104050000000401E8BF80000BDE8F78F404C0108BF
:104060003C2400200C4E0108004B0108343D01089F
:1040700080565F2EE12F0C3980E40117616A141C11
:10408000C060D211E1D7CE14408FE10861D06F0A31
:10409000904B0108E2F49C09C4E93913068DA2197A
:1040A0002DE9FC4D040088460026DFF88003844299
:1040B0000CD3DFF87C03844208D200200500DFF82F
:1040C0007403844222D2012005001FE0DFF8680358
:1040D000844206D3DFF86403844202D20220050042
:1040E00014E0DFF86003844206D3DFF85C03844207
:1040F00002D20320050009E0DFF85003844205D313
:10410000DFF84C03844201D20420050001200600A0
:104110004046002101F040FD38D2404601F04EFDFE
:1041200002000B00CDE90023EDB21820DFF82413C4
:1041300000FB0510806801F041FD02000B0000202B
:10414000DFF8141301F05EFA82468B46EDB21820B8
:10415000DFF8001300FB0510C068EDB21821DFF88E
:10416000F42201FB0521896800F08AFE01F026FD9A
:1041700002000B005046594601F048FDDDE90023DE
:1041800001F004FE02D2002006003CE0404600217F
:1041900001F014FE37D8EDB21820DFF8B81200FB9A
:1041A0000510806801F00AFD02000B000020DFF816
:1041B000AC1201F027FA82468B46EDB21820DFF8E8
:1041C000941200FB0510C068EDB21821DFF88422BC
:1041D00001FB0521896800F053FE01F0EFFC0200AD
:1041E0000B005046594601F011FD02000B009246AB
:1041F0009B46404601F0E2FC52465B4601F0C6FD9C
:1042000001D202200600F6B2EDB21820DFF8441207
:1042100000FB051050F83600414600F0C5FDF6B22F
:104220007100EDB21822DFF82C3202FB053212EBDE
:104230008101496801F0D4FD070038005FF07E512C
:1042400001F0BCFD03D25FF07E50070008E03800AB
:10425000DFF80C1201F0A0FC02D8DFF8080207001A
:10426000380000F08BFEC0B2BDE8F68D0B1A453366
:1042700031C80700584C01089A07002040420F003F
:104280007CB504000D00E4B2082C07DBDFF8E42164
:1042900040F24D61DFF8900100F092FE2800DFF857
:1042A000CC1101F079FC05D82800DFF8C41101F029
:1042B00085FD07D3DFF8C02140F24E61DFF86801C9
:1042C00000F07EFEFFF78CFC2900FFF7E9FE8DF879
:1042D0000000D4F11700060000AA01213000C0B28E
:1042E00000F09AFA0190DFF85801BDF8041001803F
:1042F00073BD00003424002064350C0028470108F9
:104300004C4A010800001E401CB50400E4B2002C19
:1043100010D0E4B2402C0DD0E4B2802C0AD0E4B22C
:10432000C02C07D0DFF8402140F2FE61DFF8F80032
:1043300000F046FE00AA0121182000F002FB9DF8C3
:10434000000010F03F008DF800009DF800002043B1
:104350008DF8000000AA0121182000F05DFA0190FC
:10436000DFF8DC00BDF80410018013BD1CB50400AB
:10437000E4B2082C06DBDFF8FC2040F22E712A485C
:1043800000F01EFE00AA0121182000F0DAFA9DF8C4
:10439000000010F0F8008DF800009DF800002043A8
:1043A0008DF8000000AA0121182000F035FA0190D4
:1043B000DFF88C00BDF80410018013BD0000204020
:1043C0001CB5040000208DF80000E4B2002C08D0D9
:1043D000E4B2012C05D0134A40F2D671124800F025
:1043E000EFFD00AA01211E2000F0ABFAE4B2012C7F
:1043F00006D19DF8000050F080008DF8000005E027
:104400009DF8000010F07F008DF8000000AA012147
:104410001E2000F001FA01900948BDF80410018047
:1044200013BD0000D4490108343D010880565F2EB9
:10443000E12F0C3900E9A43580E40117616A141CEE
:104440003C240020C060D211E1D7CE14408FE10897
:1044500061D06F0A2C3F010800002A400000444050
:104460000100B4420000B442704C01080000F8C1E1
:1044700001004041884C0108AC4B01081CB5040008
:10448000E4B2002C08D0E4B2012C05D05F4A40F61B
:104490006631354800F094FD00AA0121272000F084
:1044A00050FAE4B2012C06D19DF8000050F0100043
:1044B0008DF8000005E09DF8000010F0EF008DF889
:1044C000000000AA0121272000F0A6F901904D4824
:1044D000BDF80410018013BD00001CB50400E4B257
:1044E000002C08D0E4B2012C05D0484A40F6A33194
:1044F0001D4800F065FD00AA01219E2000F021FA70
:10450000E4B2012C06D19DF8000050F080008DF837
:10451000000005E09DF8000010F07F008DF800001D
:1045200000AA01219E2000F077F901903548BDF8DE
:104530000410018013BD00B583B000AA01219E20A4
:1045400000F0FFF901902F48BDF8041001809DF89C
:104550000000C0B2C009C0B2002801D0012000E0B4
:1045600000200EBD00000000343D01081CB5040011
:10457000E4B2002C08D0E4B2012C05D0234A40F666
:10458000D731234800F01CFD00AA0121B42000F01F
:10459000D8F9E4B2012C06D19DF8000010F0F70024
:1045A0008DF8000005E09DF8000050F008008DF83F
:1045B000000000AA0121B42000F02EF9019011485A
:1045C000BDF80410018013BD00B583B000AA01211D
:1045D000B42000F0B6F901900A48BDF8041001803B
:1045E0009DF80000C0F3C000C0B2002801D0002038
:1045F00000E001200EBD04480068704702490860D1
:10460000704700003C24002034240020D4490108D5
:10461000343D010800B587B001F09DFCC0B2DFF861
:10462000141751F82000DFF81017086001F093FC10
:10463000DFF8081711EB4000DFF80417086001F0FD
:104640008AFCDFF8001711EB8000DFF8FC16086029
:1046500001F081FC002853D101214FF4805001F07A
:10466000E2FD0121102001F0B0FD05220F21DFF84D
:10467000DC0602F09BF805220E21DFF8D00602F0DE
:1046800095F805220D21DFF8C40602F08FF802200C
:104690008DF8040000208DF8060002208DF8070038
:1046A00003208DF805004FF40050009000A9DFF8BA
:1046B0009C0601F0E5FE4FF48040009000A9DFF871
:1046C0008C0601F0DDFE4FF40040009000A9DFF8F9
:1046D0007C0601F0D5FE4FF48050009001208DF84B
:1046E000040000208DF8060001208DF8070003204B
:1046F0008DF8050000A9DFF8540601F0C1FE52E074
:104700000121022001F061FD05220E21DFF84006A3
:1047100002F04CF805220F21DFF8340602F046F8CB
:1047200005220D21DFF8280602F040F802208DF85E
:10473000040000208DF8060002208DF807000320F9
:104740008DF805004FF40050009000A9DFF8000636
:1047500001F096FE4FF40040009000A9DFF8F0054C
:1047600001F08EFE4FF48040009000A9DFF8E005D4
:1047700001F086FE4FF48050009001208DF8040077
:1047800000208DF8060001208DF8070003208DF829
:10479000050000A9DFF8B80501F072FE01214FF411
:1047A000804001F06EFDDFF89005006802F0D2F85D
:1047B0004FF48270ADF80A000020ADF80800002028
:1047C000ADF80C000020ADF80E000020ADF8100090
:1047D0004FF40070ADF812000820ADF8140000206E
:1047E000ADF816000720ADF8180002A9DFF848055B
:1047F000006802F0DCF80121DFF83C05006802F0F7
:104800007DF9DFF8440500680068DFF834150968B1
:104810000988018307B000BD2DE9F04184B0040090
:104820000D0016000020ADF802000DF10207002077
:104830008DF804008DF8054072B6DFF80C050068AD
:104840000068DFF8FC140968098841830020ADF88E
:104850000000BDF80000002805D1BDF80000401C94
:10486000ADF80000F5E75FF00008B8F1020F2BDAB1
:104870000221DFF8C404006802F08EF90028F7D0A6
:1048800001A818F8001089B2DFF8AC04006802F043
:1048900070F90121DFF8A004006802F07DF900281A
:1048A000F7D0DFF89404006802F051F9BDF8021067
:1048B00080B2D8F10102D2B2D20090404018ADF8D7
:1048C000020018F10108D0E75FF00008EDB2A8453A
:1048D0001FDA0221DFF86004006802F05DF90028A9
:1048E000F7D018F8061089B2DFF84C04006802F01F
:1048F00040F90121DFF84004006802F04DF900287A
:10490000F7D0DFF83404006802F021F918F101084B
:10491000DCE70221DFF82004006802F03DF90028FE
:10492000F7D0DFF8240400680068DFF81414096881
:104930000988018362B638880290029804B0BDE805
:10494000F0812DE9FE4304000D0016000020ADF8B3
:1049500002000DF102074FF0FF0801208DF804005E
:104960008DF8054072B6DFF8E00300680068DFF8F4
:10497000D0130968098841830020ADF80000BDF814
:104980000000002805D1BDF80000401CADF8000073
:10499000F5E75FF00009B9F1020F2BDA0221DFF829
:1049A0009803006802F0F8F80028F7D001A819F879
:1049B000001089B2DFF88003006802F0DAF8012104
:1049C000DFF87403006802F0E7F80028F7D0DFF89A
:1049D0006803006802F0BBF8BDF8021080B2D9F19C
:1049E0000102D2B2D20090404018ADF8020019F195
:1049F0000109D0E75FF00009EDB2A9451EDA0221F6
:104A0000CD48006802F0C8F80028F8D05FFA88F8AE
:104A1000414689B2C848006802F0ABF80121C64897
:104A2000006802F0B9F80028F8D0C348006802F026
:104A30008EF83070761C19F10109DDE70221BE48BD
:104A4000006802F0A9F80028F8D0BF4800680068A4
:104A5000BB4909680988018362B6388802900298C8
:104A6000BDE8FE8370B584B004000020ADF80200FC
:104A70000DF1020580208DF804008DF8054072B616
:104A8000B14800680068AE49096809884183002080
:104A9000ADF80000BDF80000002805D1BDF8000009
:104AA000401CADF80000F5E70026022E25DA0221B1
:104AB000A148006802F070F80028F8D001A8315C25
:104AC00089B29D48006802F054F801219A480068B4
:104AD00002F062F80028F8D09748006802F037F832
:104AE000BDF8021080B2D6F10102D2B2D2009040DD
:104AF0004018ADF80200761CD7E702218E48006806
:104B000002F04AF80028F8D08F48006800688C4905
:104B100009680988018362B628880290029804B067
:104B200070BDFEB504000D000020ADF802000DF1CF
:104B3000020600208DF80400FF208DF8050072B6F3
:104B40008148006800687E4909680988418300201F
:104B5000ADF80000BDF80000002805D1BDF8000048
:104B6000401CADF80000F5E70027022F25DA0221EE
:104B70007148006802F010F80028F8D001A8395CEC
:104B800089B26D48006801F0F4FF01216A480068AD
:104B900002F002F80028F8D06748006801F0D7FF5B
:104BA000BDF8021080B2D7F10102D2B2D20090401B
:104BB0004018ADF802007F1CD7E70027E4B2A742F7
:104BC00019DA02215C48006801F0E6FF0028F8D0FD
:104BD000795D89B25848006801F0CBFF0121564841
:104BE000006801F0D9FF0028F8D05348006801F0B0
:104BF000AEFF7F1CE2E702214F48006801F0CCFFC6
:104C00000028F8D05048006800684D4909680988B4
:104C1000018362B6308802900298FEBD2DE9F04112
:104C200084B004000D000020ADF802000DF1020672
:104C3000FF2701208DF80400FF208DF8050072B6D3
:104C40004148006800683E4909680988418300209E
:104C5000ADF80000BDF80000002805D1BDF8000047
:104C6000401CADF80000F5E75FF00008B8F1020F56
:104C700027DA02213048006801F08EFF0028F8D0C2
:104C800001A818F8001089B22B48006801F071FFE4
:104C900001212948006801F07FFF0028F8D026484C
:104CA000006801F054FFBDF8021080B2D8F1010293
:104CB000D2B2D20090404018ADF8020018F10108BD
:104CC000D4E75FF00008E4B2A0451DDA02211A48DB
:104CD000006801F061FF0028F8D0FFB2390089B206
:104CE0001548006801F045FF01211348006801F0F4
:104CF00053FF0028F8D01048006801F028FF287002
:104D00006D1C18F10108DEE702210B48006801F074
:104D100043FF0028F8D00C4800680068084909687B
:104D20000988018362B630880290029804B0BDE819
:104D3000F08100001807002008240020DC4D010845
:104D400010240020240700200C2400200010024022
:104D500000040240002840F10980F446404200F07F
:104D600005F850F000406047002800BF0AD0B0FAB4
:104D700080F18840D1F19D01C905020672F100421F
:104D800041EB1020704750F8041B61B150F8042B20
:104D9000D30744BFA9F101039A18002342F8043B4A
:104DA000091FFAD1EFE77047FF2212EAD05C1DBF5E
:104DB00012EAD153944593422BE09C44D30780EAF6
:104DC00001021A4043EA002043EA0121A1FB00301E
:104DD000410038BF40007CF17F010BDBFE294ADA3D
:104DE0005B0842EAC15153EA006373F1004C51EB96
:104DF00010207047D1F1080CDCF120012FDB5B089B
:104E000010FA01F10B4373F1004120FA0CF050410C
:104E1000704794451CBF02EAD153934280EA0102D5
:104E200002F000421DD0400019D0490017D05BB9F4
:104E3000634514D00902B1FA81F39940BCEB030C2D
:104E4000C00140F00040C1E70002B0FA80FC10FA57
:104E50000CF0B3EB0C0CC90141F00041B6E71000B7
:104E6000704740000AD0490008D010F1807F94BFFD
:104E700011F1807F02E042F0FF407047D04370475D
:104E800010B5FF2313EAD0541DBF13EAD1529C4240
:104E90009A4239E0A41ADA0780EA0103134042EA91
:104EA000012142EA0020421A3CBF641E01EB42028B
:104EB000090AB2FBF1FE01FB1E221202B2FBF1F065
:104EC00001FB10226EF30F201202B2FBF1FE4EEA3C
:104ED00000207F3406DDFE2C24DA53EA500050EB2C
:104EE000C45010BDD4F1020401FB1E2240F08071B9
:104EF000192C1DDC21FA04F0C4F12004A140114357
:104F000071F10042584110BD9C421ABF03EAD152D0
:104F10009A420FE080EA010E0EF00043400004D0F8
:104F2000490016D143F0FF4010BD490008BFD343EC
:104F3000180010BD9C4205D1D21AF7D001F00041F3
:104F4000484010BD4A0212BF0846484000F00040E9
:104F500010BD4AB90902B1FA81F2914044B1A418D6
:104F6000C00140F000409EE7C90141F000415242BB
:104F70000002B0FA80F4A040141B94E74100090E2F
:104F80007F3915D4D1F11F0114D4400007D2C001DC
:104F900040F00040C84048BF6FF000407047C0017B
:104FA00040F00040C8404CBF4FF0004040427047C6
:104FB0000020704700424FF0004058BFC043704788
:104FC00070B504000D0016000A4801F01DFE2A000D
:104FD0002100094801F018FE3100084801F014FED4
:104FE000FEE780B500AA0121C020FFF7AAFC044912
:104FF000086001BD94460108844D0108704A01080B
:105000003C2400202DE9F04F87B00400DFF8EC03CA
:10501000844203D3DFF8E80384421ED3DFF8E403BD
:10502000844203D3DFF8E003844216D3DFF8DC03C5
:10503000844203D3DFF8D80384420ED3DFF8D403CD
:10504000844203D3DFF8D003844206D3DFF8CC23B5
:105050005021DFF8CC03FFF7B3FFDFF8A003844251
:1050600006D3DFF89C03844202D2002081461FE071
:10507000DFF89003844206D3DFF88C03844202D227
:105080000120814614E0DFF88403844206D3DFF870
:105090008003844202D20220814609E0DFF87403D3
:1050A000844205D3DFF87003844201D20320814695
:1050B000FEF75CFC8046FEF727FC0500FEF715FCBA
:1050C000060018EB0400F6B206FB05008346FFF766
:1050D00032FA471C5FFA89F9B9F1000F27D0B9F10C
:1050E000020F0ED018D3B9F1030F2AD1CD48834552
:1050F00003D2002000F035FA02E0012000F031FA7E
:105100001FE0C948834503D2002000F02AFA02E0DC
:10511000012000F026FA14E0C448834503D20020A1
:1051200000F01FFA02E0012000F01BFA09E0C0487D
:10513000834503D2002000F014FA02E0012000F0C1
:1051400010FA5846FEF7FEFA8DF81000FFF753FAF2
:105150008246200000F048FACDE90201FFB25FFA72
:1051600089F9B44819F8000000FB07F05FF48021CA
:10517000484300F02FFACDE90001504600F034FA20
:1051800002000B00DDE9000100F03CFADDE902233A
:1051900000F05CFB00F042FC06900698400D10F019
:1051A0001F009DF81010490108438DF8140006985F
:1051B000400B8DF81500069840098DF816000698EA
:1051C0005FFA89F99C4919F8011051EAC0008DF87D
:1051D000170005AA04210820FFF71EFB009097483E
:1051E000BDF80010018007B0BDE8F08F2DE9F8434D
:1051F00000275FF00008FFF7FEF9814690488145DF
:105200000ED3FFF798F900280AD101200700FEF716
:10521000E7FC06000120FFF760F93000FFF7F2FE1F
:10522000FEF7DEFC060019208DF8000000AA01211F
:10523000A120FFF7F1FA012000F00CF9FFF7D1FEF1
:105240007E480078C0B24008C0B2402816D1012084
:105250008046622001F0EAFCFFF7C3FE7748007841
:10526000C0B24008C0B2132801D101207CE07348CD
:105270000078C0B24008C0B20328EDD1662001F02A
:10528000D5FCFFF7AEFE6D480078C0B24008C0B252
:10529000132801D1012067E068480078C0B24008B7
:1052A000C0B20F28EDD100F007F90500622001F02F
:1052B000BDFCFFF796FE61480078C0B24008C0B25E
:1052C0000328F6D1652001F0B1FCFFF78AFE5B48A8
:1052D0000078C0B24008C0B2132801D1012043E0D9
:1052E00056480078C0B24008C0B20F28EDD100F097
:1052F000E3F80400622001F099FCFFF772FE4F48CA
:105300000078C0B24008C0B2132801D101202BE0C0
:105310004A480078C0B24008C0B20328EDD15FFA15
:1053200088F8B8F1010F02D1632001F07FFC002062
:1053300000F090F8FFB2002F05D00020FFF7CDF865
:105340003000FFF75FFE11208DF8000000AA012158
:10535000A120FFF761FA2800C0B200F0BEF82000DB
:10536000C0B200F0DCF80020BDE8F28310B582B0D6
:1053700034480078002826D0FFF73DF90400324871
:1053800000683249884208D32F4800683049884273
:1053900003D2C020FEF7B8FF02E00020FEF7B4FF02
:1053A00011208DF8000000AA0121A920FFF734FA8E
:1053B00020208DF8000000AA0121A520FFF72CFA7B
:1053C00020480021017013BD80B51E4800780128D7
:1053D0000DD098208DF8000000AA0121A520FFF72C
:1053E0001BFA0020FEF790FF16480121017001BD55
:1053F000144902220A7014490860704780565F2ED3
:10540000E12F0C3980E40117616A141CC060D211CD
:10541000E1D7CE14408FE10861D06F0A584B0108E4
:10542000283A0108E2F49C09C4E93913068DA2194F
:105430000B1A4533044E0108004E01083C2400209D
:1054400081BA8C01990700203024002080D1F00817
:1054500081A1031C1CB50400E4B2002C07D0E4B207
:10546000012C04D0574A8F215748FFF7A9FD00AA05
:1054700001215020FFF765FA01905448BDF804104F
:105480000180E4B2012C06D19DF8000050F002002A
:105490008DF8000005E09DF8000010F0FD008DF88B
:1054A000000000AA01215020FFF7B6F901904748FB
:1054B000BDF80410018013BD00B583B000AA01211E
:1054C000E520FFF73EFA01904048BDF80410018046
:1054D0009DF8000010F07F000EBD1CB5040000AA6E
:1054E00001216E20FFF72DFA01903848BDF8041015
:1054F00001809DF8000010F080008DF800009DF8FC
:10550000000020438DF8000000AA01216E20FFF763
:1055100083F901902D48BDF80410018013BD1CB51E
:10552000040000AA01216F20FFF70BFA0190274821
:10553000BDF8041001809DF8000010F080008DF887
:1055400000009DF8000020438DF8000000AA012112
:105550006F20FFF761F901901C48BDF8041001802D
:1055600013BD10B582B00400E4B2002C08D0E4B240
:10557000012C05D0164A4FF4CF711348FFF720FDD8
:1055800000AA01219E20FFF7DCF99DF8000010F031
:10559000F9008DF80000E4B2012C06D19DF800005E
:1055A00050F002008DF8000005E09DF8000050F07A
:1055B00004008DF8000000AA01219E20FFF72CF9BD
:1055C00013BD00000C490108183801083C240020D4
:1055D000F44C0108010040F10980F446404200F01B
:1055E00005F851F000416047010000BF09D0B0FA52
:1055F00080F18840C91CC1F58461090501EBD02107
:1056000040057047F0B540F2FF7581EA030C0CF0DD
:10561000004C15EA11541DBF15EA1357AC42AF42B6
:10562000E5E0BC41C1F31301C3F31303801A9941B0
:1056300043F4801304D2641E40004941801859414C
:10564000C90241EA5051B1FBF3F603FB1611A2FB6C
:105650000675D7EBC020A94102D2761E80185941A9
:10566000C90241EA5051B1FBF3FE03FB1E11A2FB3C
:105670000E75D7EBC020A94103D2AEF1010E801800
:105680005941890241EA9051760546EA8E2EB1FBD6
:10569000F3F603FB1611A2FB0675D7EB8020A94198
:1056A00002D2761E80185941C90241EA50514EEA91
:1056B000060EB1FBF3F603FB1611A2FB0675D7EB42
:1056C000C020A94102D2761E80185941C90241EA80
:1056D0005051B1FBF3F703FB1711A2FB0735D3EBD6
:1056E000C020A94167F100070CBF004247F0010745
:1056F00066F3D5274FEA1E31B80814F5806412DD31
:10570000BD0775F1004250EB0E5051EB045111F5FD
:10571000801F5CBF41EA0C01F0BD4CF07F6141F09D
:10572000E0410020F0BDBD076D0840EA0E5041F495
:105730008011D4F10104B4F120060ADAC4F1200684
:105740000200E04001FA06F3E1401843B24015437D
:105750000EE0342C13DCC6F1200445EA40056D0848
:1057600020FA06F2154321FA06F0A1400D4300216C
:1057700075F1004250F1000051EB0C01F0BD00202A
:105780005FEA0C01F0BDCFB992185B41B3FA83F721
:1057900004BFB2FA82F6BF190B3FB7F120062FBF44
:1057A00002FA06F3BB40C7F1200622FA06F638BF1C
:1057B0003343BA401CB1E419641E33E77F4231F031
:1057C0000041B1FA81F404BFB0FA80F6A4190B3C91
:1057D000B4F120062FBF00FA06F1A140C4F1200663
:1057E00020FA06F638BF3143A0403C1B1AE7AC4212
:1057F0001ABF05EA1357AF4212E050EA41061CBF38
:1058000052EA4306BFE750EA4107304661461CBFF3
:1058100041EA0551F0BD52EA430C08BFC143F0BD57
:1058200000204FF4001616EB410F98BF16EB430F04
:1058300008BF16EB410F24BFC14305E016EB430F31
:105840000CBF61464CEA0551F0BD05FFB0B581EAD9
:10585000030C0CF0004C40F2FF7515EA11541DBF0B
:1058600015EA1357AC42AF4239E0E41923EA455335
:1058700043F48013C90241F0004141EA505EC7027F
:105880001100A7FB020200284FF00000EEFB0120F0
:105890004FF00001E3FB072118BF42F0010240185E
:1058A00000214941E3FB0E01A4F580640F0302D2FD
:1058B00052004041494154F101046CDD470872F146
:1058C000004250F1000051EB0451A1F580115CBF82
:1058D00041EA0C01B0BD4CEA05510020B0BD05EA1B
:1058E0001357AC4214BFAF4241E050EA410E1CBF17
:1058F00052EA430E02E061460020B0BD24423C441F
:105900001BD15FEA070EF6D0090302BF0146002053
:10591000AEF1140EB1FA81F7AEEB070401FA07FEFF
:105920000C37C7F1200100FA07F7C8404EEA000E15
:1059300023EA455343F48013A2E733F00043B3FA5C
:1059400083F704BFB2FA82FE77440B3FE41BB7F142
:10595000200E2FBF02FA0EF3BB40C7F1200E22FA31
:105960000EFE38BF43EA0E03BA40641C82E750EAD9
:10597000410E14BF52EA430E6FF000014FF40017BE
:1059800017EB430F8ABF194617EB410FB5E74CEAF7
:1059900005510020B0BDD4F10104B4F120070FDAA5
:1059A000C4F12007520828BF42F0010210FA07F59F
:1059B00001FA07F7E1BF2A43E0403843E1400FE036
:1059C000352C98DCC7F1200452EA400220FA07F295
:1059D00018BF42F0010231FA07F0A1400A4300214A
:1059E00072F1004250F1000051EB0C01B0BD01809A
:1059F000F446400D40EAC120490006D200F014F8F8
:105A0000004248BF6FF00040604700F00DF84FF0D3
:105A1000004188428CBF084640426047400D40EA42
:105A2000C120490080F00D8040F00040490DA1F5F3
:105A30008061491C05D4D1F11F0154BFC840C01773
:105A400070474FF00000704783B5012100A801F0B6
:105A500039F9401E012811D9002100A801F032F9BE
:105A600060B10198DDE90023002847BF0020054907
:105A70000020054900F01CF8CDE90001DDE9000136
:105A800003B000BD0000F0BF0000F03F40000DD2A9
:105A9000010E7F390AD4D1F11F0104D4C00140F0B6
:105AA0000040C84070477FF00000704700207047FA
:105AB00070B44FF0004591EA030C44BF6B4000F016
:105AC000AFB800BF841A71EB030603D2001BB141CB
:105AD000121973414FF4001C1CEB410F34BF7CEBD7
:105AE000430443E00C0DA4EB1356352E50DC45EA7D
:105AF000C323DB0A45EAC121C912B6F120050DDD39
:105B000063FA05F6EB4086EA0305124218BF45F03A
:105B10000105C01851F100010CD213E062FA06F53C
:105B2000F2405540F3415A40B340F3405A40801888
:105B3000594107D349085FEA30005FEA350528BFBD
:105B400045F0010501F58011420875F1004250F160
:105B5000000041EB045170BC4FF4001C1CEB410FE2
:105B600038BF70470020090D090570471CEB410F35
:105B700010D252EA43060BD0BCEB410F05D80C0DF6
:105B8000AB43661E342EB5DD02E0AB4380185941AD
:105B900070BC704770BC70474FF0807C1CEB400FAE
:105BA00094BF1CEB410F05E040EA010C5FEA4C0C8E
:105BB00001D28142704718BF884270475FF0FF0CE6
:105BC0001CEAD05114BF614506E0C110400721F026
:105BD000E04101F16051704779B900F000410002E5
:105BE0000AD0B0FA80FC00FA0CF001F16051A1EB90
:105BF0000C5101EBD0214005704741020CBF40F42D
:105C0000E0016FF0000100207047018070B44FF098
:105C1000004591EA030F44BF6B40FFF753BF00BF3D
:105C2000841A71EB030604D26E40001BB1411219B5
:105C300073414FF4001C1CEB410F34BF7CEB430657
:105C400084E00C0DA4EB1356362E7DDC012E43DCD4
:105C500045EAC32343EA525312BFD20292025B08C1
:105C6000240545EAC12141EA5051D2EBC0209941B7
:105C700025D407D1B0FA80F610FA06F164D00020DE
:105C8000203608E0B1FA81F6B140C6F1200220FAD0
:105C900002F21143B0404FEAF474B4EB465434F0CE
:105CA00001064FEA74040AD8D6F50016760D04F002
:105CB0000044F04061FA06F25040F1404840C00A0A
:105CC00040EA415021F0004128BF5FEA500550F101
:105CD000000044EBD12137E045EAC323DB0A45EA63
:105CE000C121C90AB6F120050EDD42EA0242120CBA
:105CF000C5F1200603FA06F6EB4042EA06056D42BE
:105D0000984161F100010DE062FA06F5F24055405C
:105D100063FA06FC82EA0C02F3405A406D4290415D
:105D200061EB030111F4801F05D1641E620502D0EE
:105D30006D004041494121F48011430875F1004351
:105D400050F1000041EB045170BC70471CEB410F57
:105D500015D223F0004352EA43060BD04FEA4C0C15
:105D6000BCEB410F04D80C0D661E342EB7DDEBE7FB
:105D7000801A994150EA410608BF0021E4E708BFB4
:105D80001CEB430F28BF6FF00001DDE74FF4001C50
:105D90001CEB410F94BF1CEB430F09E041EA030CDD
:105DA00050EA4C0C52EA0C0C03D2994208BF9042C4
:105DB000704714BF8B42824270475A584FF0807C24
:105DC0001CEB400F94BF1CEB410F05E040EA010CB7
:105DD0005FEA4C0C01D28842704718BF814270477D
:105DE00090EA010F44BF81F0004100F0B3BF00BF53
:105DF000421A3CBF801A89184FF0004CC0F3C752BA
:105E0000FF2A24D0C1F3C75313B3D21AD2F1190316
:105E100027DD4CEA01214CFA03F321EA0303D140C8
:105E2000C20D4CEA0020401834BF20EA0C004CEAB6
:105E30005000D20553EA006373EB0C0C52EB1020B8
:105E4000420012F1807F38BF7047C00DC005704717
:105E5000490212BF9A4200EB5120F8E7D2F1170332
:105E6000D9D57047E0B50121102000F0AEF901202E
:105E70008DF8080000208DF80B0003208DF8090034
:105E800000208DF80A000220019001A9334800F09B
:105E9000F7FA3348008850F00200314908800020AA
:105EA0008DF800009DF80000002805D19DF8000045
:105EB000401C8DF80000F5E72A480088800703D5CC
:105EC00029480021017035E00121082000F07DF90A
:105ED0000420019001A9254800F0D2FA2448008846
:105EE00050F004002249088000208DF800009DF841
:105EF0000000002805D19DF80000401C8DF800002E
:105F0000F5E71C480088400703D5174801210170B8
:105F100002E015480221017000208DF8080001A957
:105F2000124800F0ADFA124800884FF6FB710840A5
:105F30000F4908800220019000208DF8080001A977
:105F4000064800F09DFA064800884FF6FD710840AB
:105F50000349088007BD04480078704700100240DC
:105F6000141002401010024098070020000C02405C
:105F7000140C0240100C024010B50400E4B2002CD6
:105F800008D0E4B2012C05D04FF4D271DFF89804A8
:105F900001F0D7F8DFF89804E4B2046010BD10B542
:105FA0000400E4B2002C0BD0E4B2012C08D0E4B21F
:105FB000052C05D040F2BD11DFF86C0401F0C1F8EA
:105FC000DFF8700400210170DFF86804047010BD70
:105FD000F0B4002100220023002400250026DFF871
:105FE00044743F6817F00C0739000F00002F06D0EB
:105FF000042F15D0082F17D00C2F19D042E0DFF84E
:106000002C743F68C7F342373E00012716F1010C9C
:1060100017FA0CF74FF4004C0CFB07F7076041E050
:10602000DFF8147407603DE0DFF81074076039E0B2
:10603000DFF8F0733F6817F470173A00DFF8E47385
:106040003F6817F440073B00920CDFF8F473D25D11
:106050009B0D5B1CDFF8CC733F6817F480373C0066
:10606000002C07D1DFF8D07307FB02F7B7FBF3F77B
:10607000076006E0DFF8C47307FB02F7B7FBF3F72E
:1060800007600FE0DFF8A4733F68C7F342373E00B4
:10609000012716F1010C17FA0CF74FF4004C0CFB1A
:1060A00007F70760DFF87C733F6817F0F0073900E7
:1060B0000909DFF89073CF5D3D000768EF40476046
:1060C000DFF860733F6817F4E0673900090ADFF80A
:1060D0007473CF5D3D004768EF408760DFF844731D
:1060E0003F6817F460573900C90ADFF85873CF5D6D
:1060F0003D004768EF40C760F0BC704738B504000A
:106100000025B4F5803F17D0B4F5003F14D0B4F5A6
:10611000403F11D0DFF8300384420DD0DFF82C036C
:10612000844209D0DFF82803844205D040F2E131EF
:10613000DFF8F40201F005F814F44030B0F5403F08
:106140000BD1DFF8DC020068050035F0C04514F023
:10615000C0400543DFF8C8020560DFF8F8020068B8
:1061600030F44030DFF8EC120860DFF8E802006835
:1061700014F440310843DFF8DC12086031BD10B57B
:106180000400E4B2002C08D0E4B2012C05D040F2A7
:106190000341DFF8940200F0D4FFDFF8BC02E4B260
:1061A000046010BD10B50400E4B2002C08D0E4B2C5
:1061B000012C05D040F21341DFF86C0200F0C1FF62
:1061C000DFF89802E4B2046010BD38B504000D0099
:1061D000DFF88C02044201D1002C05D140F22F419E
:1061E000DFF8440200F0ADFFEDB2002D08D0EDB2B3
:1061F000012D05D04FF48661DFF82C0200F0A1FFDD
:10620000EDB2002D07D0DFF85C0200682043DFF814
:106210005412086006E0DFF84C020068A043DFF883
:106220004412086031BD38B504000D00DFF83802B3
:10623000044201D1002C05D140F25141DFF8E801C0
:1062400000F07FFFEDB2002D08D0EDB2012D05D09A
:1062500040F25241DFF8D00100F073FFEDB2002DA3
:1062600007D0DFF8080200682043DFF8001208605A
:1062700006E0DFF8F8010068A043DFF8F0110860DD
:1062800031BD38B504000D00DFF8E401044201D14E
:10629000002C05D140F27C41DFF88C0100F051FF69
:1062A000EDB2002D08D0EDB2012D05D040F27D41B8
:1062B000DFF8740100F045FFEDB2002D07D0DFF8E4
:1062C000B40100682043DFF8AC11086006E0DFF895
:1062D000A4010068A043DFF89C11086031BD38B507
:1062E00004000D00DFF88001044201D1002C04D12C
:1062F00040F2BC414C4800F024FFEDB2002D07D025
:10630000EDB2012D04D040F2BD41474800F019FF25
:10631000EDB2002D07D0DFF8600100682043DFF800
:106320005811086006E0DFF850010068A043DFF86C
:106330004811086031BD38B504000D004C480442D6
:1063400001D1002C04D140F2E441374800F0F9FEBD
:10635000EDB2002D07D0EDB2012D04D040F2E541A1
:10636000314800F0EEFEEDB2002D05D04348006844
:1063700020434249086004E040480068A0433F4988
:10638000086031BDF8B50400002500260027E4B2FE
:10639000212C28D0E4B2312C25D0E4B2292C22D0F3
:1063A000E4B2392C1FD0E4B2492C1CD0E4B2412C09
:1063B00019D0E4B25A2C16D0E4B25B2C13D0E4B25C
:1063C0005C2C10D0E4B25D2C0DD0E4B25E2C0AD06F
:1063D000E4B25F2C07D0E4B25E2C04D040F2B65198
:1063E000114800F0AEFEE4B26009C0B20500012D14
:1063F00003D10B480068060002E01648006806005A
:10640000E4B214F01F00050036FA05F0C00702D50B
:106410000120070001E0002007003800C0B2F2BDF3
:106420000038024008380240AC3401080438024009
:1064300000004742353802400024F40000127A0080
:1064400030070020F0060020000003200000034079
:106450000000036034380240D8064742DC06474259
:10646000C06FFFFE1C380240E2ADFFFF2038024043
:10647000C8B5194F24380240143802401838024079
:106480002DE9F04104000D00002600275FF0000810
:10649000DFF8A404844218D0DFF8A004844214D0AA
:1064A000DFF89C04844210D0DFF8980484420CD0BA
:1064B000DFF89404844208D0DFF89004844204D0CA
:1064C000C121DFF88C0400F03CFE2868002804D1CC
:1064D000C221DFF87C0400F034FE287900280DD0BA
:1064E000287901280AD02879022807D0287903289A
:1064F00004D0C321DFF8580400F023FEE879002817
:106500000AD0E879012807D0E879022804D0C4210C
:10651000DFF83C0400F015FE00200600102E65D2C6
:106520000120B0400700286838408046B8455BD15C
:10653000206803213200D2B252009140884320608B
:10654000206829793200D2B252009140084320607D
:106550002879012802D02879022835D168790028C5
:106560000DD0687901280AD06879022807D06879A7
:10657000032804D0D821DFF8D80300F0E2FDA0689A
:1065800003213200D2B2520091408843A060A0683B
:1065900069793200D2B2520091400843A060A879D4
:1065A000002807D0A879012804D0DF21DFF8A00354
:1065B00000F0C7FDA0880121B1408843A080A088D9
:1065C000A979B1400843A080E06803213200D2B22B
:1065D000520091408843E060E068E9793200D2B22D
:1065E000520091400843E060761C97E7BDE8F081D7
:1065F00070B504000D000026DFF83C03844219D07A
:10660000DFF83803844215D0DFF83403844211D018
:10661000DFF8300384420DD0DFF82C03844209D028
:10662000DFF82803844205D040F23911DFF8200357
:1066300000F087FDADB2012D3AD0ADB2022D37D0BA
:10664000ADB2042D34D0ADB2082D31D0ADB2102D85
:106650002ED0ADB2202D2BD0ADB2402D28D0ADB272
:10666000802D25D0ADB2B5F5807F21D0ADB2B5F586
:10667000007F1DD0ADB2B5F5806F19D0ADB2B5F5C4
:10668000006F15D0ADB2B5F5805F11D0ADB2B5F5E4
:10669000005F0DD0ADB2B5F5804F09D0ADB2B5F504
:1066A000004F05D04FF49D71DFF8A40200F049FDC2
:1066B000208AADB2284202D00120060001E000206D
:1066C00006003000C0B270BD10B50400DFF86802EB
:1066D000844219D0DFF86402844215D0DFF86002EA
:1066E000844211D0DFF85C0284420DD0DFF85802FA
:1066F000844209D0DFF85402844205D040F24F11A1
:10670000DFF84C0200F01DFD208A10BD38B50400F2
:106710000D00DFF82402844219D0DFF82002844201
:1067200015D0DFF81C02844211D0DFF81802844231
:106730000DD0DFF81402844209D0DFF81002844241
:1067400005D04FF4C471DFF8080200F0FAFCADB2D6
:10675000002D05D140F28911DFF8F40100F0F1FCC1
:10676000258331BD38B504000D007348844213D031
:106770007248844210D0724884420DD071488442DD
:106780000AD07148844207D07048844204D040F255
:106790009B116F4800F0D5FCADB2002D04D14FF431
:1067A000CE716B4800F0CDFC658331BD2DE9F04121
:1067B00004000D00160000275FF000085E488442C8
:1067C00013D05E48844210D05D4884420DD05D48AD
:1067D00084420AD05C48844207D05C48844204D09A
:1067E00040F209215A4800F0ACFCADB2002D31D086
:1067F000ADB2012D2ED0ADB2022D2BD0ADB2032DF6
:1068000028D0ADB2042D25D0ADB2052D22D0ADB229
:10681000062D1FD0ADB2072D1CD0ADB2082D19D05A
:10682000ADB2092D16D0ADB20A2D13D0ADB20B2DDD
:1068300010D0ADB20C2D0DD0ADB20D2D0AD0ADB231
:106840000E2D07D0ADB20F2D04D040F20A214048E2
:1068500000F077FCF6B2002E46D0F6B2002E43D000
:10686000F6B2002E40D0F6B2002E3DD0F6B2002E89
:106870003AD0F6B2002E37D0F6B2012E34D0F6B2AE
:10688000022E31D0F6B2022E2ED0F6B2032E2BD02D
:10689000F6B2032E28D0F6B2032E25D0F6B2042E7F
:1068A00022D0F6B2042E1FD0F6B2052E1CD0F6B2BE
:1068B000052E19D0F6B2072E16D0F6B2072E13D039
:1068C000F6B2072E10D0F6B20A2E0DD0F6B20B2E6D
:1068D0000AD0F6B20E2E07D0F6B20F2E04D040F238
:1068E0000B211B4800F02DFCF6B215F00700C0B2DA
:1068F000800016FA00F00700ADB2E81014EB80003B
:10690000ADB2E91014EB8101096A0F2215F00703FB
:10691000DBB29B009A4091430162ADB2E81014EBE8
:106920008000006A38438046ADB2E81014EB800066
:10693000C0F82080BDE8F081000002400004024061
:1069400000080240000C0240001002400014024007
:10695000F032010810B50400DFF8A002844208D02C
:10696000DFF89C02844204D08D21DFF8980200F009
:10697000E8FBDFF8880284420AD101214FF48050FD
:10698000FFF7ADFC00214FF48050FFF7A8FC0DE0AD
:10699000DFF86C02844209D101214FF48040FFF7F7
:1069A000CAFC00214FF48040FFF7C5FC10BD70B554
:1069B00004000D000026DFF84402844208D0DFF80E
:1069C0004002844204D0AF21DFF8380200F0B9FB66
:1069D0002888002810D02888B0F5806F0CD028882F
:1069E000B0F5004F08D02888B0F5404F04D0B22150
:1069F000DFF8100200F0A5FB6888B0F5827F07D0B1
:106A00006888002804D0B321DFF8F80100F099FB72
:106A1000A888B0F5006F07D0A888002804D0B4215A
:106A2000DFF8E00100F08DFBE888002807D0E88857
:106A3000022804D0B521DFF8CC0100F082FB2889C0
:106A4000002807D02889012804D0B621DFF8B40136
:106A500000F077FB6889B0F5007F07D068890028CF
:106A600004D0B721DFF89C0100F06BFBA889002857
:106A700019D0A889082816D0A889102813D0A88969
:106A8000182810D0A88920280DD0A88928280AD035
:106A9000A889302807D0A889382804D0B821DFF881
:106AA000640100F04EFBE889002807D0E8898028BF
:106AB00004D0B921DFF84C0100F043FB288A0028FC
:106AC00004D1BA21DFF83C0100F03BFB208806002E
:106AD00016F44156288869880843A9880843E9883C
:106AE00008432989084369890843A9890843E98932
:106AF000084306432680288A208270BD38B50400EA
:106B00000D00DFF8F800844208D0DFF8F40084427A
:106B100004D0FB21DFF8EC0000F013FBEDB2002DF8
:106B200007D0EDB2012D04D0FC21DFF8D80000F031
:106B300008FBEDB2002D04D0208850F040002080EA
:106B400004E020884FF6BF710840208031BD10B5A9
:106B50000400DFF8A800844209D0DFF8A4008442D2
:106B600005D04FF4C671DFF89C0000F0EAFAA08966
:106B700010BD38B504000D00DFF88000844209D054
:106B8000DFF87C00844205D040F29B11DFF87400EE
:106B900000F0D7FAA58131BD70B504000D000026C4
:106BA0001648844207D01648844204D040F2EB21B4
:106BB000144800F0C6FAADB2802D13D0ADB2402D0E
:106BC00010D0ADB2202D0DD0ADB2102D0AD0ADB287
:106BD000022D07D0ADB2012D04D04FF43B7109480E
:106BE00000F0AFFA2089284202D00120060001E01F
:106BF000002006003000C0B270BD0000003001402F
:106C000000380040D43501080EB400B582B003A9A5
:106C10000091024600AB0121034878440A3000F09D
:106C2000D7FA06BC5DF810FBA3E0000010B582B0F7
:106C30000400E4B2602C34D0E4B2612C31D0E4B270
:106C4000622C2ED0E4B2632C2BD0E4B2642C28D07A
:106C5000E4B2652C25D0E4B2662C22D0E4B2672CD5
:106C60001FD0E4B2682C1CD0E4B2692C19D0E4B275
:106C70006A2C16D0E4B26B2C13D0E4B26C2C10D07A
:106C8000E4B26D2C0DD0E4B2702C0AD0E4B2712CB9
:106C900007D0E4B2722C04D0074A6B210748FEF7F4
:106CA0008FF92000C0B2FDF7DDFE00900448BDF86A
:106CB0000010018013BD00BF204B01089C38010863
:106CC0003C2400204268C2F30A5240F2FF739A4209
:106CD00009D14168090304BF0068002801D10120DF
:106CE00070470220704743685B0004BF0368002BB5
:106CF00025D040F233439A1A521A012A1FDB352A53
:106D000006DB416801F0004141600021016013E0B1
:106D1000012102F01F039940491E920607D54268DF
:106D200011404A40426002681143002202E00268BA
:106D300011404A40026011B14FF0FF30704700200F
:106D40007047000090EA010F44BF81F00041FFF757
:106D50004FB800BF431A4FF000423EBF5340C01A25
:106D6000C91800BFD3095FEAD05C13EB400F34BFF2
:106D7000B3EB410F40E07CEBD1530CD342EA01214D
:106D800022D8D1EB402009D3400A28BF5FEA500146
:106D900040EBCC507047401A15D04002B0FA80F258
:106DA000521C9040400A4FEA3C23B3EB026384BF7D
:106DB00000EB730007E040F400001A16DB07C2F195
:106DC0000102D04018437047182BFCDC31FA03F263
:106DD00002FA03F3591A38BF42F00102D2EB402005
:106DE0003CBF4000ACF1010C5FEACC5CC20572F123
:106DF00000414CEB5020704713EB400F0FD24B007B
:106E000009D0ACEBD153022B03DB4902172BDDDD9C
:106E100070479143401A4300D5D10020704713EBCF
:106E2000410FD0D36FF0000070470000E0B50020A4
:106E30000190DFF82403000109D5C748C7498842FB
:106E400005D34FF440515FF0006001F0A3F8012139
:106E50001F20FFF7BAF902F023FAFFF703F802F058
:106E6000B9FABF4800680528FBD1002002F04AFCAF
:106E7000002002F0A6FC012002F044FC022002F0F7
:106E800041FC032002F03EFC042002F03BFC042005
:106E900001F09AF802F030FD0221042002F05AFDC0
:106EA00003F05DF802F04EFE02F059FFAD490D20EF
:106EB00002F0C5FF03F070F803F0AAF8FDF7AAFB93
:106EC00002F004FE00AA0121C120FDF73AFD9DF861
:106ED0000000C0B240088DF800009DF800000028B6
:106EE00003D09DF800007F28ECD102F0F6FD00AA47
:106EF0000121C120FDF725FD9DF80000C0B240082A
:106F00008DF800009DF800000328F0D10121012038
:106F100003F05AFB0121042003F056FBFFF71BF896
:106F2000002804D10121002003F04EFB03E00121E1
:106F3000062003F049FB0121032002F00BFD002392
:106F40000F220F21032002F093FD03F0BBFD03F09D
:106F50001DFB002812D002AA0421212003F0A7FA69
:106F60000020C0B204280CDAC0B2414202AA89183B
:106F7000C978C0B201AA8154401CF2E7022003F094
:106F800089FE02F0A3FD01230F220F21032002F04E
:106F90006FFD0221912004F0F3F90121652004F036
:106FA000EFF90021662004F0EBF90021672004F0DE
:106FB000E7F94FF47A71992004F0E2F9032168208F
:106FC00004F0DEF900219D2004F0DAF90198FDF7C4
:106FD000D5FF01009E2004F0D3F9634801F050FE74
:106FE00001F0D3FA01F022FF6049087060480121E6
:106FF00001705E48007802284CD15E480078012874
:1070000046D15D495D4804F033FD5D495B4804F0BD
:1070100051FD50A15B4804F02BFD5B49594804F039
:1070200049FD5A495A4804F023FD5A49584804F08A
:1070300041FD5949594804F01BFD5949574804F08E
:1070400039FD4C48002101705648FFF7DDFD4B49E2
:107050005548FFF7D9FD4B495348FFF7D5FD4C493B
:107060005148FFF7D1FD4D494F48FFF7CDFD44484A
:1070700090F80D01002801D04C4900E04C494A48E5
:10708000FFF7C2FD4748FFF7BFFD012002F0E3FB19
:1070900001F0D1F8354800780128AAD145480068A8
:1070A000002815D0434800210160012002F089FB2F
:1070B0000621414800F0B8FF4048D0E90023501CA9
:1070C00053F100013D4AC2E90001012002F0C3FB77
:1070D0003B480068002804D039480021016001F0D5
:1070E000DFFC38480068002883D036480021016062
:1070F00035480068401C344908607AE780B51C4870
:107100000078002806D1022002F080FB18480121F7
:10711000017009E001F08AFE14490870022002F0B3
:1071200050FB13480021017001BD25480121016079
:10713000704724480121016070471E480121016009
:10714000704738B504000D002A0021001F48FFF7E2
:107150005BFDFEE7412D0000003000080030000814
:107160002C24002033335340600700206624002085
:107170009B070020702400209C4D01086023002004
:10718000BC1E002074230020C11E0020604D010899
:1071900088230020CE1E0020A44D01089C2300203F
:1071A000D71E002050420108AC4D01086C4D01086B
:1071B000304D0108D0230020D803002058070020BC
:1071C000C8230020CC23002054070020C846010813
:1071D0002DE9F04FA1B0824602AE002017461D46B1
:1071E000029170620DF144080AE017F8011B029841
:1071F000D0470290002800F08B82706A401C7062B9
:10720000387808B9706A85E22528EED10020F06050
:1072100030617061B061F061306201E040F0010006
:1072200017F8011F2029F9D023290DD02B2904D0CC
:107230002D2906D030290AD00CE040F0020080B29F
:10724000EEE740F00400FAE740F00800F7E740F00E
:107250001000F4E72A290DD129680A1D2A6009685F
:10726000F162002904D5494240F00400F16280B285
:107270007F1C13E00021F1620BE0F16A6FF0004324
:10728000994205D001EB810302EB43013039F162F1
:107290007F1C3A78A2F130010A29EED339782E29E1
:1072A00003D04FF0FF31B1621EE017F8011F2A2909
:1072B00006D129680A1D2A607F1C0968B16213E0A3
:1072C0000021B1620BE0B16A6FF00043994205D032
:1072D00001EB810302EB43013039B1627F1C3A7844
:1072E000A2F130010A29EED330860FF6C03039788A
:1072F00004F0EEFB08B117F8010B8DF83A009DF889
:107300003A00682802BF39786829622005D06C28C5
:1073100004BF38786C2803D171208DF83A007F1CA7
:1073200011A8B0603978B1F1250023D01C3871D094
:10733000001F02286ED9133800F09780093869D0F1
:10734000801E00F02B81401E00F0D480401E0228D9
:1073500060D9001F00F0CE80401F30D0401E00F0EA
:107360008480401E20D0C01E09D0801E7DD0C01E4B
:107370007BD01BE1F068411CF160252120E12868E9
:10738000011D29600068B26A7060002A02D504F00D
:10739000ABFB07E0002104F0C3FB00281ABF7168B3
:1073A000401AB06A30610DE12868011D2960002192
:1073B0000068CDE9000111A870607821EAE09DF82D
:1073C0003A00622818D0682806D06A280BD06C28AA
:1073D00019D0712807D016E02868011D29600068BF
:1073E000716A0180EEE02A68101D28601268706AD8
:1073F000C117C2E90001E5E02868011D29600068A5
:10740000716A0170DEE02868011D29600068716AF8
:107410000160D7E02868C01D20F00700286000F157
:1074200008022A60D0E90023CDE90023002B04D50F
:10743000F068421CF2602D220DE0308E820704D5E8
:10744000F068421CF2602B2205E0C00705D5F06809
:10745000421CF260202200F80820F06811AA80186F
:10746000706000A800F0E2F9ACE09DF83A006C28EA
:1074700008BF2A6811D0712808BF2A6802D02A687C
:107480006A280AD1D21D22F007022A60144604F1AC
:1074900008022A60D4E9002303E0131D2B600023B7
:1074A0001268CDE90023682808BF92B207D062288D
:1074B00008BFD2B203D0742818BF7A2802D10023A3
:1074C000CDE9002396F8300000075FD5DDE9002301
:1074D000002B08BF002A59D041F02000782855D150
:1074E000F068302200F80820401C421CF26000F8CE
:1074F00008104BE09DF83A0062280CD0682810D0A4
:107500006A281AD06C2823D0712816D074281FD06E
:107510007A280CD01CE02868021D2A6090F900200F
:107520001AE02868021D2A60B0F9002014E02868DB
:10753000021D2A60002302680FE02868C01D20F0A9
:107540000700286000F108022A60D0E9002304E067
:107550002868021D2A600268D317CDE90023002B9A
:1075600004DAF068421CF2602D220DE0308E8207B2
:1075700004D5F068421CF2602B2205E0C00705D557
:10758000F068421CF260202200F80820F06811AA7E
:107590008018706000A800F0C0F813E0F068411C8B
:1075A000F16029680A1D2A60096809E0F068421C38
:1075B000F260252200F8082021B1F068421CF26038
:1075C00000F80810F06AF168401AB169401A316990
:1075D000401AF169401A7169401A316AA0EB010939
:1075E00096F830007F1C400710D420208DF8400012
:1075F000002409E0012310AA00A9504600F03EFC37
:10760000002840F08580641C4C45F3DBF4680DF1E4
:10761000440B0AE01BF8011B0298D0470290002897
:1076200076D0706A401C7062641E002CF2D130204B
:107630008DF840004FF0000BB46909E0012310AA57
:1076400000A9504600F01AFC002861D10BF1010B93
:10765000A345F3DB3469D6F804B00AE01BF8011B3C
:107660000298D0470290002852D0706A401C706285
:10767000641E002CF2D130208DF840004FF0000B3A
:10768000F46909E0012310AA00A9504600F0F6FBB6
:1076900000283DD10BF1010BA345F3DB3069716884
:1076A000746900EB010B09E01BF8011B0298D0473D
:1076B000029068B3706A401C7062641E002CF3D1A3
:1076C00030208DF840004FF0000B346A08E00123B1
:1076D00010AA00A9504600F0D1FBC8B90BF1010B6C
:1076E000A345F4DB96F8300040077FF589AD2020F4
:1076F0008DF84000002400E0641C4C45BFF680ADCE
:10770000012310AA00A9504600F0B8FB0028F3D0CE
:107710004FF0FF3021B0BDE8F08F2DE9FA47064663
:1077200082B035690A466F2A08BF082705D041F0A4
:107730002000782814BF0A271027D6E900013C242E
:1077400080468946642A18BF692A05D1002903DAD0
:10775000D8F1000869EB4909B9F1000F08BFB8F189
:10776000000F0CD1306B50B9082F3BD196F8380080
:10777000000737D530203B2485F83B0032E0CDE9C7
:107780000089FB17404649463A4604F0F5F9B846E9
:10779000A8FB0023DDE90089A8EB02023032A4F146
:1077A000010AD2B254463A2A03DB9DF80830513B15
:1077B0009A180AF8052080465FEA010908BFB8F167
:1077C000000F03D0F06861198842D8D3082F09D17F
:1077D00096F83800000705D5605D302802D0641E99
:1077E00030206055C4F13C00B0616119F160316B2B
:1077F000884207DA081A30624FF6EF71308F08407E
:10780000308710E000290ED596F8381001F01401E9
:10781000102908D1716B7269891A326A891A081A9B
:107820000128A8BF306204B0BDE8F0872DE9F24F0F
:1078300004468EB0D4E90001CDE9020104AE9DF802
:10784000380040F02000009061280AD0206B00280A
:1078500048BF062004D404BF0098672801D1012046
:1078600020636168C1F30A5040F2FF7290421CD15C
:10787000080304BF2068002809D10320A0619DF8F7
:10788000380061381A2836D30FF2346108E003203B
:10789000A0619DF8380061381A2829D30FF21861C9
:1078A000E068032204F0E0F9B5E1012816DA204689
:1078B00004F015FA012811DB002700200099612946
:1078C00020D1E168302201F8012B4A1CE2609DF8CA
:1078D0003820612A0CBF782258220FE0626840F2FB
:1078E000FE3161F31E52471A62604FF0FF30E5E748
:1078F0000FF2C051D4E70FF2C451D1E70A706169A9
:10790000891C616110B9002500277BE1009861287E
:1079100040F09680206B00284CBF2125451CDDE9F6
:1079200002012DB26E1CD4E9008900220023FEF76B
:107930002DFA3ABF89F00040CDE90280CDE90289F5
:107940003F1F8DF810200DF1110801E000F207082B
:10795000012E32DBDDE902010022002304F0E0F910
:107960002BD21C2102A804F0F3F9DDE90201FEF795
:107970003FF8F61F8146012E09DBFDF72BFE02467C
:107980000B46DDE90201FEF741F9CDE9020108F2FB
:107990000700072105E009F00F0200F8012D4FEA6A
:1079A0002919B9F1010F01DB491EF4D5491E5CBF4D
:1079B000002200F8012DF9D5C8E70DF11100A8EB60
:1079C00000010DF11106A942B8BF0D462DB22800E5
:1079D0002FD4884206DA04A9411849780829A8BF9B
:1079E0000F2100DA002104AA821800E06D1E12F8AF
:1079F0000139401E8B42F9D00F2904D104A9411846
:107A00004A78521C4A70002802D504AE6D1C3F1DF6
:107A10002DB2681E0DD481190A783032D2B23A2ABA
:107A200003DB9DF838303A3B9A1801F80129401ED3
:107A3000F2D5206B002840F1E580681E2063E1E06C
:107A4000DDE9020100220023FEF7A0F93CBF81F02E
:107A50000041CDE902013FB247F2975078434849CF
:107A6000DFF820B190FBF1F73FB2C7F1070692466D
:107A7000012E19DBDDE90289F00707D552465B4686
:107A800040464946FDF7E2FE80468946761050465C
:107A9000594652465B46FDF7D9FE82468B46002E7C
:107AA000EAD1CDE9028921E076429046DFF8D8900C
:107AB00012E0F00707D552465B4640464946FDF7BF
:107AC000C5FE8046894676105046594652465B466A
:107AD000FDF7BCFE82468B46002EEAD1DDE90201AD
:107AE00042464B46FDF78EFDCDE90201009866281F
:107AF0000CBF07F10A000620216B4518142DA8BF02
:107B0000132530208DF810000DF11106DFF87C9060
:107B1000012D3DDBDDE90201FDF780FF06F10801E3
:107B200004220A23B0FBF3F303EB8306A0EB460029
:107B3000303001F8010D0A20B3FBF0F000EB8006B5
:107B4000A3EB4603303301F8013D521EE9D1083D55
:107B500001F10806012DDBDBDDE90201FDF75EFF27
:107B6000FDF742FD02460B46DDE90201FEF74EF845
:107B700000224B46FDF76AFECDE90201CAE700BFCD
:107B8000A0860100000024400000F03F84D7974108
:107B90000DF11100301A0DF1110602E0401E7F1E9A
:107BA000761C31783029F9D00099662902D13FB28C
:107BB000791C03E065290CBF01210021226B8D187F
:107BC0002DB2A842B8BF05462DB229001AD4814271
:107BD00004DA885D3528A8BF392000DA30208A19F8
:107BE000521E00E06D1E12F80139491E8342F9D081
:107BF000392802D1885D401C8855002902D5761E9F
:107C00006D1C7F1C3FB29DF8381000972BB2324696
:107C1000204600F003F80FB0BDE8F08F2DE9F043E7
:107C2000054685B01E46D5F8308089461746012E98
:107C300002DA01260FF28C2749F02000BDF930400E
:107C4000662808BF641C17D0672840F0818014F1B3
:107C5000040FC0F28380444580F2808095F838009C
:107C6000641C000702D44645B8BFB04624B2B8EB46
:107C7000040848BF4FF00008E868A96924B2012C45
:107C800025DA30234A1C0B54B8F1010F03DA95F8BA
:107C90003810090702D52E211154521CAA6118EB85
:107CA000040FB8BFC8F1000424B26142A044696265
:107CB000B045B8BF464636B2EE613246AB6939468A
:107CC000181803F0D1FFA8EB0600A862BFE008185F
:107CD000A64218DA3246394603F0C6FFA969711880
:107CE000A961A01B6862B8F1010F03DA95F83800AA
:107CF000000705D5E8682E220A54E869401CE861AF
:107D0000C5F82880A3E02246394603F0ADFFA869F4
:107D10002018361BB8F1010F03DA95F8381009075F
:107D200003D5E9682E224254401C36B2A861B04502
:107D3000B8BF4646EB6836B23246E119C01803F0C8
:107D400093FFA8693018A861A8EB060068627EE07E
:107D50004846612816D14FF0700917E0464504DA0D
:107D600095F83810090758BFB046B8F1010848BF68
:107D70004FF00008B9F1670F14BF4FF045094FF0FD
:107D8000650903E0412808BF4FF05009A969E86878
:107D900017F8013B0B544A1CB8F1010F05DA95F8AE
:107DA0003810090758BFAA6117D52E211154531C4A
:107DB000AB61B8F1010F10DB761E36B2B045B8BF2B
:107DC000464636B232463946181803F04DFFA869C8
:107DD0003018A861A8EB06006862A869E96847182E
:107DE000200007F8019B03D42B2007F8010B03E0C8
:107DF0002D2107F8011B444200260DF1080808E078
:107E00000A2200A804F02AF8019808F8010B761C51
:107E1000009C21B20129F3DA022E06DA49F0200093
:107E2000652804BF302007F8010B4EB9302007F851
:107E3000010B07E0761E02A8305C303007F8010B1A
:107E4000012EF7DAA869E9684018381AE86195F850
:107E5000380000F0140010280DD16869A9690818CD
:107E6000696A0818E9690818A96A0818696B8842DC
:107E7000BCBF081A286205B0BDE8F083F8B5044617
:107E80000D4616461F46002004E0E86A401CE862E2
:107E90007F1E002047B116F8011BA868A047A86004
:107EA0000028F2D14FF0FF30F2BD0000686A6C7418
:107EB0007A4C00006E616E004E414E00696E6600A5
:107EC000494E46003000000010B50400B4F5E06FE4
:107ED0000FD0B4F5C06F0CD0B4F5A06F09D0B4F5D5
:107EE000806F06D0B4F5407F03D078214448FFF777
:107EF00028F9444820434449086010BDF8B50400FF
:107F0000002500260F27E078002806D0E078012819
:107F100003D08C213A48FFF714F96078102803DB6E
:107F20008D213748FFF70DF9A078102803DB8E214B
:107F30003348FFF706F9E078002820D0324800687F
:107F400010F4E060D0F5E060000A0500D5F104000F
:107F50000600EF406078B0400500A0783840054347
:107F60002D012078294945542078401128490122C3
:107F7000237813F01F039A4041F8202009E020786D
:107F8000401124490122237813F01F039A4041F83D
:107F90002020F1BD38B504000D00B4F1005F06D01B
:107FA000B4F1006F03D0B5211548FFF7CAF81A489D
:107FB000854203D3B6211248FFF7C3F8174828407B
:107FC00020431749086031BD10B50400042C06D0C9
:107FD00014F1050F03D0E1210948FFF7B2F8042C92
:107FE00006D11048006850F004000E49086005E012
:107FF0000C48006830F004000A49086010BD000019
:10800000903701080000FA050CED00E000E400E004
:1080100000E100E080E100E0FFFF010080FFFF1FC2
:1080200008ED00E010E000E070B59EB004000D0027
:1080300000A9662003F09EFB002840F0EA8000A81B
:108040000078002815D0012813D002283DD003283D
:108050000FD0042839D0052837D0062800F0D58065
:10806000072806D0082830D00B2802D00C282CD0A6
:10807000CCE0DFF8E82AD2E900018DF814000020F6
:108080008DF815004FF4A870ADF816000794FF2086
:108090008DF819008DF8185044208DF808007A20CA
:1080A0008DF8110001208DF80400DFF8B40A0021DA
:1080B0000170DFF8B01A01A803F0D8FE0600DFF85F
:1080C000A00A00780028FAD0A0E011A807900520A7
:1080D0008DF8190000208DF818004FF4FA60139005
:1080E000DFF8840A1B90FF208DF8690000208DF8CE
:1080F000680001208DF8040048208DF808008A20CF
:108100008DF81100DFF8640A00210170DFF8600AC1
:1081100000210170DFF84C1A01A803F0A7FE002827
:1081200072D1DFF84C0A00780028FAD0DFF8441A40
:1081300013A803F0F2FE0600DFF8300A00780028EA
:1081400004D1DFF8340A00780028F5D0DFF8280AD7
:108150000078012803D1DFF8200A00210170DFF840
:108160000C0A007801284FD1DFF80C0A00210170B9
:10817000DFF8F80900210170DFF8000A0021017022
:10818000DFF8F01913A803F0C8FE0600DFF8EC09C9
:108190000078002804D1DFF8E00900780028F5D045
:1081A000DFF8D809007801282ED1DFF8A40A0021D1
:1081B0000171DFF89C0A02214171DFF8A029D2E9A0
:1081C00000018DF8340000208DF835004FF4A870C0
:1081D000ADF836000F9404208DF839008DF8385032
:1081E00001208DF8240008208DF828007A208DF8D1
:1081F00031000A2001F089FBDFF8682909A9DFF8BE
:10820000500A03F0B1FE060000E0FFE73000C0B204
:1082100000E041201EB070BD10B582B004F074F9CA
:108220000400DFF8380A0068009000A804F0A6F9FE
:108230002000C0B216BD10B5ADF5487D5CA99920EF
:1082400003F098FA0A205C90DFF81C096490FF2084
:108250008DF88D0100208DF88C01DFF8F8090021E0
:108260000170DFF8140900210170DFF8EC0900212A
:10827000017004F070F9002840F08281DFF8F418F2
:108280005CA803F04AFE0400DFF8C8090078002863
:1082900004D1DFF8E40800780028F5D0DFF8B80949
:1082A00000780C2840F09B80DFF8B40900780028A3
:1082B00040F0958001208DF83001BBA8529032200B
:1082C0008DF8450108208DF84401DFF89809002158
:1082D000017000208DF8340100208DF83D01529886
:1082E000DFF86C19497B01705298DFF86419897BBB
:1082F00041705298DFF85819C97B81705298DFF8A5
:108300005019097CC1705298DFF84419497C0171F9
:108310005298DFF83C19897C41715298DFF8301986
:10832000C97C81715298DFF82819097DC171042038
:1083300001F0EBFADFF8300900210170DFF82428A2
:108340004CA9DFF80C0903F00FFEDFF81C090078D8
:108350000028FAD0BBA85A9032208DF86501002081
:108360008DF864014B208DF8540101208DF85001E7
:108370007A208DF85D01042001F0C7FADFF8E417D8
:1083800054A803F073FD0400E4B2002CF6D1DFF82A
:10839000C80800780F28FAD1DFF8B808002101706A
:1083A000DFF8D407002101700A205C90DFF8C417C1
:1083B0005CA803F0B2FD0400DFF8980800780028FC
:1083C00004D1DFF8B40700780028F5D0DFF884087E
:1083D0000078012803D1DFF87C0800210170DFF864
:1083E00078080078842840F0CB80DFF874080078A3
:1083F000012840F0C58001208DF81001AEA84A90F8
:1084000032208DF8250108208DF82401DFF854086A
:108410000021017006208DF814018A208DF81D01BD
:108420004A98DFF82C18497B01704A98DFF8201829
:10843000897B41704A98DFF81818C97B81704A9887
:10844000DFF80C18097CC1704A98DFF80418497CE1
:1084500001714A98DFF8F817897C41714A98DFF872
:10846000F017C97C81714A98DFF8E417097DC17162
:10847000042001F04AFADFF8EC2644A9DFF8D0071F
:1084800003F072FDDFF8DC0700780128FAD1DFF88D
:10849000C007807B0021CDE9AA01DDE9AA231B02E8
:1084A00043EA12631202DFF8A807407B0021104361
:1084B0001943CDE9AA01DDE9AA231B0243EA1263AD
:1084C0001202DFF88C07807C002110431943CDE9AC
:1084D000AA01DDE9AA231B0243EA12631202DFF8B4
:1084E0007007407C002110431943CDE9AA01DDE962
:1084F000AA231B0243EA12631202DFF85407007C2E
:10850000002110431943CDE9AA01DDE9AA231B028A
:1085100043EA12631202DFF83807C07B00211043E0
:108520001943CDE9AA01DDE9AA231B0243EA12633C
:108530001202DFF81C07C07C002110431943CDE96B
:10854000AA01DDE9AA231B0243EA12631202DFF843
:108550000007007D002110431943CDE9AA01BDF8B1
:1085600098014FF681710840ADF8980166A984B072
:1085700068464FF4907203F087FB0FBC00F000FBDD
:108580002000C0B20DF5487D10BD80B5FDF7E3FCBD
:10859000002811D100F030FEDFF8D00604F0A6F973
:1085A000012809D1DFF8C816012004F074FBDFF8B8
:1085B000C416012004F05FFAFFF72EFE00F036FC2F
:1085C000022840F0E8804FF4947005F0D6FADFF806
:1085D000AC160860DFF8A40600680021C0F820117E
:1085E000DFF898060268DFF8900600780021C2E9FB
:1085F0004401DFF888060068D0E944231B0243EAFF
:1086000012631202DFF8700640780021104319430C
:10861000DFF868261268C2E94401DFF860060068E6
:10862000D0E944231B0243EA12631202DFF8480632
:108630008078002110431943DFF840261268C2E910
:108640004401DFF838060068D0E944231B0243EAFE
:1086500012631202DFF82006C0780021104319438C
:10866000DFF818261268C2E94401DFF81006006836
:10867000D0E944231B0243EA12631202DFF8F80533
:108680000079002110431943DFF8F0251268C2E990
:108690004401DFF8E8050068D0E944231B0243EAFF
:1086A00012631202DFF8D00540790021104319430C
:1086B000DFF8C8251268C2E94401DFF8C005006888
:1086C000D0E944231B0243EA12631202DFF8A80533
:1086D0008079002110431943DFF8A0251268C2E910
:1086E0004401DFF898050068D0E944231B0243EAFF
:1086F00012631202DFF88005C0790021104319438C
:10870000DFF878251268C2E94401DFF870050068D7
:10871000007810F07F00DFF8641509680880DFF842
:108720005C050068008850F00100DFF8501509680A
:108730000880DFF84805006800884FF6817108401E
:10874000DFF8381509680880DFF830050068002177
:10875000817006220021DFF824050068401D05F025
:108760005DFBF1220021DFF8140500680B3005F0F5
:1087700055FB10220021DFF804050068FC3005F0ED
:108780004DFBDFF8F80400680021C170DFF8EC044D
:1087900000680021017101BD38B50400DFF8C00494
:1087A0000078002840F07B81002C00F078812000C8
:1087B00000F0B2FA200000F0AFFA050000A9652031
:1087C00002F0D8FF00A80078022840F06481DFF8AA
:1087D000440580F80D51A178080000026178084333
:1087E00080B2202190FBF1F202FB110212F1400154
:1087F000DFF820259170010089B2202291FBF2F36D
:1088000003FB1213C01A80B2202190FBF1F080B25A
:10881000202190FBF1F202FB110212F14001DFF87E
:10882000F424517080B2202190FBF1F14031DFF847
:10883000E4241170DFF8DC140022CA70E17811F032
:108840000F013031DFF8CC249171E178C9B2090908
:108850003031DFF8C0245171217911F00F0130312E
:10886000DFF8B02411722179C9B209093031DFF87B
:10887000A424D171617911F00F013031DFF8942413
:1088800091726179C9B209093031DFF888245172D7
:10889000A17911F00F013031DFF878241173A1793B
:1088A000C9B209093031DFF86C24D172E17911F0D5
:1088B0000F013031DFF85C249173E179C9B2090905
:1088C0003031DFF850245173217A11F00F0130312B
:1088D000DFF840241174217AC9B209093031DFF878
:1088E0003424D173DFF82C1400224A74DFF82414E6
:1088F000DFF82024D27B8A74DFF81814DFF8142400
:10890000127CCA74DFF80C1400220A756169897838
:10891000C9B20909C9B20A2905DB61698978C9B2F6
:108920000909373104E061698978C9B20909303130
:10893000DFF8E023D1766169897811F00F010A2907
:1089400005DB6169897811F00F01373104E0616955
:10895000897811F00F013031DFF8B82311776169A0
:10896000C978C9B20909C9B20A2905DB6169C978A0
:10897000C9B20909373104E06169C978C9B2090986
:108980003031DFF8902351776169C97811F00F0118
:108990000A2905DB6169C97811F00F01373104E05C
:1089A0006169C97811F00F013031DFF868239177E0
:1089B00061690979C9B20909C9B20A2905DB616986
:1089C0000979C9B20909373104E061690979C9B285
:1089D00009093031DFF83C23D1776169097911F059
:1089E0000F010A2905DB6169097911F00F0137319F
:1089F00004E06169097911F00F013031DFF81423C7
:108A000082F8201061694979C9B20909C9B20A29F5
:108A100005DB61694979C9B20909373104E0616947
:108A20004979C9B209093031DFF8E82282F821100A
:108A30006169497911F00F010A2905DB61694979FA
:108A400011F00F01373104E06169497911F00F012C
:108A50003031DFF8C02282F82210DFF8B81220226D
:108A600081F82320DFF8AC12752281F82420DFF88A
:108A7000A4126E2281F82520DFF89812692281F86D
:108A80002620DFF89012742281F82720DFF8841264
:108A9000732281F82820DFF8B0030121017031BD75
:108AA00010B594B0FF2400A8089005208DF81D0093
:108AB00000208DF81C0003208DF8080046208DF85A
:108AC0000C007A208DF815000AA9992002F052FEB8
:108AD00025481290FF208DF8450000208DF84400B5
