:020000040800F2
:103000001839002031ED000841ED000843ED0008BB
:1030100045ED000847ED000849ED000800000000FC
:103020000000000000000000000000006DED00083E
:103030004BED00080000000075ED000879ED000878
:103040007DED000881ED000885ED000889ED0008A0
:103050008DED000891ED000895ED000899ED000850
:103060009DED0008A1ED0008A5ED0008A9ED000800
:10307000ADED0008B1ED0008B5ED0008B9ED0008B0
:10308000BDED0008C1ED0008C5ED0008C9ED000860
:10309000995C0008D1ED0008D5ED0008355A00080C
:1030A000DDED0008E1ED0008E5ED0008E9ED0008C0
:1030B000DB5A0008AD930008D5930008F9ED00082D
:1030C000FDED000801EE000805EE000809EE00081D
:1030D0000DEE000811EE000815EE000819EE0008CC
:1030E000855A000821EE000825EE000829EE0008A8
:1030F000F349000831EE000835EE000839EE00080B
:103100003DEE000841EE000845EE000849EE0008DB
:103110004DEE000851EE000855EE000859EE00088B
:103120005DEE0008BFF34F8FDFF8400EDFF8B42EDE
:10313000016801F4E06111430160BFF34F8FFEE7C6
:1031400000B585B000F0B6FE01F010FB00F002FD06
:1031500000F022F800F038F800F031F800F02AF81A
:1031600000F023F800F01CF88DF80D00092003F0A2
:103170002AF88DF80E0000A803F088F80FF2040179
:10318000ADE00000537069726974506B74426173F2
:103190006963496E697400000190032003F013B85D
:1031A0008DF80C00082003F00EB88DF80B000720F6
:1031B00003F009B88DF80A00062003F004B88DF872
:1031C0000900052002F0FFBF8DF80800042002F07E
:1031D000FABF00B597B012A803F0C7F89DF85600E3
:1031E0000FF294120FF26C0111900FF2B4101090C4
:1031F0009DF855000F90E7A00E909DF854000D909B
:103200000FF268000C909DF853000B900FF29C1089
:103210000A909DF8520000F0FBF89DF851000790CD
:103220000FF2981006909DF8500005900FF298103C
:103230000490139803900FF29C1002909DF849009F
:1032400000F0F2F89DF84800C008431C0FF224007B
:103250000AE30000537069726974506B74426173C1
:103260006963476574496E666F000000616464724B
:10327000657373007B264E204150492063616C6C5E
:103280002E2E2E2674782674782674347826747838
:1032900026747826747826747826747826747826AE
:1032A00074787D0D0A00000000B585B000F002FEC4
:1032B00001F05CFA00F04EFCFFF76EFFFFF784FFB1
:1032C000FFF77DFFFFF776FFFFF76FFFFFF768FF60
:1032D0008DF80D0000A803F003F90FF20C0101F0C6
:1032E000DAFD05B000BD0000537069726974506B5F
:1032F00074537461636B496E6974000000B595B0D6
:1033000010A803F059F99DF84D000FF26C020FF26E
:1033100078010F900FF288000E909DF84C000D90F0
:103320009CA00C909DF84B000B900FF280000A902F
:103330009DF84A0000F06CF89DF8490007900FF2E4
:103340007C0006909DF8480005900FF27C000490E8
:10335000119803900FF27C0002909DF8410000F05C
:1033600063F89DF84000C008431C0FF2740003F09E
:10337000B5FB15B000BD0000707265616D626C65D3
:103380005F6C656E67746800537069726974506B26
:1033900074537461636B476574496E666F00000017
:1033A00077686974656E696E67000000636F6E749C
:1033B000726F6C5F6C656E67746800006C656E6739
:1033C00074685F73697A65006C656E6774685F6DB9
:1033D0006F64650073796E635F776F7264000000DD
:1033E0007B264E204150492063616C6C2E2E2E2688
:1033F0007478267478267434782574782674782640
:1034000074782674782674782674787D0D0A000006
:10341000400909900FF20400089070476372635FDF
:103420006D6F6465000000004008401C01900FF2C1
:10343000080000907047000073796E635F6C656EE2
:103440006774680080B500F035FD400001F090F928
:1034500000F082FB8DF8020000A803F055FB0FF28C
:10346000040169E3537069726974506B744D62753D
:1034700073496E697400000000B585B004A803F0BC
:1034800060FB9DF812000FF22C020FF23001039046
:103490000FF2400002909DF8110001900FF24000E1
:1034A00000909DF8100043080FF2400003F016FB57
:1034B00005B000BD7375626D6F646500537069720D
:1034C0006974506B744D627573476574496E666FAD
:1034D00000000000706F7374616D626C6500000025
:1034E000707265616D626C65000000007B264E2085
:1034F0004150492063616C6C2E2E2E267478267400
:10350000782674787D0D0A0080B500F0D3FC80B277
:1035100002F0A6FFBDE804400FF2040136E000000F
:10352000537069726974506B744261736963536557
:10353000745061796C6F61644C656E6774680000EB
:1035400080B502F0A9FFBDE800500346DFF8282E41
:103550000FF204013AE00000537069726974506B15
:103560007442617369634765745061796C6F61641B
:103570004C656E677468000080B500F09BFC80B2FB
:1035800003F0AEF8BDE804400FF20C01DFF8EC0DDB
:1035900003F0A4BA66656300537069726974506B76
:1035A00074537461636B5365745061796C6F6164BB
:1035B0004C656E677468000080B503F0A9F8BDE83B
:1035C00000500346DFF8B02D0FF208010FF2B06093
:1035D00003F084BA537069726974506B74537461E8
:1035E000636B4765745061796C6F61644C656E679D
:1035F0007468000080B500F05DFC80B203F016FB3B
:10360000BDE804400FF20401C0E700005370697286
:103610006974506B744D6275735365745061796C45
:103620006F61644C656E67746800000080B503F0DC
:103630000DFBBDE800500346DFF83C2D0FF20401FE
:10364000C4E70000537069726974506B744D627501
:10365000734765745061796C6F61644C656E677413
:103660006800000080B500F025FC03F011FB00218C
:1036700003F02EFB03D1002003F087FB03E000F0F2
:1036800031F803F06FFBBDE804400FF204017DE761
:1036900053706972697454696D65725365745278B8
:1036A00054696D656F7574557300000080B500F046
:1036B00001FC03F0EDFA00F015F803F0A4FBBDE8FF
:1036C00004400FF2040161E7537069726974546930
:1036D0006D657253657457616B65557054696D659E
:1036E00072557300DFF8741D03F0A6BC00B587B0F7
:1036F00004AA0DF1110105A803F052FB0598DFF8AB
:103700005C1D03F017FD03F081FD03F0A7FD9DF89C
:10371000102003920FF2240202929DF811200192D0
:10372000DFF83C2D009203F0D1FD03460FF21802A2
:103730000FF21C010FF2300001F0F2B870726573E5
:1037400063616C6572000000706572696F640000EF
:1037500053706972697454696D6572476574527803
:1037600054696D656F7574007B264E204150492069
:1037700063616C6C2E2E2E26743478267478267431
:10378000787D0D0A0000000000B587B0FFF70AFD44
:1037900008B904F042FD00F08DFBADF8000000F028
:1037A000E9FF019000F0DAF90290FFF7F6FC8DF8DE
:1037B0000C00FFF70BFD8DF80D00FFF702FD0490E4
:1037C000FFF7FAFC0590FFF7F2FC069000A803F063
:1037D00093FD0346DFF8402E0FF20C010FF2147038
:1037E00003F07CF907B000BD5370697269745261CF
:1037F00064696F496E69740000B597B010A803F052
:103800008FFE04F00AFD0F900FF264009DF84D301A
:103810000FF26C020FF274010E9016980D900FF2D9
:1038200080000C9015980B900FF290000A9014985D
:1038300009900FF29C000890BDF9400007900FF22C
:103840009C0006909DF84C0005900FF2A400049097
:10385000129803900FF2A8000290119801900FF2B5
:10386000B00000900FF2B80003F038F917B000BDB7
:103870005854414C5F6672657175656E63790000DE
:103880004D6F64756C6174696F6E0000537069727E
:103890006974526164696F476574496E666F0000B0
:1038A0004368616E6E656C5F66696C7465725F62B9
:1038B000616E647769647468000000004672657127
:1038C00075656E63795F646576696174696F6E00B2
:1038D000446174615F726174650000005854414C2A
:1038E0005F6F66667365745F5B70706D5D0000008E
:1038F0004368616E6E656C5F6E756D626572000027
:103900004368616E6E656C5F737061636500000093
:103910004672657175656E63795F626173650000FB
:103920007B264E204150492063616C6C2E2E2E2642
:103930007478267434782674347825747826743232
:10394000782674347826743478267434782674345F
:10395000787D0D0A0000000080B504F05EFCBDE833
:1039600000500346DFF8102A0FF2040130E0000097
:10397000537069726974526164696F4765745874F1
:10398000616C4672657175656E63790080B500F093
:1039900091FA03F0BBFFBDE804400FF20401F5E526
:1039A000537069726974526164696F5365744672C9
:1039B000657175656E6379426173650080B504F069
:1039C0003BF8BDE800500346DFF8AC290FF20801D0
:1039D0000FF6143003F082B8537069726974526143
:1039E00064696F4765744672657175656E63794287
:1039F0006173650038B5002002F0E7FB044600F073
:103A0000B9FE0546204603F039F90146E8B204F054
:103A10001DFBBDE834400FF20401B7E55370697235
:103A20006974526164696F53657450414C65766581
:103A30006C4E64426D00000080B500F03BFAC0B2ED
:103A400004F038FBBDE804400FF204019EE50000DD
:103A5000537069726974526164696F53657450413F
:103A60004C6576656C4D6178496E640038B5002010
:103A700002F0ABFB044600F07DFE0546C0B204F048
:103A800019FB204603F0FAF80146E8B204F0DEFA2A
:103A9000BDE834400FF2040178E50000537069720C
:103AA0006974526164696F53657450414C65766501
:103AB0006C64426D0000000080B500F0FBF9C0B2FC
:103AC00004F0D5FADFF8341D03F034FB04F0FAFB00
:103AD000BDE800500346DFF8A0280FF20C010FF2FA
:103AE000240002F0FBBF00005370697269745261D8
:103AF00064696F47657450414C6576656C64426DCE
:103B0000000000007B264E204150492063616C6C10
:103B10002E2E2E2674647D0D0A00000080B500F064
:103B2000C9F900F025FE00F017F88DF8020000A892
:103B300004F0EAFB0FF20C01DFF8400802F0CEFFC0
:103B400001BD00005370697269744770696F496EF6
:103B500069740000401E40008DF80100022002F050
:103B600032BB10B500F0A6F9044600F003FEC1B266
:103B7000204604F040FCBDE810400FF2040105E5CA
:103B800053706972697449727100000080B500A8B1
:103B900004F062FC009BDFF8E0270FF20C010FF647
:103BA000481000F076BE0000537069726974497263
:103BB00071476574537461747573000010B504F037
:103BC00071FC04460FF238010FF2480002F086FF44
:103BD000A4F1140003F052F84FF07C5103F0AAFA5C
:103BE000DFF88C1D04F070FC03F010FBBDE8104002
:103BF00002460B46DFF880170FF2280004F0A6BC3F
:103C0000537069726974516947657452737369645A
:103C1000426D00007B264E204150492063616C6C50
:103C20002E2E2E007B25733A252E31667D7D0D0AC2
:103C30000000000010B582B000AA0121F02004F0BD
:103C40007CFD9DF80000040200AA0121F12004F08F
:103C500074FD9DF80000DFF820270FF2100140EA04
:103C600004030FF21C0000F02DBC000053706972B9
:103C7000697447657456657273696F6E0000000061
:103C80007B264E204150492063616C6C2E2E2E26DF
:103C90007432787D0D0A000080B500F00BF9C0B2D7
:103CA00003F024F800F066FDC0B203F034F8BDE87C
:103CB00004400FF2040169E4537069726974546935
:103CC0006D65724C6463724D6F64650080B500F081
:103CD000F1F8C0B204F046FE00F04CFDC0B204F0B2
:103CE00035FEBDE804400FF204014FE453706972E1
:103CF000697443616C6962726174696F6E0000007F
:103D000080B500F0D7F800F033FDFFF725FF000184
:103D10008DF8020000A802F08FFC0FF204010BE7FF
:103D2000537069726974506B74537461636B4C6C3B
:103D300070496E697400000080B500F0BBF8C0B235
:103D400004F056FFBDE804400FF204011EE4000039
:103D5000537069726974506B74537461636B52650C
:103D6000717569726541636B0000000080B500F0F9
:103D7000A1F8C0B204F0C1FEBDE804400FF2040196
:103D8000FFF704BC53706972697457686974656E93
:103D9000696E670080B500F08DF8C0B204F050FF86
:103DA000BDE804400FF20401FFF7F0BB53706972E5
:103DB0006974446972656374526653657452784DD0
:103DC0006F64650080B500F075F8C0B204F049FF7B
:103DD000BDE804400FF20401FFF7D8BB53706972CD
:103DE0006974446972656374526653657454784D9E
:103DF0006F64650080B500F05DF8C0B204F052FF5A
:103E0000BDE804400FF20401FFF7C0BB53706972B4
:103E100069744C696E6561724669666F5365744179
:103E20006C6D6F737446756C6C5468726573686FF3
:103E30006C6452780000000080B500F03BF8C0B21E
:103E400004F045FFBDE804400FF20401FFF79EBBFC
:103E50005370697269744C696E6561724669666F08
:103E6000536574416C6D6F7374456D7074795468EB
:103E7000726573686F6C64547800000080B500F060
:103E800019F8C0B203F0B6FFBDE804400FF2040118
:103E9000FFF77CBB537069726974526164696F5338
:103EA00065744D6F64756C6174696F6E000000001D
:103EB000DFF8B04D002002F086B980B503F0A5FF11
:103EC000BDE800500346DFF8B0240FF20C010FF2FA
:103ED000240002F003BE00005370697269745261DD
:103EE00064696F4765744D6F64756C6174696F6E5A
:103EF000000000007B264E204150492063616C6C1D
:103F00002E2E2E2674787D0D0A00000070B58AB022
:103F100001A80FF25C011E2204F00CFF0020ADF896
:103F2000000000260224054611E02E280DD101A82C
:103F300028180A2240788DF80000002100A804F01B
:103F4000B4FFE10088400643641E6D1CEDB201A879
:103F5000285C0028E9D13346DFF81C240FF22C013D
:103F60000FF2845002F0BAFD0AB070BD0CED00E013
:103F7000537069726974315F4C696272617269650C
:103F8000735F762E332E322E30000000537069722C
:103F900069744765744C696256657273696F6E0027
:103FA00080B5FFF787FFDFF8BC1CC870BDE8044090
:103FB0000FF20401FFF7EABA53706972697453652E
:103FC0006E6442617463684C5000000080B5FFF776
:103FD00071FFDFF8901C0871BDE804400FF2080182
:103FE000FFF7D4BA0400FA05537069726974476523
:103FF0007442617463684C500000000080B502F0A8
:1040000021FFBDE800500346DB4A0FF20801FFF72D
:10401000DDBA000053706972697447657452636F4A
:104020004672657175656E63790000001CB5FFF717
:1040300041FFC0B2602818BF612803D0672818BFAD
:10404000702802D104F05CFF01E004F084FB0FF261
:104050002C0000F0EFF900F0E0F960810FF2200091
:1040600000F0E3F900F0CCF902D000F0D8F960815B
:1040700000F0CAF90FF20C0122E200001C0F000050
:104080001C0F000153646B4576616C537069436F7C
:104090006D6D616E645374726F6265730000000031
:1040A0002DE9F041C2B0FFF705FF044600F062FBC6
:1040B000C5B202AA2946E0B204F03FFB0FF27C0031
:1040C00000F0B8F9DFF89C6B01F0EEFC70810FF2A4
:1040D000700000F0AAF9F069B169884202D001F0DD
:1040E000E3FC70810FF25C010FF2406002F0F6FC1D
:1040F0000FF2680100F046FD0FF26C08002706E0A1
:1041000002AA4046BA5C02F0E9FC641C7F1CE4B2DF
:10411000FFB26A1E21469742F2DB02A8281810F867
:10412000012C0FF2500002F0D9FC00F021F900F050
:1041300027F800F01EF942B0BDE8F0811C0F000026
:104140001C0F000153646B4576616C5370695265B6
:104150006164526567697374657273007265677331
:104160005F6C697374000000307825782C307825F6
:10417000782C0000307825782C30782578000000E5
:10418000F06972894CF2503101FB0022DFF8141DF6
:10419000DFF8080E02F0A2BC10B5C2B0FFF78AFE2D
:1041A00004460023FF2202A9012002F033F8014651
:1041B00002AAE0B204F090FA0FF2280000F03AF9F7
:1041C00000F02BF960810FF2200000F02EF900F0D2
:1041D00017F902D000F023F9608100F015F90FF211
:1041E0000C01F9E01C0F00001C0F000153646B452B
:1041F00076616C537069577269746552656769734B
:10420000746572730000000080B5FFF753FEC0B202
:10421000012809D104F020FF00F020F800F018F880
:104220000CD07F28F8D109E004F01BFF05F09EF8C0
:1042300000F014F800F00CF80328F9D10FF2040193
:104240007AE4000053646B4576616C53646E000041
:104250009DF8000040088DF80000704700AA012179
:10426000C12004F06ABA80B5FFF724FEC0B220B9BD
:1042700005F00EFA05F071FA04E0DFF8241D48435A
:1042800003F0CEFF0021032004F046FE00210220AF
:1042900004F042FE0021012004F03EFE0021002037
:1042A00004F03AFEBDE804400FF20401FFF76EB9D6
:1042B00053646B4576616C5266626F6172644964E7
:1042C000656E74696669636174696F6E00000000F1
:1042D000F0B5C3B0FFF7EEFDC4B202A9204604F06A
:1042E000EDFA0FF2700000F0A5F8DFF87859A86930
:1042F000E86101F0DBFB68810FF25C0000F095F8EB
:10430000E869A969884204D0A869E86101F0CEFB98
:1043100068810FF2480101F091F800F031FCDFF8FC
:10432000847C002605E002A93846715C02F0D6FBC9
:10433000761CF6B2611E8E42F5DB02A800F020F872
:1043400000F016F8E8696A89FFF71CFF00F011F821
:1043500043B0F0BD1C0F00001C0F000153646B45FF
:1043600076616C537069526561644669666F0000DE
:10437000AAA4204602F0B2BB385C0008805C0008AA
:10438000201810F8011C0FF2080002F0A7BB000073
:10439000307825780000000010B5C2B00023FF225D
:1043A00002A9002001F036FF02A904F01EFA0FF264
:1043B000340000F03FF800F030F860810FF2280080
:1043C00000F033F800F01CF802D000F028F860810B
:1043D00000F01AF80FF214010FF20C1002F07EFB3D
:1043E00042B010BD1C0F00001C0F000153646B4550
:1043F00076616C53706957726974654669666F00BF
:10440000E069A16988427047E06962894CF25031E5
:1044100001FB0023DFF88C2A7047DFF88C4BA06982
:10442000E0614FF0804005F03FBA0068009000A8BE
:1044300005F015BB0068019001A805F010BB80B520
:10444000FFF738FDC0B204F0DBFDBDE800500346C5
:10445000DFF8582B0FF20C01E0E1000000007A4475
:10446000C045000853324D4770696F476574566107
:104470006C7565001CB5FFF71DFD441E00F07AF950
:10448000C0B2012803D1E0B205F06EFB03E010B921
:10449000E0B205F088FB0FF23400FFF7CBFFFFF727
:1044A000BCFF60810FF22800FFF7BFFFFFF7A8FFF6
:1044B00002D0FFF7B4FF6081FFF7A6FF0FF21401EF
:1044C0000FF2240002F00AFB13BD00001C0F0000D5
:1044D0001C0F000153646B4576616C4C6564486148
:1044E0006E646C65720000007B264E2041504920AE
:1044F00063616C6C2E2E2E267434787D0D0A0000BC
:1045000038B5FFF7D7FC044600F034F9C5B2012DE9
:1045100005D10121E0B204F0FFFC012304E00021F9
:10452000E0B204F0F9FC2B460A220A21E0B204F0C2
:1045300056FDBDE834400FF20801FFF727B8000030
:1045400053324D4770696F497271436F6E66696788
:1045500075726174696F6E001FB50FF25400FFF73A
:1045600069FFFFF75AFF60810FF24800FFF75DFF18
:10457000FFF746FF02D0FFF752FF6081E06903902A
:104580004CF250310FF230000290608901900FF22E
:1045900030000090E069628901FB0023DFF8042904
:1045A0000FF224010FF22C0002F098FA1FBD000058
:1045B0001C0F00001C0F000172656C6F616400002D
:1045C000636F756E74657200436C694765745469F6
:1045D0006D6572007B264E204150492063616C6CF2
:1045E0002E2E2E2674347820267432782026747865
:1045F0007D0D0A0080B50FF22800FFF716FFDFF8E7
:10460000A809002181614FF0804005F04BF90FF2BD
:104610001401FFF791BA0000385700087D0D0A0019
:104620001C0F0000436C69526573657454696D65B5
:104630007200000030B589B005F049FDB8B1FFF750
:1046400039FC044600F096F8C5B205EB441400238B
:10465000FF2200A9022001F0DDFD41192129A8BF98
:10466000C5F12000C1B200AAA0B205F0D1FC0FF242
:104670000C0100F010FC09B030BD000045657072FF
:104680006F6D577269746550616765002DE9F0437D
:1046900089B00FF290050FF294060FF2A80905F009
:1046A00016FD002832D0FFF705FC804600F062F8C6
:1046B000C7B2FFF753FAC4B2E11907EB481021293A
:1046C000A4BFC7F12004E4B200AA214680B205F0DD
:1046D00048FC4946304602F001FA294600F052FAF9
:1046E000DFF8C068002505E000A93046695C02F0EB
:1046F000F5F96D1CEDB2611E8D42F5DB00A8FFF7E8
:104700003FFE0FF2500002F0E9F908E0494630465A
:1047100002F0E4F929460FF2440002F0DFF909B093
:10472000BDE8F08344617461000000007B264E20E8
:104730004150492063616C6C6261636B2E2E2E0DBB
:104740000A000000456570726F6D526561645061CA
:10475000676500007D7D0D0A000000007B25743A2E
:1047600020307830307D7D0D0A000000401EC000F2
:104770008DF80000012001F026BD80B5FFF79AFBFF
:1047800002F086FAFEF7AEFF01460D2005F0F1FDBE
:10479000BDE804400FF20401FEF7F8BE52656775EC
:1047A0006C6174655652660080B50D2005F0B0FD51
:1047B00002F06EFA02F02AFD0022DFF8503C05F00C
:1047C0009BFEDFF84C3C002205F068FFDFF8442C2C
:1047D000DFF8443C05F090FEDFF8402CDFF8403C69
:1047E00005F05CFF02F05CFD0FF21401BDE8005023
:1047F00083B29AA2DFF82C0C02F070B900002041BD
:10480000476574565266000080B506F0CFF8BDE8E3
:10481000005003460FF20C020FF210010FF22000BD
:1048200002F05CB976657273696F6E0053646B4514
:1048300076616C47657456657273696F6E0000002F
:104840007B264E204150492063616C6C2E2E2E2019
:104850002674787D0D0A000080B506F0B1F8BDE839
:1048600004400FF2040130E053544C4D3735496E8B
:104870006974000080B50020ADF8000000A806F0C3
:10488000FBF8BDF90030DFF824270FF20C01DFF848
:10489000940B02F023F901BD53544C4D373552654A
:1048A0006164000080B506F083F9052006F013FA74
:1048B000022006F022FA002006F08CFA072006F00B
:1048C00077FABDE804400FF20C010FF2140002F079
:1048D00005B900004C4953334448496E69740000DF
:1048E0007B264E204150492063616C6C2E2E2E2079
:1048F0007D0D0A0000B587B004A806F08BFABDF95B
:104900001400BDF910300FF22001039093A294A07F
:104910000290BDF91200019092A000900FF21400D5
:1049200002F0DCF807B000BD4C49533344485265EF
:10493000616400007B264E204150492063616C6C0D
:104940002E2E2E202674327820267432782026745B
:1049500032787D0D0A00000080B505F070FABDE8E0
:1049600000500346DFF8C42A0FF2080156E70000A2
:104970000000F0C2456570726F6D53746174757399
:104980000000000010B508B3DFF8884D04F5806220
:104990004FF48061204606F08EFAE0B1002000E07E
:1049A000084680B2411C025D0A2A18BF0D2A18BFB2
:1049B000002AF5D10D22025589B20A200855491C5A
:1049C0000020A4F80004C9B2204600E00021BDE8A0
:1049D000104001F07CBA10BD10B5002103225342F3
:1049E0001B18D400DB78A3401943521EF7D50846A4
:1049F00010BD10B5DFF8204D0121204604F0ECFF7A
:104A000038B10121204604F0F1FFDFF89C050121B7
:104A1000017010BD38B5DFF8044D04F5B475A87801
:104A20001D2817DA94F868010C2101FB00420421CB
:104A3000FA2003F082FE94F86801401C1E2190FBCE
:104A4000F1F11E2202FB110084F86801A878401CD5
:104A5000A87031BD00AA00F05AFC31BD5652660064
:104A60002DE9F04FADF6BC3DFFF724FA07460023D1
:104A70000F220F21012004F0B2FA002300F04EF9BA
:104A800000F051F9002100F04FF900250DF1000868
:104A9000744E1CE005F808000724707828B94FF41C
:104AA000807006F0B7FA0028F7D000F0E7FF15F89D
:104AB0000890002004F0A4FAA04040EA090005F89C
:104AC0000800601E44B214F1010FE6D16D1CBD4216
:104AD00002D270780028DDD00FF6541B7078DFF812
:104AE000C4430FF6701A0FF280074CF2503920B110
:104AF00000207070394650461EE000F0BFFF802055
:104B000006F090FA3946504601F0E8FF00F038F818
:104B10000FF60C4A002705E017F80810504601F080
:104B2000DDFF7F1CBFB2681E8742F5D300A828189E
:104B300010F8011C0FF2400001F0D0FFF0697189FC
:104B400009FB00122146584601F0C8FFD4A001F02D
:104B5000C5FF0DF6BC3DBDE8F08F00005800000019
:104B60005A0000005900000053616D706C6544618B
:104B70007461436C6F636B00307825787D000000B2
:104B80000FF208010FF20C0001F0A8BF6279746502
:104B9000730000007B25743A200000002DE9F041ED
:104BA00098B00024FFF786F90646FFF7E3FD0546B7
:104BB0000FF2B40100F06FF9204600A9320E425402
:104BC0004118320C4A70001D320A8A70CE705C287F
:104BD000F3DBDFF8486B06F269174FF01E087878B0
:104BE00060B196F86901401C1E2190FBF1F108FBB1
:104BF000110086F8690100F033F9EAE700A95C20AA
:104C000003F0F3FD602004F07BF91CE08170FFF7F6
:104C100001FF96F869010C2101FB00618978C90741
:104C200048BF0124401C1E2190FBF1F108FB11003C
:104C300086F869017878401E787024B1002400A9B4
:104C4000E8B203F0D2FDD848417811B98178002943
:104C5000F9D041780029D9D00021417018B0BDE8C1
:104C6000F081000058060020537069726974536522
:104C70006E645061747465726E00000038B5FFF7A1
:104C800019F9044600250FF27C0100F004F9082010
:104C900000F04DF8332003F01FFD112000F047F81D
:104CA000052003F019FD0221002004F035F922202F
:104CB00000F03DF8042003F00FFD00F034F801236C
:104CC00000F02CF8602003F046FD01E004F0AFF99D
:104CD000691C0B1101EBD36124FA05F06A1C491120
:104CE000A2EB411500F00100EDB2AF498A78002A2D
:104CF000FCD000228A7000280EBF00210121002074
:104D0000E4E7000053706972697453656E64506122
:104D1000747465726E4770696F0000000F2211464F
:104D2000184604F05CB90121084604F0F5B88DF886
:104D3000000000AA012170472DE9F14FDFF8DCA93E
:104D400082B0884600264FF01E090AF269170BE070
:104D50009AF86901401C1E2190FBF1F109FB11003A
:104D60008AF8690100F07CF878780028F0D1B8F171
:104D7000610F0ADB01214FF4807003F03CFB0299C4
:104D8000602003F032FD602407E000F06DF8029926
:104D90005FFA88F003F029FD4446834DE878002847
:104DA00014BF6220602004F0ABF809E000F05CF86A
:104DB000A8EB0400401C5946C0B203F016FD44465F
:104DC000687810B9A8780028FAD0687820B1002057
:104DD0006870FF20BDE8FE8FA870FFF71BFE9AF8F1
:104DE00069010C2101FB00A18A78D20748BF012686
:104DF000C978401C4907494690FBF1F109FB1100B5
:104E00008AF86901787806D5401E7870722003F020
:104E1000A2FC0020DEE7401E7870002ED0D00026D5
:104E200000AA0121E62003F088FC00F074FA029841
:104E300004EB000B9DF800004044401C001B602860
:104E4000B4DB9DF80000C0F160005946C0B203F029
:104E5000CCFC9DF8001004F16000401A84B2AFE76A
:104E60007878401E7870704700214FF4807003F00E
:104E7000C2BA00B5C1B00023FF2200A9002001F092
:104E8000C9F9014600A8FFF757FF0FF2241100F0FF
:104E900002F841B000BDDFF8E40D01F01FBE0000D4
:104EA0007D0D0A00F45900082DE9F04FC3B0FFF75B
:104EB00001F80546FFF75EFC04460023FF2202A925
:104EC000022001F0A7F982464FF4FA400DF10202E8
:104ED00001A9684306F0AEF8BDF80200DFF838B863
:104EE000421EBDF80400411E92B289B2584606F037
:104EF000E4F8012200F07BF8012100F070F800F0E6
:104F000071F80027DFF8748D0FF2A409264D04E034
:104F10004946404601F0E2FD7F1CA7422DD2E878C9
:104F200028B1632003F0ECFF602003F0E9FF68780C
:104F3000002804BF28780028F9D06878A8B100209C
:104F4000687000F053F800F049F800F04BF8E8788A
:104F500008B3622003F0FFFBDFF8384D00F014FCCB
:104F6000207840080328F9D115E02870514602A89E
:104F7000FFF7E2FE0646FF2ECAD100F037F800F038
:104F80002DF800F02FF8F6B2FF2E04D00FF2340106
:104F9000404601F0A3FD43B0BDE8F08F3054000857
:104FA00040420F002057000858060020385C0008D7
:104FB00053706972697453656E644E427974657397
:104FC0000000000053706972697453656E644E424C
:104FD000797465734261746368000000002158466B
:104FE00004F064BC0121584604F000BD00220121F8
:104FF000584604F0E9BC70B582B0044603F0EDFDFC
:105000000546002600AA01214F2003F096FB0DF172
:1050100001020121332003F090FB9DF8010000F014
:10502000E0008DF801002078800601D5012076BDD2
:105030009DF8010020B1E078C00601D5022076BDC0
:105040009DF80000000704D503F081FDA84218BFB9
:1050500001269DF80000400704D503F084FDA84216
:1050600018BF761C9DF80000800704D503F075FD7D
:10507000A84218BF761CF6B2A6B19DF800009DF8B4
:1050800000104008890800F0010001F00101081833
:105090009DF80010C90801F001010818864201D1ED
:1050A000032076BD9DF80000C0060DD501F048FB39
:1050B000044603F0BDFD04EA000503F038FD20407E
:1050C000854201D0042076BD9DF80000800618D5E9
:1050D00003F04FFD044603F0C5FC4FF0FF3503F02D
:1050E000C1FCC0F10400C54003F048FD204005EAC2
:1050F000000603F078FD20402840864201D00520BC
:1051000076BD002076BD2DE9F54F85B00020DFF893
:105110000C86ADF800000C4600251E2208F2691727
:1051200001E000F012F978780028FAD1012100F0AE
:10513000F9F8DFF88C6C3079002814BF6220612008
:1051400003F0DEFE707810B9B0780028FAD07078DD
:1051500038B10020707000F00BFB00F006FBFF2060
:10516000C4E0B070FFF756FC98F869014FF00C0BE3
:105170000BFB00808078810744BF01218DF801106E
:10518000059905EB0109BDF818104FF6FF7A514556
:1051900061D180060BD50021DFF87C0504F082FB8D
:1051A0003089DFF87415504488850020307098F8F5
:1051B00069010BFB0081C978CA0726D500F0BBF84E
:1051C0000021FFF74DFE00F0ADF800F0AFF89DF8BC
:1051D000000010F07F008DF800001CBF494603F06E
:1051E0006DFB9DF8000045190FF208100068019052
:1051F000ADB201A804F033FC00F056FC70810FF250
:10520000F8000068049004A861E0880723D50FF235
:10521000EC00FFF70FF900F047FC70810FF2E0009F
:105220000068039003A804F01AFCF069B169884291
:1052300002D000F039FC7081002100F073F800F01A
:1052400094FA00F063F8258098F869010BFB008060
:10525000FFF7D1FE4AE098F8690100F06CF8FFF71B
:10526000FFFD9DF8010000283FF46CAF00208DF891
:10527000010000F05BF800F04EF8401E012806DB4C
:105280009DF80000401E4946C0B203F017FB9DF890
:10529000000028180AEB0005BDF81800ADB28542E1
:1052A000FFF650AF00F064FA1E2201E000F04DF866
:1052B00078780028FAD10FF24C00FFF7BBF800F025
:1052C000F3FB70810FF240000068029002A804F026
:1052D000C6FBF069B169884202D000F0E5FB70813D
:1052E00000F043FA00F012F82580002007B0BDE876
:1052F000F08F00001C0F00001C0F00011C0F0000AD
:105300001C0F00011C0F00001C0F000101AA04214A
:10531000FA2003F012BA9DF8000000F07F008DF82B
:10532000000070474FF4007003F065B800AA012137
:10533000E72003F002BA401C1E2190FBF1F11E226F
:1053400002FB110088F86901704798F86901401C58
:105350001E2190FBF1F102FB110088F869017878B9
:10536000401E7870704770B5ADF53C6DFEF7A2FD3C
:10537000044603F088F8A2B20DF1020101A8FFF77C
:10538000C2FE054600AA0121C82003F0D6F9FF2D70
:1053900039D000F051F80FF290340FF29C312A46C8
:1053A000204601F09BFB9DF800200FF2843120463F
:1053B00001F094FB1CA4B5B9FFF7E2FB0FF26036D5
:1053C00005E001A93046695C01F088FB6D1CBDF861
:1053D0000210ADB24A1E9542F3DB01A80818FEF791
:1053E000D0FFFEF7C6FFDFF8D809C16940894CF24B
:1053F000503202FB01020FF2FC510FF2340001F0B7
:105400006DFBFEF7B6FF0DF53C6D70BD00408F40A3
:1054100000FEAF4014AE47E17A140A40C3F5285CA1
:105420008FC2E53F385E00087D0D0A00385C000839
:10543000267434780D0A00000FF208010FF21400F0
:1054400001F04CBB5370697269744765744E4279C0
:10545000746573007B264E204150492063616C6C5B
:105460002E2E2E0D0A0000002DE9F04FC5B00020B1
:1054700000248DF8010000F0A6FE0746FFF77AF938
:105480000390002FDFF89082DFF8346900F09980F4
:105490000DF103020121542003F04FF90DF1010237
:1054A0000121542003F018F902F017FC05460DF114
:1054B00001020121312003F040F9284605F076FE73
:1054C00005469DF8010000F0C0008946802823D1E0
:1054D00001F0A6FB824601F090FB4000BAF1000FFC
:1054E00009D0BAF1020F09D0BAF1060F08D0BAF10B
:1054F0000A0F08D009E000F22E2005E01E3003E07C
:1055000026300A2101E04E301221081805F04EFE27
:105510000022DFF8B4380AE003F0BEFA824603F056
:10552000C9FA504405F042FEDFF8A038002204F02A
:10553000E3FF2A464B4605F0B1F805F045FEDFF8DB
:105540009058814628684FF47A73B0FBF3F001AAB3
:105550000DF10601784305F06DFDBDF80600F08001
:10556000384601F095FB494605F076FE01F04EFE07
:105570000022DFF8603805F0E3FE01F0A7FE29689D
:105580004FF47A72B1FBF2F14843F188B0FBF1F0CD
:10559000308101214FF4005002F02DFF3089421E6E
:1055A000F088411E92B289B2404605F086FD012284
:1055B0001146404604F008FA012100F0CEF800F050
:1055C000DAF8307928B1632003F09AFC612003F007
:1055D00097FC00250FF248190FF24C1A2AE004A993
:1055E000415C484601F07AFA0BF1010BBDF8081056
:1055F0001FFA8BFB58464A1E9042F0DB04A808189D
:10560000FEF7BFFECFA001F069FA9DF802200FF26D
:105610002011504601F062FAFEF7B2FDC9A001F078
:105620005DFA307928B1632003F06AFC612003F051
:1056300067FC6D1C039885425BD2002F18BF002DBC
:1056400031D07078002804BF30780028F9D0707805
:10565000F8B10020707000F083F800F07DF800F0E1
:105660008AF80021404604F01DF900F088F83079EE
:1056700050B1622003F06FF8DFF8184600F084F8AC
:10568000207840080328F9D100F072F800F06DF896
:105690003DE030700021404604F004F9BDF80400FC
:1056A000401EA8F82C004FF6FF7202A904A8FFF7CD
:1056B0002AFD044637B12DB90DF103020121542012
:1056C00003F00AF8FF2C14D00DF102020121C820CA
:1056D00003F033F8FFF7B0FE0FF25C0122465046AC
:1056E00001F0FCF9002C90D1FFF74AFA4FF0000BC3
:1056F0007CE700F035F800F02FF800F03CF800F0FF
:105700003EF8FF2C03D00FF23801FFF7C4FB45B081
:10571000BDE8F08F8C1B002000140040901F00207B
:10572000307825782C0000002674780D0A000000DF
:1057300072737369000000006572726F720000007E
:105740005370697269744765744E42797465734227
:1057500061746368000000000021404604F0A6B8B0
:1057600000220121404604F02FB9712002F0F3BF5E
:10577000672002F0F0BF0121404604F037B9002154
:105780004FF4005002F037BE002002E09DF8000008
:10579000401C8DF800009DF80000FF28F6D105F0B0
:1057A00043BE2DE9F04F684C0FF204180FF24C295C
:1057B0000FF24026DFF8087685B004F269154CF246
:1057C000503B4FF00C0AFEF775FBC0B228B3787857
:1057D000002804BFB8780028F9D0B87838B9FFF7A6
:1057E000C7FF05B0BDE8F04F712002F0B4BFFFF76E
:1057F00011F90020B87000F07DF894F869110AFBE7
:10580000014103468A6889880FF2FC1000960BFB61
:10581000021101914A4641461DE0B87818B1FFF7E0
:10582000F9F80020B870687840B36F7800F062F83B
:10583000034694F869010FF28C0103970AFB0040BC
:1058400002914A468168808800960BFB0100019016
:1058500041460FF27C0001F041F9687820B394F8DA
:105860006901401C1E2190FBF1F11E2202FB110078
:1058700084F869016878401E687015E04FF0804038
:105880006C78BD6904F010F80FF23801039480B20F
:105890000BFB050002910190009600234A46414609
:1058A0000FF22C0001F01AF905B0BDE8F08F0000EE
:1058B00053646B4576616C49727148616E646C65C6
:1058C0007200000064696D656E73696F6E000000A0
:1058D0007B264E204150492063616C6C2E2E2E2673
:1058E000743478202674347820267434787D0D0A38
:1058F0000000000094F869010AFB0040FFF76CB853
:105900001CB5FEF7D5FAC0B210B1A0780028FCD0C3
:105910000D4890F869110C2202FB01004CF2503244
:105920008168808802FB010001900FF220020FF2D3
:10593000C4000FF224010090A3780FF2300001F0B0
:10594000CDF813BD7D0D0A00901F00206972715FB4
:10595000726169736564000053646B4576616C49DC
:105960007271526169736564000000007B264E20ED
:105970004150492063616C6C2E2E2E2674782026AF
:105980007434787D0D0A00007CB5DFF84C4404F2D5
:10599000691568780028FCD094F869010C2606FB8C
:1059A0000040FFF719F894F8691106FB01414CF229
:1059B00050338A68898803FB0211019103460FF274
:1059C00034010FF238020FF2400000910FF254013F
:1059D00001F084F894F86901401C1E2190FBF1F15C
:1059E0001E2202FB110084F869016878401E68706D
:1059F00073BD000074696D65720000006972715FAB
:105A000073746174757300007B264E2041504920E9
:105A100063616C6C2E2E2E267434782026743478B4
:105A20007D0D0A004770696F49727148616E646C40
:105A30006572000010B500F039F8DFF89C2300F023
:105A400039F8802005F0E6FA20B10120A07080200E
:105A500005F0E8FA4FF4807005F0DCFA18B1012087
:105A6000A07000F00BF84FF4007005F0D3FA20B1ED
:105A70000120A0704FF400702BE010BD4FF4807037
:105A800005F0D0BA10B500F011F8DFF8502300F09F
:105A900011F84FF4806005F0BDFA20B10120A0702C
:105AA0004FF4806015E010BDB069F0614FF08040A8
:105AB00003F0FABEDFF8084392F868310C2101FBCD
:105AC0000323988092F8680101FB0020A16981609E
:105AD0007047BDE8104005F0A5BA80B500F0B8F9F0
:105AE00003F07AFFF8B1DFF8D8028169491C8161BF
:105AF00041698269914202D105F0B3FC0CE08169F1
:105B0000062909D041698069891D814204D100209C
:105B100005F0D8FCFDF706FBBDE8044001214FF07D
:105B2000804003F063BF01BD80B50FF21001FFF7A5
:105B3000B2F9A3488169891C416101BD7265626F38
:105B40006F74416374696F6E0000000010B5A44C5F
:105B5000FEF7B0F9207023780FF210020FF2F8214F
:105B60000FF21000BDE8104000F0B8BF6D6F646523
:105B7000000000007B264E207574696C69747920E2
:105B800063616C6C2E2E2E20267432787D0D0A00F7
:105B900038B5944C0FF2180505E0E368A268284672
:105BA00002F0D4FC103421680029F6D131BD000088
:105BB00025732025732025730D0A0D0A00000000AF
:105BC00010B582B00FF24801FFF765F97C48816992
:105BD000891C00918169009A9142FBD105F06CFD0E
:105BE00040F60274204605F0BCFD01217E4805F018
:105BF00096FD04281CBF204605F0B3FD05F065FDA9
:105C0000002005F05FFCBDE81340FDF78BBA0000F3
:105C1000646675416374696F6E0000000FF21003D3
:105C20000FF214020FF218010FF2240000F056BF19
:105C3000322E302E3100000076616C756500000058
:105C4000667756657273696F6E416374696F6E0033
:105C50007B264E204150492063616C6C2E2E2E26EF
:105C600074737D0D0A0000005548012141700FF248
:105C700010000FF2F01100F031BF0000805C00084E
:105C80007B264E204150492063616C6C2E2E2E7D68
:105C90000D0A00000423002010B505F08FFD504CC4
:105CA0002078FEF76FFE80B100F0DEFA4F4A6060A8
:105CB000416891421EBF41684D4A914203D14068FC
:105CC0008047002000E00120607010BD38B54948D1
:105CD000010108D54849884205D34FF440514FF09F
:105CE000006003F0E8FE04F0FDFD01211F2005F037
:105CF000E1FD002003F0F4FE012003F0F1FE02209C
:105D000003F0EEFE032003F0EBFE042003F0E8FEB8
:105D1000042003F029FF05F0B5FB38480168052988
:105D2000FCD10221042003F0F7F804F09FFB04F0FB
:105D3000EBF904F0B6FA32490D2004F01AFB04F036
:105D4000ABFB02F015FC03F07DFF04F01FF84FF4ED
:105D5000407003F07FFE4CF24F321F214FF0804025
:105D600005F0ABF9012200F073F803F02DFE00F00E
:105D70006FF803F09BFD00F06BF803F037FE0FF2B5
:105D8000840002F0E3FB00230FF290020FF298016F
:105D90000FF2A40000F0A2FE114D0AA468780028BA
:105DA000FCD000206870686808B140688047287897
:105DB0000028F3D0204602F0C9FBEFE70000000006
:105DC000580600203E00000000408F400040BF40C9
:105DD000B4060020000010C0FC200020901F00200E
:105DE000340700200000002000000808295B00089C
:105DF000695C000800300008003000080023002023
:105E000033335340436C6920746573742061707040
:105E10006C69636174696F6E0D0A00007265736569
:105E200074496E666F00000068616C476574526566
:105E3000736574496E666F007B264E204150492081
:105E400063616C6C2E2E2E20267432787D0D0A0034
:105E500001214FF080407047696E74657261637410
:105E60006976650053746F70436D6400DFF8040455
:105E700000210170A0F8141480F8011480F81314A4
:105E800080F81614FF2180F8171470476128A8BF06
:105E9000572107DA4128A8BF372103DA3A28B4BFCF
:105EA00030210021401AC0B27047DFF8C8134018F3
:105EB00090F8021490F80104081AC0B27047DFF895
:105EC000B413401890F801044018401C70472DE9A5
:105ED000F04782B080468A460027DFF8985311E0E9
:105EE0002878012805D19DF8000000F098F88DF879
:105EF000000060199DF800104170B5F81404401CB2
:105F0000A5F81404B8F1000F07D100A805F033FB81
:105F100038B101280ED0012065E05FFA8AF100292E
:105F200002D13846BDE8F68718F8010B8DF800005D
:105F3000A1F1010A9DF800000D28E3D00A2805D13F
:105F400001270024222805D1012104E00027202870
:105F5000F7D1012400212A7832B1022A22D018D3A5
:105F6000042A44D021D3CDE717B100F06AF8C9E77D
:105F7000002CC7D141B102202870B5F81444B4F503
:105F8000806FADD106202EE07B2814BF01200320B6
:105F9000F2E754EA0700F0D095F81304112830D145
:105FA000032020E00029F7D1E7E795F81794B9F12D
:105FB000FF0F14BF012600267D2801D196B9EBE71B
:105FC000FFF764FF10280BDA3EB100EB09108DF8E3
:105FD0000000FF2085F81704CFE785F8170491E744
:105FE000002C8FD1052085F8160404202870002F7E
:105FF00088D095F8160408B100F02FF9FFF736FFA6
:1060000080E7401C85F81304C0B24019B5F8141499
:1060100080F8011400202870002FF1D0A5E7A0F12E
:1060200041011A293CBF2030C0B27047914991F814
:1060300018241018C0B2401890F801044018407895
:1060400070472DE9F84FDFF82C928B4C99F8130428
:10605000002508B935E0646868B2FFF730FF0746ED
:10606000E8B2FFF722FF80460BE01AF8010BFFF7BA
:10607000D6FF834616F8010BFFF7D1FF834504D006
:1060800010346068A0B12668BA46AAEB0700404504
:10609000EBD130780028F3D154B1A06800786D1CA2
:1060A0006E28D8D009F213474FF000087D7111E037
:1060B00009F213400221C17009F21340C07800F0C8
:1060C000CCF8BDE8F14FD1E6F87800283ED16D1C40
:1060D00008F1010899F81314A068EDB28D422FD28F
:1060E0005FFA88F818F800604046FFF79FFF31001C
:1060F0002AD0B6F162011BD0113902D0891E0229C3
:106100001CD8752E08BFFF2609D0762E08BF4FF683
:10611000FF7604D0732E0CBF7F264FF0FF3601218F
:10612000404600F019F88642CED20420F870C3E74A
:10613000222818BF7B28C7D00520F7E70720F5E7FE
:106140007A79891A085C08B10320EFE7F87800280B
:10615000B2D14A480460B4E72DE9F047DFF8149162
:10616000884699F818140818C0B200EB090191F894
:10617000011449444E1CFFF798FE824600240A256C
:10618000002703E084B91025781CC7B2574517DAF9
:10619000B85DB8F1000F03D0002F08BF2D28F3D051
:1061A000782818BF5828EDD0FFF770FEA842B8BF76
:1061B00005FB0404E8DB052089F81604002000E054
:1061C0002046BDE8F0870021C6E738B50446FFF752
:1061D0002DFF2D280CBF0125002529462046FFF75D
:1061E000BBFF0DB100B2404200B232BD70B50C46EB
:1061F000204991F818140D18C6432CB1E8B2FFF7E6
:1062000054FEA0EBD670207068B2FFF758FE00EB8A
:10621000D67070BDF8B50C4616461F4600A9FFF7AC
:10622000E5FF05469DF80000864298BF30468DF890
:106230000000002F1ABF9DF80000361A0026F6B2A3
:106240003146204605F078FB9DF80020294630199C
:1062500002F060FD9DF80000F2BD094951F82010E0
:106260000FF2200002F072B90449086800220A60A7
:10627000704700007017002000000020F42200206A
:106280003806002025730D0A000000007CB5054685
:1062900000AA0121512002F050FA00F0B7F800F0F6
:1062A000DF0040F0010000F0A5F800F0A8F84F2052
:1062B00002F043FA00F0B4F800F0CF008DF80000CF
:1062C0004F2002F009FA0190BDF804002080287BDD
:1062D00001280CBF082000208DF80000E97A9DF805
:1062E000000008438DF80000687A08B90120687240
:1062F00000AE687A401E7070697828780843297A61
:1063000008438DF80200A87AF070A97B012904BF28
:1063100040F01000F070687B012803D1F07840F065
:106320000100F07000AA0421302002F0D5F900200D
:1063300069784908C1F103018842B1BF0021696849
:10634000C200D1408155401C0428F1DBA87A00B17D
:10635000012002F0C0FB00AA0421362002F0BCF9A3
:106360000190BDF80400208073BD30B585B00446AF
:1063700001AA0A21302002F0E0F90090BDF80010D7
:106380005648018001A8417801F00F01491C617253
:106390009DF80410C1F3C00121739DF8041001F0B1
:1063A0000701E172C17801F0E002A272C1F30012AC
:1063B000A27301F001016173807800F00101217284
:1063C00000F0F801217000F00600607000216160AB
:1063D0004210C2F102028A4207DA01ABCB18CD00AB
:1063E0009B796268AB401A436260491C0429EFDB69
:1063F00005B030BD8DF80000512002F06DB901905C
:1064000000AABDF80400208001217047019000AA75
:10641000324CBDF80400208001219DF80000704737
:10642000019000AABDF80400208001219DF8000021
:10643000704700B583B000F00EF80190BDF804106D
:106440002648018018219DF80000084201D0012053
:106450000EBD00200EBD00AA0121302002F06DB952
:1064600030B583B004460025FFF7E3FF00F020F8C5
:10647000401980B20119001900128DF801108DF831
:10648000000000AA0221342002F026F90190BDF894
:1064900004101248018037BD30B583B00025FFF7E6
:1064A000C8FF00F005F8044600AA0221342003E0EA
:1064B00000B1012502F0D6BA02F03FF90190BDF813
:1064C0000410064801809DF800009DF8011001EBC2
:1064D0000020401B001B80B23EBD000004230020B2
:1064E0007CB5054600AA0121512002F026F900F0F2
:1064F000EDF800F0DF0040F001008DF800005120C1
:1065000002F0EAF800F0D2F84F2002F016F900F09D
:10651000D4F800F0CF008DF800004F2002F0DCF836
:106520000190BDF804002080E87A40F010008DF85A
:106530000000687A08B90120687200AE687A401ECF
:1065400040F0C0007070697828780843297A0843C1
:106550008DF80200A87AF070697B012904BF40F031
:106560001000F070287B012803D1F07840F0010082
:10657000F07000AA0421302002F0AEF80020697803
:106580004908C1F103018842B1BF00216968C20016
:10659000D1408155401C0428F1DBA87A00B10120CC
:1065A00002F099FA00AA0421362002F095F8019031
:1065B000BDF80400208073BD30B585B0044601AA43
:1065C0000A21302002F0B9F80090BDF800106448AC
:1065D000018001A8417801F00F01491C61729DF80A
:1065E000041001F00701E172C17801F0E002A2722B
:1065F000C1F30012627301F001012173807800F091
:106600000101217200F0F801217000F006006070B5
:10661000002161604210C2F102028A4207DA01AB36
:10662000CB18CD009B796268AB401A436260491C6D
:106630000429EFDB05B030BD30B583B000F030F891
:10664000019000F024F8607800F026F80CBF40F0CC
:10665000400000F0BF008DF8000000A822784178CB
:10666000012A0CBF41F0040101F0FB0141704178A7
:10667000A27801F00F011143417000AA02215120BC
:1066800002F02AF80190BDF80400288037BD344D8F
:10669000BDF804002880704701289DF8000070476D
:1066A000044600AA0221512002F047B8019000AA36
:1066B000BDF80400208001217047019000AABDF8B8
:1066C0000400208001219DF800007047019000AA7D
:1066D000234CBDF80400208001219DF80000704784
:1066E0001CB5044602F0BEF9801C80B201190019E5
:1066F00000128DF801108DF8000000AA022134204C
:1067000001F0EAFF0190BDF804101548018013BDA7
:106710001CB502F0A7F9044600AA0221342002F0B9
:106720000CF80190BDF804100D4801809DF8001090
:106730009DF801000831091B891E884080B216BDF2
:1067400000B583B000AA01214A2001F0F6FF0190B4
:10675000BDF80410024801809DF800000EBD000045
:106760000423002038B50446211D206A2268451AFA
:10677000E9B2201D904738B194F82900281884F810
:106780002900201D2062012032BD38B5044608468C
:10679000002500E06D1CEDB2295C0029FAD12268C9
:1067A0002946904728B194F82900281884F8290030
:1067B000012032BD2DE9FE4F04460020ADF8000057
:1067C00004F12006201D20620D4604F114007060C3
:1067D0009246002070720DF1040BDFF8FC8214E089
:1067E00010B1201D20620D46B9F1000F04D07D21AB
:1067F00000F065F900F8011D206A7168884203D332
:1068000000F05BF900286BD06D1C2878002800F0A0
:106810004B8198F80110252818BF26280FD07B2817
:106820001CBF7D28232807D10029E5D03168491CE9
:10683000316001F8010DDFE798F80210F4E715F870
:10684000012F252A18BF262A03D100F038F929780C
:10685000D0E726280CD159B14FF001096E2A18BF94
:106860004E2A07D000F02BF97B2100F8011D01E032
:106870004FF00009002029784E2906D0542929D04C
:106880006E2902D0742925D03AE098F800005AF811
:10689000047B0028B0D0B9F1000F07D0206A7B211B
:1068A00000F8011B411C21622821017000F005F94C
:1068B000002815D000F0FEF8002811D0B9F1000F23
:1068C0009AD0206A292100F8011B411C21627D21F8
:1068D000017091E720465AF8047BFFF743FF002838
:1068E00077D000F0E7F8002873D000F0E6F8002831
:1068F0006FD000F0E4F83A2100F8011D01206D1C72
:10690000297895F801E03039C9B28A1E052A33D2B8
:10691000BEF1640F18BFBEF1750F2DD15AF8042BCC
:1069200097B200230122ADF80070BEF1640F08D1C8
:106930005FEA074C05D56FEA070C0CF1010701234C
:10694000BFB247B14FF00A0C97FBFCF75B1CBFB21C
:10695000002FF7D109E05B1C07E0376807F1010C55
:10696000C6F800C020270CF8017D1F467B1CFFB233
:106970008F42F2DB6D1C00E000222B78691E002B99
:1069800000F08F80322B18BF342B68D0482B5BD09F
:10699000582B5BD0632B0CD0642B1DD0682B53D0AD
:1069A000702B18BF732B0BD0752B15D0782B4DD0B7
:1069B00016E700F084F85AF8041B00F8011D13E7ED
:1069C0005AF8047B00F079F818B100F073F8002849
:1069D000F5D10020BDE8FE8F002A12BFBDF80010DF
:1069E0005AF8041B89B219B900F069F83021E4E7BC
:1069F0000020642B0DD10A040BD53268521C326082
:106A00002D2302F8013DB1F5004F02D0494289B271
:106A100059B10A2291FBF2F20A23C0B203FB121110
:106A200000F80B10401C91B2F2E70146481EC9B2B3
:106A3000002913D0C0B2326810F80B10521C32601B
:106A4000303102F8011DF0E700F03DF802225AF85B
:106A5000041B206AC9B204F00DFA2062C4E615F8DE
:106A6000010F682818BF48280BD100F02CF815F842
:106A7000011C206A32290AD15AF8041B042289B267
:106A8000E9E7782818BF5828F1D06D1EACE65AF80F
:106A9000047B0422390C04F0EDF920620422B9B21F
:106AA000D9E7002884D19EE600F007F8002890D0AE
:106AB000707A8FE73946204667E6204652E630680E
:106AC000401C30607047206A302100F8011B411CD7
:106AD00021627821017070476C0700200EB410B558
:106AE0008BB0014902E000BF95AF0008009101247E
:106AF00001460DAA00A8FFF75DFE00B9002420465C
:106B00000BB010BC5DF810FB1CB5044600F030F86B
:106B1000002001F0E0FF012001F01EFB60788DF8FD
:106B2000000000A8A178417000AA217881703B2064
:106B3000032101F0D1FD0190BDF804104E48018001
:106B400013BD1CB5044600AA03213B2001F0F5FD4E
:106B50000190BDF80410484801809DF80000607065
:106B600000A84178A170807800F00E00207013BD5D
:106B70001CB500AA0121312001F0DFFD019000AA1F
:106B80003D4C00F033F800F00F0040F080008DF82D
:106B90000000312001F0A0FD00F01FF8332001F0CB
:106BA000CCFD00F021F800F0F3008DF80000332058
:106BB00001F092FD00F011F8512001F0BEFD00F04F
:106BC00013F800F0DF008DF80000512001F084FD83
:106BD0000190BDF80400208013BD019000AABDF80B
:106BE0000400208001217047019000AABDF8040034
:106BF000208001219DF80000704700B583B000AAF5
:106C000001213B2002E01C48018007BD01F095FDF9
:106C10000190BDF80410184801809DF800000EBDD9
:106C200000B583B000AA01213D20EFE700B583B095
:106C300000AA8DF801000221000A8DF8000034201E
:106C400001F04AFD0190BDF80410DCE700B583B007
:106C500000AA0221342001F070FD0190BDF804105B
:106C6000054801809DF800009DF8011001EB00200F
:106C700080B20EBD0000000004230020002840F177
:106C80000980F446404200F005F850F000406047AB
:106C9000002800BF0AD0B0FA80F18840D1F19D01F0
:106CA000C905020672F1004241EB1020704750F80E
:106CB000041B61B150F8042BD30744BFA9F10103B1
:106CC0009A18002342F8043B091FFAD1EFE77047F6
:106CD00040EA010C5FEA4C0C07D0884205D14FEA2C
:106CE000400C1CF1807F98BF8042704730B583B064
:106CF000054600AA0121502001F01FFD00F023F8F5
:106D00000CBF40F0010000F0FE008DF8000000AA6A
:106D10000121502010E030B583B0054600F01DF889
:106D200000F011F80CBF40F0800000F07F008DF8FB
:106D3000000000AA0121512001F0CEFC0190BDF815
:106D40000400208037BD0190012DDFF8CC42BDF852
:106D5000040020809DF80000704700AA0121512006
:106D600001F0EBBC00B583B000AA0DF1010100F009
:106D7000E1F800AA0221532001F0AEFC0190BDF819
:106D80000410DFF89402018007BD01B582B002AAA9
:106D90000121542001F0A0FC0090BDF80010F0E7A4
:106DA000F0B583B006460C46154600AA02215320D2
:106DB00001F0C3FC00F03DF800AD6878207001F0F0
:106DC0002CFAFFF765FF0746DFF8501204F0B8FD14
:106DD00005D84FF07C50394600F0ACF907469DF8D5
:106DE00000006978401C484304F0D6F904460D467B
:106DF00038468B4900F020F900F008FA02460B46AD
:106E0000002088490BE000B583B000F004F800AA28
:106E100002215520B0E700AA0DF101012EE003F098
:106E20003DFC22462B4603F067FB04F0CDF93060B1
:106E3000F7BD0190BDF80410774801809DF800006F
:106E40002870704710B582B048F28C7401F0E5F9F3
:106E50007549884228BF4008744988420CD100AA6D
:106E60000121012001F069FC9DF80000400654BF9B
:106E700048F6045448F21424204616BD2DE9F84F74
:106E800004460D461646FFF7DDFFFFF701FF644994
:106E900000F0D2F880462046414600F04BF904F05D
:106EA00061FDFF21B0FBF1F1FE2903D3FF20287023
:106EB000307039E000F0A7F82F7800F037F800F0D4
:106EC0009FF8414600F0B8F8834600F096F800219C
:106ED00004F036FD814604D32046594604F0BCF93F
:106EE0008146FF2F17D0781CFFF7C8FE00F088F806
:106EF000414600F0A1F800F07FF8002104F020FDE9
:106F000003D32046414604F0A7F9494604F03CFD6E
:106F10003CBF781C28703078401E307028780228DA
:106F2000ACBF401E01202870BDE8F18F8246384674
:106F3000FFF7AEBE2DE9F84F04460D46164601F0A8
:106F40006CF93B49884228BF4008FFF7A1FE814603
:106F5000214600F0EFF8374900F06EF804F002FD2A
:106F6000FF21B0FBF1F1FE2903D3FF202870307020
:106F700040E000F048F82F78DFF8B8B0FFF7D6FF10
:106F800000F03EF8594600F0D5F8494600F054F8B4
:106F900000F032F8002104F0D3FC03D32046414630
:106FA00004F05AF98046FF2F1BD0781CFFF766FECD
:106FB00000F026F8594600F0BDF8494600F03CF8CC
:106FC000814600F01AF8002104F0BAFC03D32046F1
:106FD000494604F041F9414604F0D6FC3CBF781C18
:106FE00028703078401E307028780228ACBF401ED0
:106FF00001202870BDE8F18F8046214604F02CB9AD
:10700000514600F097B8891C3170C9B2B0FBF1F05D
:1070100028703078FFF73CBE04230020415DC64B4A
:1070200000007A4400E8924081C3C90140787D01A4
:1070300081BA8C0180B4934910B5FF2313EAD05470
:107040001DBF13EAD1529C429A4239E0A41ADA07D2
:1070500080EA0103134042EA012142EA0020421A79
:107060003CBF641E01EB4202090AB2FBF1FE01FBC8
:107070001E221202B2FBF1F001FB10226EF30F2070
:107080001202B2FBF1FE4EEA00207F3406DDFE2C38
:1070900024DA53EA500050EBC45010BDD4F102047E
:1070A00001FB1E2240F08071192C1DDC21FA04F036
:1070B000C4F12004A140114371F10042584110BDB8
:1070C0009C421ABF03EAD1529A420FE080EA010EB5
:1070D0000EF00043400004D0490016D143F0FF40B9
:1070E00010BD490008BFD343180010BD9C4205D114
:1070F000D21AF7D001F00041484010BD4A0212BF39
:107100000846484000F0004010BD4AB90902B1FAF3
:1071100081F2914044B1A418C00140F000409EE7C4
:10712000C90141F0004152420002B0FA80F4A0408F
:10713000141B94E7FF2212EAD05C1DBF12EAD15360
:10714000944593422BE09C44D30780EA01021A4005
:1071500043EA002043EA0121A1FB0030410038BF8F
:1071600040007CF17F010BDBFE294ADA5B0842EA32
:10717000C15153EA006373F1004C51EB102070478A
:10718000D1F1080CDCF120012FDB5B0810FA01F1D2
:107190000B4373F1004120FA0CF0504170479445C5
:1071A0001CBF02EAD153934280EA010202F000427E
:1071B0001DD0400019D0490017D05BB9634514D0E9
:1071C0000902B1FA81F39940BCEB030CC00140F015
:1071D0000040C1E70002B0FA80FC10FA0CF0B3EBFB
:1071E0000C0CC90141F00041B6E7100070474000A7
:1071F0000AD0490008D010F1807F94BF11F1807F40
:1072000002E042F0FF407047D04370475FF0FF0C50
:107210001CEAD05114BF614506E0C110400721F0BF
:10722000E04101F16051704779B900F0004100027E
:107230000AD0B0FA80FC00FA0CF001F16051A1EB29
:107240000C5101EBD0214005704741020CBF40F4C6
:10725000E0016FF0000100207047000083B50121BC
:1072600000A804F0A3FB401E012811D9002100A8AA
:1072700004F09CFB60B10198DDE90023002847BFC2
:10728000002005490020054904F05AF8CDE9000125
:10729000DDE9000103B000BD0000F0BF0000F03FD9
:1072A000F446400D40EAC120490006D200F014F82F
:1072B000004248BF6FF00040604700F00DF84FF00B
:1072C000004188428CBF084640426047400D40EA7A
:1072D000C120490080F00D8040F00040490DA1F52B
:1072E0008061491C05D4D1F11F0154BFC840C017AB
:1072F00070474FF0000070472DE9F04387B0044617
:10730000A0208DF8180006AA01219F2001F0E4F9C1
:10731000B4F90000FFF7B2FC05466068FFF7B8FC5F
:107320002946FFF707FFDFF8FC19FFF785FE00F09D
:10733000C9FF0646632001F00EFADFF8F45A00F0A8
:10734000E2F8287840084028F9D1DFF8E89ADFF819
:10735000D889D9F80400404534BF0020012000F04E
:1073600036FF622001F0F7F900F0CDF828784008E8
:107370000328F9D1D9F804703046FFF77FFC00F0FC
:107380009DFA06463846FFF783FC01463046FFF774
:1073900053FE00F097FF00B204AE011201F00F019E
:1073A000F070B170B909A0684002B0FBF1F0401C68
:1073B0008DF81000606801F0B4FF00AA0121A3203D
:1073C00001F0BBF99DF8000000F0FD0000F0D5FED3
:1073D000A32001F081F920690DF106020DF10701EA
:1073E00000F060FB9DF807009DF806108DF80C007A
:1073F00003AF607B0843787001AA60690DF1050155
:1074000000F005FC9DF804009DF8051041EA00100D
:10741000B8700DF10202A0690DF1030100F099FBB3
:107420009DF803009DF8021041EA0010F870DFF8A3
:10743000BC19D9F80400DFF8B879884201D1B62028
:1074400008E0B84201D1AC2004E0DFF8EC19884232
:1074500003D1A3208DF8010017E0404504D13B2063
:107460008DF80100B62010E0DFF8D019884204D171
:1074700036208DF80100AC2007E0DFF8C4198842FF
:1074800004D131208DF80100A32070700DF10102AC
:107490000121072001F020F90290DFF8C01900F067
:1074A000C3F9D9F80400884228BF4008B842804197
:1074B000C043C00F00F019F904F10C0201216C2047
:1074C00001F00AF904AA04210C2001F005F903AA2D
:1074D00004211A2001F000F900F0A5F9012000F0C4
:1074E00005FE80208DF8100004AAE32070700221B0
:1074F000992001F0F1F800F096F9606800F006FAC2
:1075000007B0BDE8F083002002E09DF80000401CB9
:107510008DF800009DF80000FF28F6D103F084BF2D
:107520002DE9F04F85B0044603AA0821082001F098
:1075300004F902AA04211A2001F0FFF8009003AD1B
:1075400000F07CFDE87800F00702012A16D0032A3B
:1075500008BF012613D0042A08BF02260FD000F06E
:107560000701052908BF032609D000F0F80040F004
:10757000010000F002FE0B2001F0AEF800269DF89D
:107580000C00697800F01F00490301EB4050A97816
:1075900000EB4110E97800EBD10A00F008FEDFF8BB
:1075A0009498D9F804800746504603F0FFFDCDE9D2
:1075B0000001404603F0FAFD8B460FF2CC41715CAE
:1075C000824600F069FA02460B465046594603F0DF
:1075D00065F8DDE9002302F08FFFFFF73FFEFFF7BC
:1075E00075FE6060E9799DF8120001EB002080B221
:1075F00001054EBF40F470400005000D08FB00F08F
:10760000DFF85C184843616800B28904B0FBF1F010
:1076100020804FEAD83128794843A06000F032F941
:10762000207302AF787800F070006073B87800F0D3
:10763000070A4FEA101BF878060900F00F0500F062
:10764000D7FD8046D9F804909DF8081008F1050090
:1076500029FA00F001F580714843797801F00F01B3
:10766000C1F11701C84020614846FFF711FB00F047
:1076700030FB0746504603F099FD00F020FB00F078
:1076800023FBCDE90001012000FA0BF003F084FD9B
:10769000DDE9002302F030FFFFF718FEFFF7F8FAEC
:1076A0003946FFF747FD04F05DF9606105EBC50061
:1076B0000FF27861801931F8100003F077FDDFF8E0
:1076C000883900F003FB05460F4629FA08F003F05D
:1076D0006DFD00F085FB2A463B4602F00DFFFFF7EB
:1076E000F5FDA06105B0BDE8F08F30B583B005466B
:1076F000002000F013F801F020F80190012DDFF8D0
:107700003047BDF8040020809DF800000CBF40F019
:10771000400000F0BF0000F001F889E08DF80000A3
:1077200000AA012101207047DFF8F028DFF8F038C7
:1077300012189A4238BF062119D3DFF8E828DFF87B
:10774000E83812189A4238BF0C2110D3DFF8DC2831
:10775000DFF8DC3812189A4238BF102107D3DFF85F
:10776000D428DFF8D43812189A4238BF2021DFF825
:10777000F026B0FBF2F0C9B2484341F21F618842E3
:1077800028BF0F2116D200210FF23C0232F811302F
:10779000834203D2491C49B20F29F7DB51B102EBF6
:1077A000410333F8023C32F81120C31A101A834205
:1077B00038BF491E49B2881001EB5070C010A1EBD0
:1077C000C000C0B27047000024126412A412E41278
:1077D00026136613A613E71329147014B714FF14A5
:1077E00048158F15D8151F1600B583B000AA0421BF
:1077F000082000F0A2FF0190BDF80410DFF8300669
:1078000001809DF800009DF8011000F01F00490361
:1078100001EB40509DF8021000EB41109DF8031061
:1078200000EBD1000EBD0290BDF808002880704723
:1078300000F052FF0190BDF80400208037BD00B574
:1078400083B000F01AF80190BDF80410DFF8E005ED
:1078500001809DF8000000F00701012901D10020FE
:107860000EBD032901D101200EBD00F00700042840
:1078700001D102200EBD03200EBD00AA01210B2064
:1078800000F05BBF00B583B000AA01216C2000F0BE
:10789000FDBB00B583B000AA01210C2000F04DFF14
:1078A0000190BDF80410DFF888050180DFF8841529
:1078B0009DF8000049684843C00B0EBD4FF0914150
:1078C000FFF738BC00B583B000AA02210E2000F0FB
:1078D00034FF0190BDF80410DFF8540501809DF8D5
:1078E00000009DF8011001EB002080B201054EBFA1
:1078F00040F470400005000DDFF83815496800B20B
:107900004843411400EB913080140EBD2DE9FC4D2D
:107910000546DFF80807DFF808174019884238BF26
:10792000002719D3DFF8FC06DFF8FC16401988425F
:1079300038BF012710D3DFF8F406DFF8F41640193A
:10794000884238BF022707D3DFF8E806DFF8E816D9
:107950004019884238BF0327FFF7B4FF0446FFF7FA
:1079600098FF06466419FFF78DFF00FB064600F0FE
:107970001EFC441CFFB26FB1022F05D007D3032FAA
:1079800011D1DFF8A00707E0DFF89C0704E0DFF87B
:107990009C0701E0DFF89807864201D2002000E052
:1079A000012001F041F83046FFF7BEFE80460FF29D
:1079B000D800DFF88064385C684303F0F7FB824648
:1079C00024068B46A00903F0E7FB044670680D46C9
:1079D00003F0ECFB00F05AF852465B4602F08CFDD7
:1079E000FFF774FC410D01F01F0141EA48118DF8C9
:1079F0000010420B00A94A7042098A700FF234024B
:107A0000BA5C42EAC000C87000AA0421082000F055
:107A100063FE0190BDF80410DFF814040180307893
:107A2000012802D101F0F0FB00E00020BDE8F68D56
:107A300000000000010304052DE9F843FFF7D4FE20
:107A40000446FFF7FCFE064600F0B1FB0746204661
:107A500003F0ACFB8046DFF8DC034068894603F0A6
:107A6000A5FB0D460FF22001715C044600F014F8EE
:107A700000F00CF842464B4602F03EFDFFF7EEFBED
:107A8000BDE8F443FFF722BC0306081002460B468C
:107A90002046294602F002BE781CC0B2484380044A
:107AA00003F07ABBFEB5044600200D4616468DF85D
:107AB00000000F2700F09CFBDFF8781349689DF861
:107AC000002072B9002F0CD4C7F11402821821FAD9
:107AD00002F2944239BF7F1E7FB201228DF800204E
:107AE000EDE7002F48BF00273770401D21FA00F254
:107AF000C7F11703012098406043B0FBF2F0C0B219
:107B0000002601A93718B7F1010C04D0FF375743FD
:107B1000DF40E71B01E047F6FF7721F81670761C7F
:107B2000032EEFDB4FF6FF72002331F913402600DE
:107B3000274648BF7F4292B2974206DA012EACBF79
:107B4000224672421C18641E2C705B1C032BECDB5B
:107B5000F7BD2DE9FC4104460D461646012700F00D
:107B600047FB00B10227DFF8CC024068B0FBF7F01A
:107B70006421B0FBF1F300200FF2B01740F6282289
:107B800037F810105943B1FBF2F18C4203D2401C7C
:107B900040B25A28F4DB78B301464FF0000C00AA3B
:107BA00040F628280CEB010E07EB4E0E3EF802ECD7
:107BB00003FB0EFEBEFBF8FEA4EB0E0E22F81CE04B
:107BC0000CF1010CBCF1030FECDB4FF6FF7300244A
:107BD00032F91470BE46BEF1000F48BFCEF1000E60
:107BE0009BB29E4505DA012FACBF3B467B42601835
:107BF000401E641C032CEBDB40B2092190FBF1F129
:107C0000317001EBC101401A2870BDE8F3812DE904
:107C1000FE4E0446874840680D460027FFF738F8B7
:107C200000F057F8824600264FF0010B0BFA06F0E1
:107C300003F0B2FA0022DFF8143502F05DFCFFF722
:107C400045FBFFF725F85146FFF774FA03F08AFE6B
:107C5000844203D3761CF6B20A2EE7DB0198067045
:107C600000260097304603F0A1FA00F028F800F053
:107C70002BF80746019890F9000089460BFA00F0AE
:107C800003F08AFA3A464B4602F036FCFFF71EFB39
:107C9000FEF7FEFF5146FFF74DFA03F063FE07467D
:107CA000BC4203D3761CF6B2082EDADB0098201A09
:107CB000391B884238BF761E2E70BDE8F78E002231
:107CC000DFF88C3403F03CBBDFF88834002202F08C
:107CD00013BC4FF05A51FFF72DBA00B583B000AA7C
:107CE00002211A2000F029FD00F014F800F080FABB
:107CF000401D5C49496821FA00F09DF8001001F52B
:107D0000807148439DF8011001F00F01C1F1170186
:107D1000C8400EBD0190BDF80410DFF88803018053
:107D20007047000000247449006CDC02411F0F1FE3
:107D3000041EC81C8B1B351A1719EB1626159D112E
:107D4000A310C00FE00E250E590DB60C810B8F0A43
:107D5000C7084C08DF076C070F07AA065806BF05BF
:107D6000460563042604ED03B603870355032C037D
:107D7000DF02A30231021202F601DA01C301AA01F5
:107D800096016F01510118010901FB00ED00E200AD
:107D9000D500CB00B800A9008C0085007E007700DC
:107DA00071006A0065005C005400460042003F001C
:107DB0003B003800350033002E002A00230021004C
:107DC0001F001E001C001B001900170015001200E8
:107DD000110010000F000E000D000D000C000B0034
:107DE0000022DFF8443402F059BC000000366E0176
:107DF00040787D011CB500F02BF89DF8000000F0E4
:107E00008F00204300F01EF861E100B583B000AAA6
:107E100001211B2000F091FC0190BDF80410DFF857
:107E2000840201809DF8000000F070000EBD00008B
:107E3000042300205C07002080BA8C0180F0FA0245
:107E4000007519038DF8000000AA01211B2070475E
:107E5000044600AA01211B2000F06FBC81BA8C01EE
:107E600040420F005C0700202DE9F04F6B4A6C4B3D
:107E7000121889469A4206D20021DFF8B0239042B8
:107E800015D2012113E0674A674B12189A4238BF96
:107E900002210CD3654A664B12189A4238BF03215F
:107EA00005D3644A1018644A904238BF0421182050
:107EB0000FF2983200FB01270126BD684846FFF704
:107EC000A5F9044688464846002103F039FD1ED234
:107ED000B868FFF79BF902460B460020DFF8501305
:107EE00002F0DCFB82468B46F8682946FFF7A4F8CF
:107EF000FFF78CF902460B465046594603F096FDB3
:107F00002246434603F052FE21D200261FE02846B7
:107F1000FFF77CF902460B460020DFF8181302F049
:107F2000BDFB05468B46F868B968FFF785F8FFF793
:107F30006DF902460B462846594603F077FD024686
:107F40000B462046414603F031FE38BF022657F863
:107F500036004946FFF7EEF807EBC601496800F026
:107F6000B3FA4FF07E5103F00FFD38BF084606D339
:107F7000DFF8C41203F0E4FC98BFDFF8C00200F0A1
:107F8000A1F9C0B2BDE8F08F70B509B15B2902DB81
:107F9000DFF8AC0270BD214C214D2418AC4206D252
:107FA0000023DFF88842A04215D2012313E01D4CC4
:107FB0001D4D2418AC4238BF02230CD31B4C1C4D62
:107FC0002418AC4238BF032305D31A4C20181A4C8E
:107FD000A04238BF042301240D29B8BF002402DBCE
:107FE0002929A8BF0224DBB218200FF2602200FB6F
:107FF00003250846FEF74CFE55F83410FFF71CF831
:10800000064605EBC40055F834104068FFF714F835
:1080100001463046BDE8704003F01EB980A9A0D1EA
:1080200061D9AC0A801BFEE8E1851205409F2DEE68
:108030002177FC02C0701EF721418E011948BDF85E
:1080400000100180704700000000594030B583B037
:1080500004460D46FFF7F0FC2946FFF705FF8DF8B3
:10806000000000AAC4F117000121C0B266E000B50B
:1080700083B000F019F800F060FBFFF74BFEFFF74C
:10808000DBFC9DF80010FFF77FFF0EBD00F055FBF5
:108090000190BDF80410034801809DF800000EBD5A
:1080A0000000000004230020C0F1170000AA0121F5
:1080B000C0B270471CB500F013F89DF8000000F046
:1080C000F80020438DF8000000AA0121182000F0DC
:1080D00003FB0190BDF80410DFF86801018013BDB7
:1080E000044600AA0121182000F027BB1CB500F0AF
:1080F00010F800F01FF80CBF40F0800000F07F0087
:1081000000F001F8E3E78DF8000000AA01211E202D
:108110007047044600208DF8000000AA01211E20AF
:1081200000F00BBBE2F49C09C4E93913068DA219D7
:108130000B1A45339DF80000012C704700F0CCFA73
:108140000190BDF804103F48018037BD00001E407B
:10815000000020400000E03F1CB500F013F827208D
:1081600000F0EBFAFFF7E6FF0CBF40F0100000F064
:10817000EF0000F002F82720A9E78DF8000000AA20
:1081800001217047044600AA012170471CB5FFF782
:10819000F9FF9E2000F0D1FAFFF7CCFF0CBF40F0B2
:1081A000800000F07F00FFF7E8FF9E208FE700B51A
:1081B00083B000AA01219E2000F0BFFA0190BDF813
:1081C0000410204801809DF80000C0090EBD1CB5B8
:1081D000FFF7D8FFB42000F0B0FAFFF7ABFF0CBFF9
:1081E00000F0F70040F00800FFF7C7FFB4206EE78B
:1081F00000B583B000AA0121B42000F09EFA0190DE
:10820000BDF804100F4801809DF80000C0F3C000C5
:1082100008B100200EBD01200EBD0B48406870471C
:108220000949486070470000A8CB784100E9A435AF
:1082300000002A40000044400100B4420000B44263
:10824000000002C3042300205C0700203D0A07C091
:10825000AE47CD413D0A07C0AE47CD41000000C04A
:10826000713DFA415C8F02C09A99BB415C8F02C09C
:108270009A99BB419A99F9BFAE47DD4152B85EC0A9
:10828000CDCC194285EBF1BFAE47DD418FC2F5BFC2
:108290000AD7F141AE4751C052B80D426666E6BFFB
:1082A000E17AD24185EBF1BF48E1EC418FC285C054
:1082B000D7A34A426666E6BFEC51F0417B14EEBF9D
:1082C00048E100424100090E7F3915D4D1F11F0168
:1082D00014D4400007D2C00140F00040C84048BF5D
:1082E0006FF000407047C00140F00040C8404CBFF4
:1082F0004FF00040404270470020704700424FF06E
:10830000004058BFC043704700B583B041788278C1
:1083100011438DF8041001AA0078012150E07CB5CA
:10832000044600208DF800000D4600AA01212046D9
:1083300000F003FA0190012D2B4EBDF804003080AF
:108340009DF8000000F004008DF800000CBF40F024
:108350009B0040F0A3008DF8000000AA01212046F8
:1083600000F0BAF90190BDF80400308073BD30B55B
:1083700083B0054600AA0121062000F0DEF9019035
:10838000002D00F00AF814BF40F0800000F07F00DC
:108390008DF8000000AA01211DE0134CBDF8040077
:1083A00020809DF80000704700B583B001784278C6
:1083B0008078114308438DF8040001AA01210620AA
:1083C00000F08AF90090BDF800100748018007BD51
:1083D00028438DF80000062000F07EF90190BDF8DA
:1083E0000400208037BD00000423002001AA0421DE
:1083F000902000F071B9F0B583B005460E46002715
:1084000001AA0421902000F098F900900021244C4A
:10841000BDF80000208001A80A5CC1F10303DB0065
:108420009A40D719491C0429F6DB002E0CBF27EA15
:10843000050145EA07010022C2F10303DB0021FA2E
:1084400003F31354521C042AF6DBFFF7CFFF00900E
:10845000BDF800002080F7BD1CB5044600AA042129
:10846000FA2000F06AF9019000AA0D48BDF8041046
:108470000180002041428918401CC97804F8011B82
:108480000428F7DB13BD00B583B001AA0421FA204C
:1084900000F053F90090BDF800100148018007BDBD
:1084A0000423002000B583B000AA0121C82000F0F9
:1084B00044F90190BDF80410024801809DF80000C5
:1084C0000EBD00000423002090EA010F44BF81F09C
:1084D000004102F0C9BE00BF421A3CBF801A891891
:1084E0004FF0004CC0F3C752FF2A24D0C1F3C7534A
:1084F00013B3D21AD2F1190327DD4CEA01214CFA49
:1085000003F321EA0303D140C20D4CEA00204018D6
:1085100034BF20EA0C004CEA5000D20553EA006355
:1085200073EB0C0C52EB1020420012F1807F38BF2D
:108530007047C00DC0057047490212BF9A4200EB58
:108540005120F8E7D2F11703D9D570470EB400B522
:1085500082B003A90091024600AB01210348784490
:108560000A3003F03BFB06BC5DF810FBAF67000070
:108570002DE9F04387B002F019FACD4C54F82000F1
:10858000E06002F013FA0FF2BC3101EB40006061D1
:1085900002F00CFA04EB8000183020614FF4004523
:1085A0004FF480464FF400574FF4805802F0FEF924
:1085B00000281DD10121404603F085F9012110203A
:1085C00003F078F9DFF8EC9200F05EF805220E2156
:1085D00000F05CF805220D2100F058F800F06BF86F
:1085E00000F04DF8009500F04BF800F052F81CE058
:1085F0000121022003F05EF9DFF8BC9205220E2172
:1086000000F044F800F040F805220D2100F03EF89B
:1086100000F051F8009500F033F800F030F800F069
:1086200038F80121304603F057F9E06804F09EF86D
:108630004FF48270ADF80A0002A90020ADF80800DE
:108640000390ADF810004FF40070ADF81200082050
:10865000ADF814000020ADF816000720ADF81800A2
:10866000E06804F0A7F8E068012104F0BAF8206996
:10867000616900680988018307B0BDE8F08300964E
:1086800000A9484604F0C2B805220F21484604F06C
:10869000FFB801208DF80400CDF8008000208DF88F
:1086A000060000A901208DF8070003208DF80500C1
:1086B000484604F0ABB802208DF804000097002073
:1086C0008DF8060000A902208DF8070003208DF820
:1086D0000500484604F09AB82DE9F04383B0CCB2C7
:1086E0000DF1020600219046ADF804108DF802103D
:1086F00000F0C8F800F0BEF80028FBD000F0B1F898
:1087000000F0BCF80028FBD000F0AFF800F09FF8B4
:10871000F0DB00260EE000F0ADF80028FBD016F8E4
:10872000081000F09FF800F0A9F80028FBD000F036
:108730009EF8761CA642EEDBF4E02DE9F04383B010
:10874000CCB20021ADF804100DF1020601219046D3
:108750008DF80210C0E0F0B583B00021ADF8041030
:108760000DF1020480218DF80210607072B6504D38
:1087700028696969006809884183002002E0BDF822
:108780000000401CADF80000BDF800000028F6D045
:108790000026E868022104F032F80028F9D0315DA3
:1087A000E86804F02AF8E86800F069F80028FAD0D0
:1087B000BDF80470E86804F01EF8C6F10101C900B4
:1087C0008840C019761CADF80400022EE1DBE86891
:1087D000022104F014F80028F9D0286969690068BA
:1087E0000988018362B60198FEBD2DE9F04383B08C
:1087F000C4B20020ADF804008DF802000DF10206AD
:10880000FF20884600F03EF800F034F80028FBD046
:1088100000F027F800F032F80028FBD000F025F82F
:1088200000F015F8F0DB00260EE000F023F8002839
:10883000FBD016F8081000F015F800F01FF800281B
:10884000FBD000F014F8761CA642EEDB6AE0C5F11E
:108850000101C900884048446D1CADF80400022D98
:108860007047A95DF86803F0C8BFBDF80490F868C8
:1088700003F0C1BFF868022103F0C1BFF86801210D
:1088800003F0BDBF707072B6094F3869796900682E
:1088900009884183002002E0BDF80000401CADF8CB
:1088A0000000BDF800000028F6D000257047000049
:1088B000F005002000100240000402402DE9F043C2
:1088C00083B0C4B20020ADF804000DF1020601200F
:1088D0008DF802008846FF20FFF7D4FFFFF7CAFF9C
:1088E0000028FBD0FFF7BDFFFFF7C8FF0028FBD033
:1088F000FFF7BBFFFFF7ABFFF0DB002610E0FFF751
:10890000B9FF0028FBD0F868FF2103F076FFFFF7DE
:10891000B5FF0028FBD0FFF7AAFF08F8010B761C73
:10892000A642ECDBF868022103F069FF0028F9D0C9
:108930003869796900680988018362B60198BDE8E1
:10894000FE830000001000100010000030B583B05E
:1089500000F01FF800F023F80CBF40F0040000F016
:10896000FB000AE030B583B000F013F800F017F810
:108970000CBF40F0020000F0FD008DF8000000AADE
:1089800001215020FFF7A8FE0190BDF804002080CF
:1089900037BD054600AA01215020FFF7CEBE019049
:1089A000012D204CBDF8040020809DF80000704788
:1089B00000B583B000AA0121E5200BE030B583B0FB
:1089C000054600AA01216E20FFF7B7FE00F01AF855
:1089D0006E20D7E7FFF7B1FE0190BDF804101148F3
:1089E00001809DF8000000F07F000EBD30B583B01F
:1089F000054600AA01216F20FFF79FFE00F002F854
:108A00006F20BFE7019000AA064CBDF8040020804B
:108A100001219DF8000000F0800028438DF800003F
:108A2000704700000423002010B582B0044600F017
:108A300014F89DF8000000F0F9008DF80000012CFA
:108A40000CBF40F0020040F004008DF8000000AAC6
:108A500001219E20FFF740FE13BD00AA01219E20A8
:108A6000FFF76BBE00B583B000F00BF80190BDF8C6
:108A70000410DFF8C80101809DF8000000F0070035
:108A80000EBD00AA01213020FFF757BE054600AAFF
:108A900001213220FFF751BE00B583B0FFF7F7FF89
:108AA0000190BDF80410DFF8940101809DF80000EA
:108AB000C0080DE000B583B0FFF7E9FF0190BDF8F5
:108AC0000410DFF8780101809DF80000C0F3410038
:108AD000401CC0B20EBD30B583B000F008F800F005
