:020000040800F2
:10300000581F0020CD850108097701080B770108BA
:103010000D7701080F770108117701080000000003
:10302000000000000000000000000000137701080D
:10303000157701080000000017770108A79600081F
:103040009D860108A1860108A5860108A9860108B8
:10305000AD860108B18601081977010833770108A8
:1030600065770108C1860108C5860108C98601087F
:10307000CD860108D1860108D5860108D9860108C8
:10308000DD860108E1860108E5860108E986010878
:10309000C9770108F1860108F58601087D770108E6
:1030A000FD860108018701080587010809870108D5
:1030B0000D870108A5780008EB780008198701083A
:1030C0001D87010821870108258701082987010834
:1030D0002D870108D1770108358701083987010854
:1030E000AD77010841870108458701084987010834
:1030F0004D87010800B58BB0DFF8B00800780128D3
:1031000014D0DFF8A808007802280FD0DFF89C0858
:10311000007803280AD0DFF894080078042805D046
:10312000DFF888080078FF2840F00082DFF87C088C
:103130004078002841D0DFF87408407801283CD05E
:10314000DFF868084078022837D0DFF86008407858
:10315000032832D0DFF85408407804282DD0DFF857
:103160004C084078052828D0DFF840084078072828
:1031700023D0DFF83808407808281ED0DFF82C0864
:1031800040780B2819D0DFF8240840780C2814D098
:10319000DFF8180840780A280FD0DFF810084078C8
:1031A00009280AD0DFF804084078062805D0DFF89F
:1031B000FC0740780D2840F0B981DFF8F0078078EF
:1031C000002850D0DFF8E407807801284BD0DFF8E2
:1031D000DC078078022846D0DFF8D0078078032803
:1031E00041D0DFF8C807807804283CD0DFF8BC075E
:1031F0008078052837D0DFF8B4078078062832D0E9
:10320000DFF8A807807807282DD0DFF8A00780789E
:10321000082828D0DFF894078078092823D0DFF821
:103220008C07807800281ED0DFF88007807801287E
:1032300019D0DFF878078078022814D0DFF86C07FF
:10324000807803280FD0DFF86407807804280AD03C
:10325000DFF858078078052805D0DFF85007807818
:10326000062840F06381DFF8440700788DF80100FC
:10327000DFF8380740788DF80000DFF830078078F5
:103280008DF80200DFF8240740680490DFF81C077F
:103290008068059000208DF82000DFF8100790F876
:1032A0007F008DF8220001208DF82100DFF8000753
:1032B0000790DFF8F8064078002818D0012835D0AC
:1032C000022852D003286FD0042800F08B800528F4
:1032D00000F0A680072800F0E880082800F0E580CC
:1032E0000B2800F001810C2800F0FE801CE1DFF8C3
:1032F000BC06408DADF80400DFF8B006008DADF8D7
:103300000600DFF8A8068089ADF80A00DFF89C0601
:10331000007F8DF80C00DFF89406806D0690DFF8D2
:103320008C06B0F84000ADF8080030E3DFF87C060A
:10333000408DADF80400DFF87406008DADF806008E
:10334000DFF86806C089ADF80A00DFF86006407F44
:103350008DF80C00DFF85406C06D0690DFF84C06BF
:10336000B0F84000ADF8080011E3DFF84006408DEA
:10337000ADF80400DFF83406008DADF80600DFF884
:103380002C06008AADF80A00DFF82006807F8DF851
:103390000C00DFF81806006E0690DFF81006B0F893
:1033A0004000ADF80800F2E2DFF80006C08CADF88E
:1033B0000400DFF8F805808CADF80600DFF8EC05B6
:1033C000408AADF80A00DFF8E405C07F8DF80C00F4
:1033D000DFF8D805406E0690DFF8D005C08FADF855
:1033E0000800D4E2DFF8C405C08CADF80400DFF8B3
:1033F000BC05808CADF80600DFF8B005408AADF85A
:103400000A00DFF8A805C07F8DF80C00DFF89C05E6
:10341000806E0690DFF89405C08FADF80800B6E224
:10342000DFF88805007801281FD1DFF88005C08DFE
:10343000ADF80400DFF87405808DADF80600DFF804
:103440006C05808AADF80A00DFF8600590F820006E
:103450008DF80C00DFF85405006F0690DFF84C057E
:10346000B0F84200ADF808001EE0DFF84005408EDD
:10347000ADF80400DFF83405008EADF80600DFF883
:103480002C05808AADF80A00DFF8200590F82000AE
:103490008DF80C00DFF81405006F0690DFF80C05BE
:1034A000B0F84400ADF8080071E2DFF80005C08E06
:1034B000ADF80400DFF8F404808EADF80600DFF804
:1034C000EC04C08AADF80A00DFF8E00490F82100AF
:1034D0008DF80C00DFF8D404C06E0690DFF8CC0441
:1034E000808FADF8080052E2DFF8C004408FADF8DD
:1034F0000400DFF8B804008FADF80600DFF8AC0474
:10350000008BADF80A00DFF8A40490F822008DF8D3
:103510000C00DFF89804406F0690DFF89004B0F8D4
:103520004600ADF8080032E241203CE2DFF87C04BE
:1035300001210170DFF8740402214170DFF86C048E
:1035400000218170DFF8640405214160DFF85C042C
:103550007FF063018160DFF854044FF4AC71818126
:10356000DFF848042D21C181DFF840042D210182BC
:10357000DFF838042D214182DFF830046021818298
:10358000DFF828040821C182DFF820040421017734
:10359000DFF8180408214177DFF81004082181774B
:1035A000DFF808040421C177DFF80004082180F85F
:1035B0002010DFF8F803002180F82110DFF8EC0379
:1035C00032218184DFF8E4030221C184DFF8DC03C7
:1035D00032210185DFF8D40303214185DFF8CC03D4
:1035E00042F210718185DFF8C4030A21C185DFF83A
:1035F000BC0332210186DFF8B40303214186DFF8E2
:10360000AC0332218186DFF8A4030221C186DFF8F2
:103610009C0302218187DFF894030221C187DFF830
:103620008C030321A0F84010DFF880030A21A0F8E2
:103630004210DFF878030321A0F84410DFF86C0390
:10364000722180F84810DFF86403DFF86813C16462
:10365000DFF8580344F68D61A0F85010DFF84C03F2
:10366000102180F85210DFF84403312180F8531004
:10367000DFF83803102180F87C10DFF830031021C8
:1036800080F87D10DFF824034FF461618165DFF875
:103690001C037821C165DFF814031E210166DFF8E1
:1036A0000C031E218166DFF8040305214166DFF863
:1036B000FC021E218166DFF8F4021E210167DFF89B
:1036C000EC024FF47A718167DFF8E00200788DF840
:1036D0000100DFF8D80240788DF80000DFF8CC0256
:1036E00080788DF80200DFF8C40240680490DFF8AB
:1036F000BC028068059000208DF82000DFF8AC0245
:1037000090F87F008DF8220001208DF82100DFF86D
:10371000A0020790DFF894024078002818D0012812
:1037200035D0022852D003286FD0042800F08B80B7
:10373000052800F0A680072800F0E880082800F09F
:10374000E5800B2800F001810C2800F0FE801CE1D0
:10375000DFF85802408DADF80400DFF85002008D0C
:10376000ADF80600DFF844028089ADF80A00DFF802
:103770003C02007F8DF80C00DFF83002806D06906F
:10378000DFF82802B0F84000ADF80800FFE0DFF8ED
:103790001C02408DADF80400DFF81002008DADF87A
:1037A0000600DFF80802C089ADF80A00DFF8FC0166
:1037B000407F8DF80C00DFF8F401C06D0690DFF853
:1037C000EC01B0F84000ADF80800E0E0DFF8DC0103
:1037D000408DADF80400DFF8D401008DADF806008F
:1037E000DFF8C801008AADF80A00DFF8C001807F69
:1037F0008DF80C00DFF8B401006E0690DFF8AC0124
:10380000B0F84000ADF80800C1E0DFF8A001C08CBE
:10381000ADF80400DFF89401808CADF80600DFF805
:103820008C01408AADF80A00DFF88001C07F8DF876
:103830000C00DFF87801406E0690DFF87001C08F51
:10384000ADF80800A3E0DFF86401C08CADF8040017
:10385000DFF85801808CADF80600DFF85001408A8F
:10386000ADF80A00DFF84401C07F8DF80C00DFF8E6
:103870003C01806E0690DFF83401C08FADF808007F
:1038800085E0DFF82801007801281FD1DFF81C014E
:10389000C08DADF80400DFF81401808DADF806008E
:1038A000DFF80801808AADF80A00DFF8000190F81F
:1038B00020008DF80C00DFF8F400006F0690DFF8B0
:1038C000EC00B0F84200ADF808001EE0DFF8DC00C4
:1038D000408EADF80400DFF8D400008EADF806008D
:1038E000DFF8C800808AADF80A00DFF8C00090F861
:1038F00020008DF80C00DFF8B400006F0690DFF8B0
:10390000AC00B0F84400ADF8080040E0DFF89C00DF
:10391000C08EADF80400DFF89400808EADF806008C
:10392000DFF88800C08AADF80A00DFF8800090F860
:1039300021008DF80C00DFF87400C06E0690DFF8EF
:103940006C00808FADF8080021E0DFF86000408F48
:10395000ADF80400DFF85400008FADF80600DFF882
:103960004C00008BADF80A00DFF8400090F8220010
:103970008DF80C00DFF83400406F0690DFF82C0063
:10398000B0F84600ADF8080001E041200BE0DFF898
:10399000CC0400210180DFF8F0040021018000A8A0
:1039A00001F0D6FC00200BB000BD00000401002097
:1039B00000007A44176345112DE9F0470400207C8C
:1039C000F62801DB4020E2E0607C217C884201D2C5
:1039D0004020DCE0DFF8C805060060690700207CB5
:1039E0008046DFF87804002101803500207C0E300D
:1039F0008246DFF8A80590F87F00012862D15FFABF
:103A00008AFABAF17F0F01DB042000E0022010EBFC
:103A10000A0A86F800A0761C09222100300002F074
:103A2000C7FF06F20906607A3070761C042214F192
:103A30000C01300002F0BCFF361D5FFA88F8B8F1C7
:103A4000740F02DB5FF0730900E0C1465FFA89F989
:103A50004A463900300002F0ABFF5FFA89F919EBF2
:103A600006065FFA89F919EB0707B8EB0908310078
:103A7000280002F0A8FFB61C5FFA88F8B8F1000F22
:103A800018D035005FFA88F8B8F17E0F02DB5FF0DE
:103A90007D0900E0C1465FFA89F94A4639003000E5
:103AA00002F086FF5FFA89F919EB0606310028005B
:103AB00002F089FFB01CDFF8E814401ADFF89C130D
:103AC000088063E086F800A0761C092221003000FF
:103AD00002F06EFF06F209063100280002F073FFC3
:103AE000B61C3500607A3070761C042214F10C018B
:103AF000300002F05DFF361D5FFA88F8B8F10C0F58
:103B000002DB5FF00B0900E0C1465FFA89F94A4623
:103B10003900300002F04CFF5FFA89F919EB060614
:103B20005FFA89F919EB0707B8EB0908310028009B
:103B300002F049FFB61C5FFA88F8B8F1000F20D0F8
:103B400035005FFA88F8B8F1110F02DB5FF0100959
:103B500000E0C1465FFA89F94A463900300002F0B8
:103B600027FF5FFA89F919EB06065FFA89F919EB65
:103B70000707B8EB09083100280002F024FFB61C43
:103B8000D9E7DFF81C04301AB44908800020BDE8EA
:103B9000F08770B504000D00FF26DFF8080405600B
:103BA0002000FFF709FF0600C0B2002808D10FF27D
:103BB0001902AA480188DFF8E80302F05FFC06005A
:103BC0003000C0B270BD000010B504002000C0B2CB
:103BD000DFF8D0130968884710BD2DE9F84F0400BD
:103BE000DFF8C403050060690600DFF8B00390F851
:103BF0008000012840F08F805FF0000B0A20070052
:103C0000DFF8440D00883900C9B289B2884201D278
:103C1000452021E1287882466D1C5FFA8AFABAF1C4
:103C2000800F02DB5FF0040B01E05FF0020BBAF1E2
:103C30000E00B0EB0B00207409222900200002F0D6
:103C4000B7FE5FFA8AFABAF10A0F01DA0E2003E131
:103C5000DFF8F40C00885146C9B289B2884201D21B
:103C60000E20F9E0207C81465FFA89F9B9F1740FE2
:103C700002DB5FF0730800E0C84618F10E00070091
:103C8000FFB27919681E02F0B3FE002801D144206A
:103C9000E2E005F20905287860726D1C0422290013
:103CA00014F10C0002F084FE2D1D5FFA88F84246E4
:103CB0002900300002F07CFE5FFA88F818EB060657
:103CC0005FFA88F818EB0505B9EB0809AD1C5FFA37
:103CD00089F9B9F1000F00F0BE805FFA89F9B9F1F6
:103CE0007E0F02DB5FF07D0800E0C84618F102009D
:103CF0000700FFB27819811E280002F079FE002823
:103D000001D14420A8E05FFA88F84246290030003B
:103D100002F04EFE9FE00C200700DFF82C0C00881C
:103D20003900C9B289B2884201D2452094E0FFB27D
:103D30007819811E280002F05BFE002801D1442082
:103D40008AE0287882466D1CBAF10E0020740922A0
:103D50002900200002F02CFE05F20905AD1C5FFAD7
:103D60008AFABAF10A0F01DA0E2075E05FFA8AFAD0
:103D70005FFA8AFA1AF11600102190FBF1F01AEBA3
:103D80004000401CDFF8C01B0988814201DA452051
:103D900062E0207C81465FFA89F9B9F10C0F02DB01
:103DA0005FF00B0800E0C84618F107000700FFB2FB
:103DB0007819811E280002F01BFE002801D1442042
:103DC0004AE0287860726D1C0422290014F10C006E
:103DD00002F0EEFD2D1D5FFA88F842462900300002
:103DE00002F0E6FD5FFA88F818EB06065FFA88F83D
:103DF00018EB0505B9EB0809AD1C5FFA89F9B9F1B3
:103E0000000F28D05FFA89F9B9F1110F02DB5FF0DA
:103E1000100800E0C84618F102000700FFB2781948
:103E2000811E280002F0E4FD002801D1442013E0A7
:103E30005FFA88F842462900300002F0B9FD5FFAC7
:103E400088F818EB06065FFA88F818EB0505B9EB59
:103E50000809AD1CD1E70020BDE8F28F0C17002047
:103E600038B504000D00DFF8E40A05600FF21D020A
:103E7000DFF8DC1A200002F0AFFB002801D100209F
:103E800000E0FF2032BD00000E17002030B589B0E1
:103E900004000D00FF208DF81500DFF8BC0A069025
:103EA000002C74D0002080B2ADB2A84206D280B2FD
:103EB000015D80B23C4A8154401CF4E7DFF8880A77
:103EC000058036480078042835D1DFF87C0A364969
:103ED00009780180ADB2B5F10900102190FBF1F233
:103EE00002FB1102002A08D0ADB2B5F10900102181
:103EF00090FBF1F04000401D07E0ADB2B5F10900C4
:103F0000102190FBF1F04000C01CDFF83C1A09883A
:103F10004018DFF8341A088001A8FFF75EFE002879
:103F20003AD1DFF8240A0188C9B21F48DFF8242AF1
:103F30001268904730E001A8FFF74FFE009002F0B2
:103F4000DEFD143802F000FE5FF0804102F026FE34
:103F500002F0A2FE0022DFF8043A02F0C5FE02F0F1
:103F600037FF07900098002808D1FF208DF8150032
:103F700001A8DFF8D819096888470DE0FF208DF8FF
:103F8000150001A8DFF8C4190968884704E000207B
:103F9000DFF8B8190968884709B030BD040100206E
:103FA00054080020C81600207809002038B5040005
:103FB0000D00E4B2652CC0F2C584E4B29F2C80F2FF
:103FC000C184E4B22000652800F09B80662800F0E0
:103FD000C380672800F00F81682800F06781692896
:103FE00000F072816A2800F07D816B2800F09081DA
:103FF0006C2800F0A3816D2800F0B6816E2800F0D7
:10400000CE816F2800F0F181712800F0F7817228CD
:1040100000F0F881732800F0F981742800F00C8218
:10402000752800F01F82762800F03282772800F091
:104030004A82782800F0DD81792800F05D827A28B4
:1040400000F075827B2800F08D827C2800F0AA8227
:104050007D2800F0C7827E2800F0DF827F2800F0F4
:10406000F782802800F00F83812800F0AE8182283B
:1040700000F0AF81872800F0B081882800F01E830F
:10408000892800F036838A2800F056838B2800F0B8
:1040900071838D2800F08C838E2800F08E838F280A
:1040A00000F08F83902800F09183912800F0938393
:1040B000922800F0A383932800F0B483942800F0A2
:1040C000C583952800F0D683962800F0E7839728CB
:1040D00000F08781982800F0F583992800F0068485
:1040E0009A2800F007849B2800F009849C2800F09F
:1040F0000B849D2800F074839E2800F0168400F045
:104100001DBC2800C0B201280FD02800C0B2022870
:104110000BD02800C0B2032807D02800C0B2042862
:1041200003D02800C0B2FF2814D1DFF8F00B0078CC
:104130002900C9B288420CD0DFF8E00B0570DFF827
:10414000DC0B0178012002F01DFB002801D0422089
:10415000F9E3F5E34220F6E32800C0B2002833D0AB
:104160002800C0B201282FD02800C0B202282BD0CE
:104170002800C0B2032827D02800C0B2042823D0CA
:104180002800C0B205281FD02800C0B207281BD0C5
:104190002800C0B2082817D02800C0B20B2813D0BE
:1041A0002800C0B20C280FD02800C0B20A280BD0BB
:1041B0002800C0B2092807D02800C0B2062803D0C2
:1041C0002800C0B20D2814D1DFF8500B4078290028
:1041D000C9B288420CD0DFF8440B4570DFF83C0BC5
:1041E0004178002002F0CEFA002801D04220AAE354
:1041F000A6E34220A7E32800C0B200283FD0280051
:10420000C0B201283BD02800C0B2022837D0280015
:10421000C0B2032833D02800C0B204282FD0280011
:10422000C0B205282BD02800C0B2062827D028000D
:10423000C0B2072823D02800C0B208281FD0280009
:10424000C0B209281BD02800C0B2002817D028000F
:10425000C0B2012813D02800C0B202280FD0280015
:10426000C0B203280BD02800C0B2042807D0280011
:10427000C0B2052803D02800C0B2062814D1DFF848
:104280009C0A80782900C9B288420CD0DFF88C0AD9
:104290008570DFF8880A8178022002F073FA00281E
:1042A00001D042204FE34BE342204CE3DFF86C0A9D
:1042B0004560DFF8680A4168082002F063FA0028C8
:1042C00001D042203FE33BE3DFF8500A8560DFF88E
:1042D0004C0A8168092002F055FA002801D04220DA
:1042E00031E32DE3DFF8340A407800280FD1DFF8FE
:1042F0002C0A8089290089B2884208D0DFF81C0A7C
:104300008581DFF8180A8189062002F03BFA17E35D
:10431000DFF8080A407801280FD1DFF8000AC089C9
:10432000290089B2884208D0DFF8F009C581DFF89A
:10433000EC09C189062002F025FA01E3DFF8DC0967
:10434000407802280FD1DFF8D409008A290089B209
:10435000884208D0DFF8C4090582DFF8C009018A65
:10436000062002F00FFAEBE2DFF8B00940780328EC
:1043700004D0DFF8A809407804280FD1DFF89C09A1
:10438000408A290089B2884208D0DFF89009458226
:10439000DFF88809418A062002F0F4F9D0E2DFF85C
:1043A0007C09407805280FD1DFF87009808A290040
:1043B00089B2884208D0DFF864098582DFF85C0999
:1043C000818A062002F0DEF9BAE2DFF85009C586DC
:1043D000B6E2DFF848098586B2E2DFF84009858752
:1043E000AEE2DFF83809C566AAE2DFF83009C58217
:1043F000A6E2DFF8280980F82150A1E2DFF81C09C5
:1044000085769DE2DFF81409C57699E2DFF80C099C
:10441000407800280FD1DFF80409007F2900C9B2D5
:10442000884208D0DFF8F4080577DFF8F008017F4C
:10443000072002F0A7F983E2DFF8E00840780128BE
:104440000FD1DFF8D808407F2900C9B2884208D0D0
:10445000DFF8C8084577DFF8C408417F072002F07D
:1044600091F96DE2DFF8B408407802280FD1DFF847
:10447000AC08807F2900C9B2884208D0DFF89C08C8
:104480008577DFF89808817F072002F07BF957E2F3
:10449000DFF888084078032804D0DFF880084078E7
:1044A00004280FD1DFF87408C07F2900C9B2884200
:1044B00008D0DFF86808C577DFF86008C17F0720FB
:1044C00002F060F93CE2DFF854084078052812D188
:1044D000DFF8480890F820002900C9B288420AD0C5
:1044E000DFF8380880F82050DFF8300890F8201006
:1044F000072002F047F923E2DFF82008407803287C
:1045000004D0DFF81808407804280FD1DFF80C0831
:10451000C08C290089B2884208D0DFF80008C58421
:10452000DFF8F807C18C032002F02CF908E2DFF86D
:10453000EC074078032804D0DFF8E007407804282F
:104540000FD1DFF8D807808C290089B2884208D0C3
:10455000DFF8C8078584DFF8C407818C042002F0E7
:1045600011F9EDE1DFF8B4074078002809D0DFF851
:10457000AC074078012804D0DFF8A0074078022873
:104580000FD1DFF89807408D290089B2884208D002
:10459000DFF888074585DFF88407418D032002F0A6
:1045A000F1F8CDE1DFF874074078002809D0DFF892
:1045B0006C074078012804D0DFF8600740780228B3
:1045C0000FD1DFF85807008D290089B2884208D042
:1045D000DFF848070585DFF84407018D042002F065
:1045E000D1F8ADE1DFF834074078052814D1DFF8C1
:1045F0002C07007802280FD0DFF82007C08D290093
:1046000089B2884208D0DFF81407C585DFF80C07A7
:10461000C18D032002F0B6F892E1DFF80007407880
:10462000052814D1DFF8F406007802280FD0DFF84F
:10463000EC06808D290089B2884208D0DFF8DC06BC
:104640008585DFF8D806818D042002F09BF877E19C
:10465000DFF8C8064078052814D1DFF8C0060078D6
:1046600002280FD1DFF8B406408E290089B28842B3
:1046700008D0DFF8A8064586DFF8A006418E0320A3
:1046800002F080F85CE1DFF894064078052814D148
:10469000DFF88806007802280FD1DFF88006008E48
:1046A000290089B2884208D0DFF870060586DFF855
:1046B0006C06018E042002F065F841E1DFF85C062B
:1046C0004078032804D0DFF85406407804280FD13E
:1046D000DFF84806C08F290089B2884208D0DFF889
:1046E0003C06C587DFF83406C18F052002F04AF882
:1046F00026E1DFF828064078002809D0DFF81C06FC
:104700004078012804D0DFF814064078022812D13E
:10471000DFF80806B0F84000290089B288420AD0C4
:10472000DFF8F805A0F84050DFF8F005B0F84010C9
:10473000052002F027F803E1DFF8E00540780528BE
:1047400017D1DFF8D8050078022812D0DFF8CC05A1
:10475000B0F84200290089B288420AD0DFF8BC05CF
:10476000A0F84250DFF8B405B0F84210052002F07E
:1047700009F8E5E0DFF8A4054078052817D1DFF84F
:104780009C050078022812D1DFF89005B0F84400AB
:10479000290089B288420AD0DFF88005A0F8445089
:1047A000DFF87805B0F84410052001F0EBFFC7E012
:1047B000DFF8680580F84850C2E0DFF86005C5649E
:1047C000BEE0DFF85805A0F85050B9E0DFF84C051E
:1047D00080F85250B4E0DFF8440580F85350AFE061
:1047E000012D01D1012000E00020DFF8301581F813
:1047F0007F0029000E2001F0C5FFA1E0DFF81C05B5
:10480000407800280DD1DFF81405806DA84208D04B
:10481000DFF808058565DFF80405816D0A2001F0E1
:10482000B1FF8DE0DFF8F404407801280DD1DFF806
:10483000EC04C06DA84208D0DFF8E004C565DFF8DD
:10484000DC04C16D0A2001F09DFF79E0DFF8CC04A3
:10485000407802280DD1DFF8C404006EA84208D0C9
:10486000DFF8B8040566DFF8B404016E0A2001F031
:1048700089FF65E0DFF8A404407803280DD1DFF854
:104880009C04406EA84208D0DFF890044566DFF82B
:104890008C04416E0A2001F075FF51E0DFF87C04C2
:1048A000407804280DD1DFF87404806EA84208D047
:1048B000DFF868048566DFF86404816E0A2001F081
:1048C00061FF3DE0DFF85404407805280DD1DFF8A2
:1048D0004C04006FA84208D0DFF840040567DFF8F9
:1048E0003C04016F0A2001F04DFF29E0DFF82C04A1
:1048F000856725E0DFF8240480F87C5020E0DFF8AD
:104900001C0480F87D501BE0002D01D0012000E048
:104910000020DFF8081481F87E00DFF8000490F82A
:104920007E100C2001F02EFF0AE0DFF8F003C0F843
:10493000845029000F2001F025FF01E0412002E012
:10494000002000E0412032BD0E170020C0160020DC
:10495000214D0008C4160020B00E002000005EC0EB
:1049600038B504000D00E4B2652CC0F2D481E4B285
:104970009F2C80F2D081E4B22000652800F09A805C
:10498000662800F0B780672800F0B980682800F03A
:10499000BB80692800F0C2806A2800F0C9806B28BB
:1049A00000F0CB806C2800F0CD806D2800F0CF8027
:1049B0006E2800F0D1806F2800F03381712800F05C
:1049C000D080722800F0D280732800F0D480742840
:1049D00000F0D680752800F0D880762800F0DA80C4
:1049E000772800F0DC80782800F02081792800F01A
:1049F000DC807A2800F0DE807B2800F0E0807C28D4
:104A000000F0E2807D2800F0E4807E2800F0E6805F
:104A10007F2800F0E880802800F0EA80812800F0FC
:104A2000EC80822800F0EE80872800F0F080882853
:104A300000F00281892800F004818A2800F00781B3
:104A40008B2800F00A818D2800F00D818E2800F05F
:104A500010818F2800F01281902800F01481912895
:104A600000F01681922800F01881932800F0198137
:104A7000942800F01A81952800F01B81962800F0F8
:104A80001C81972800F0C880982800F01A81992886
:104A900000F01B819A2800F01C819B2800F01E81E9
:104AA0009C2800F020819D2800F022819E2800F0A3
:104AB00029812CE1DFF810050078012813D0DFF8F8
:104AC0000805007802280ED0DFF8FC0400780328DF
:104AD00009D0DFF8F4040078042804D0DFF8E804F3
:104AE0000078FF2804D1DFF8E0040078286010E1A6
:104AF000422011E1DFF8D0044078286009E1DFF8B6
:104B0000C8048078286004E1DFF8C014082001F0B0
:104B1000C7FDDFF8B40440682860FAE0DFF8B0149D
:104B2000092001F0BDFDDFF8A00480682860F0E0F6
:104B3000DFF8940480892860EBE0DFF88C04C089FA
:104B40002860E6E0DFF88004008A2860E1E0DFF812
:104B50007804408A2860DCE0DFF86C04808A2860F2
:104B6000D7E0DFF86404807E2860D2E0DFF85804E4
:104B7000C07E2860CDE0DFF85004007F2860C8E0E8
:104B8000DFF84404407F2860C3E0DFF83C04807F06
:104B90002860BEE0DFF83004C07F2860B9E0DFF8AD
:104BA000280490F820002860B3E0DFF81C04C08CD3
:104BB0002860AEE0DFF81004808C2860A9E0DFF800
:104BC0000804408D2860A4E0DFF8FC03008D286015
:104BD0009FE0DFF8F403C08D28609AE0DFF8E80377
:104BE000808D286095E0DFF8E003408E286090E03B
:104BF000DFF8D403008E28608BE0DFF8CC03C08E92
:104C0000286086E0DFF8C003808E286081E0DFF84E
:104C1000B803808F28607CE0DFF8AC03C06E2860AA
:104C200077E0DFF8A403C08A286072E0DFF8980319
:104C300090F8210028606CE0DFF88C03C08F2860BA
:104C400067E0DFF88403B0F84000286061E0DFF837
:104C50007803B0F8420028605BE0DFF86C03B0F83E
:104C60004400286055E0DFF8600390F848002860B1
:104C70004FE0DFF85403C06C28604AE0D248B0F837
:104C80005000286045E0D04890F85200286040E08D
:104C9000CD4890F8530028603BE0CB48806D2860F9
:104CA00037E0C948C06D286033E0C748006E28600F
:104CB0002FE0C548406E28602BE0C348806E286016
:104CC00027E0C148006F286023E0BF48806F28605C
:104CD0001FE0BD4890F87C0028601AE0BA4890F8C0
:104CE0007D00286015E0B84890F87E00286010E04C
:104CF000B54890F87F00012801D1012000E0002094
:104D0000286006E0B048D0F88400286001E0412027
:104D100002E0002000E0412032BD0000040100203C
:104D20002DE9F14F0C00150000980600A9484069D4
:104D30000700A54890F88000012840F084800A20F0
:104D400080464046C0B2A4B280B28442C0F03681F0
:104D500030788346761C9F48BBF11001017409220C
:104D600031009C4801F024FE5FFA8BFBBBF10A0F77
:104D7000C0F224815846C0B2A4B280B28442C0F0CE
:104D80001D819448007C82465FFA8AFABAF1740F5A
:104D900002DB5FF0730900E0D14619F1080080469C
:104DA0005FFA88F818EB0601701E01F021FE00285A
:104DB00000F0048106F20906864831784172761CBB
:104DC00004223100844801F0F3FD361D5FFA89F9B1
:104DD0004A463100380001F0EBFD5FFA89F919EB22
:104DE00007075FFA89F919EB0606BAEB090AB61C40
:104DF0005FFA8AFABAF1000F22D05FFA8AFABAF1A2
:104E00007E0F02DB5FF07D0900E0D14619F1020060
:104E100080465FFA88F818EB0600811E300001F02A
:104E2000E7FD002800F0CA805FFA89F94A463100A0
:104E3000380001F0BDFD6748007C801E654908749C
:104E400000202870BAE0604890F88000002840F008
:104E5000B5800C2080464046C0B2A4B280B28442E5
:104E600002D245202870A9E05FFA88F818EB060006
:104E7000811E300001F0BCFD002802D144202870C2
:104E80009CE04046C0B2A4B280B2844202D100206D
:104E9000287093E030788346761C4E48BBF10E01B3
:104EA0000174092231004B4801F082FD06F2090627
:104EB000B61C5FFA8BFBBBF10A0F02DA45202870A3
:104EC0007CE05FFA8BFB5FFA8BFB1BF11600102175
:104ED00090FBF1F01BEB4000401CA4B2844202DACC
:104EE000452028706AE03B48007C82465FFA8AFAD7
:104EF000BAF10C0F02DB5FF00B0900E0D14619F1AB
:104F0000070080465FFA88F818EB0600811E300023
:104F100001F06EFD002802D1442028704EE02D489B
:104F200031784172761C042231002B4801F040FD9B
:104F3000361D5FFA89F94A463100380001F038FD24
:104F40005FFA89F919EB07075FFA89F919EB060689
:104F5000BAEB090AB61C5FFA8AFABAF1000F2BD035
:104F60005FFA8AFABAF1110F02DB5FF0100900E074
:104F7000D14619F1020080465FFA88F818EB060066
:104F8000811E300001F034FD002802D14420287039
:104F900014E05FFA89F94A463100380001F008FD53
:104FA0005FFA89F919EB07075FFA89F919EB060629
:104FB000BAEB090AB61CCEE700202870BDE8F18FD5
:104FC000014981F880007047040100200801002099
:104FD0000C010020081500201415002010B5040055
:104FE000E4B21120DFF8081A00FB041204210820A3
:104FF00002F0CDF8E4B21120DFF8F41900FB041040
:10500000021D04211A2002F0C2F8E4B21120DFF8D8
:10501000E01900FB041010F1080203213B2002F00C
:10502000B6F8E4B21120DFF8C81900FB041010F143
:105030000B0201210C2002F0AAF8E4B21120DFF8E3
:10504000B01900FB041010F10C0201216C2002F0D9
:105050009EF8E4B21120DFF8981900FB041010F15B
:105060000D020221532002F092F8E4B21120DFF881
:10507000801900FB041010F10F0202216E2002F0D3
:1050800086F8DFF87009047010BD80B5DFF8680994
:10509000DFF8681901601C220021DFF8640902F0C2
:1050A0007FFA03220021DFF85C0902F079FADFF8C9
:1050B0005809DFF858190160DFF8540964210160CC
:1050C00001BD10B50400DFF82C090078E4B2A0425D
:1050D00000F0DE800422E4B260421121DFF81039D2
:1050E00001FB003010F11101E4B21120DFF80039AA
:1050F00000FB043002F060FA002809D0E4B211206D
:10510000DFF8EC1800FB04120421082001F0AAFFCC
:105110000422E4B260421121DFF8D43801FB0030F0
:1051200010F11501E4B21120DFF8C43800FB04309F
:10513000001D02F041FA00280AD0E4B21120DFF885
:10514000B01800FB0410021D04211A2001F08AFF90
:105150000322E4B260421121DFF8943801FB0030F1
:1051600010F11901E4B21120DFF8843800FB04309B
:10517000083002F021FA00280BD0E4B21120DFF849
:10518000701800FB041010F1080203213B2001F00D
:1051900069FFE4B21120DFF8581800FB0410C07A50
:1051A000E4B261421122DFF8483802FB0131097F85
:1051B00088420BD0E4B21120DFF8341800FB041051
:1051C00010F10B0201210C2001F04CFFE4B2112080
:1051D000DFF81C1800FB0410007BE4B261421122CE
:1051E000DFF80C3802FB0131497F88420BD0E4B272
:1051F0001120DFF8FC1700FB041010F10C02012154
:105200006C2001F02FFF0222E4B260421121DFF88E
:10521000E03701FB003010F11E01E4B21120DFF88D
:10522000D03700FB04300D3002F0C6F900280BD057
:10523000E4B21120DFF8B81700FB041010F10D02E2
:105240000221532001F00EFF0222E4B2604211213C
:10525000DFF89C3701FB003010F12001E4B211208F
:10526000DFF88C3700FB04300F3002F0A5F900287E
:105270000BD0E4B21120DFF8781700FB041010F116
:105280000F0202216E2001F0EDFEDFF868070470C6
:1052900010BD80B5DFF8840D0078042809D0DFF850
:1052A0007C0D0078052804D0DFF8700D00780C28FC
:1052B0001DD1DFF8680D90F82000D0F10100DFF873
:1052C0005C1D81F8200000F0DDFB002805D0DFF830
:1052D0004C0D90F82000FFF781FEDFF8400D90F8AC
:1052E0002000D0F10100DFF8341D81F8200000F02B
:1052F000C9FB002805D0DFF8240D90F82000FFF747
:105300006DFEDFF8180D0078042820D0DFF80C0DB2
:10531000007805281BD0DFF8040D00780C2816D083
:10532000DFF8F80C90F8200040421121DFF8C02689
:1053300001FB00201130DFF8E41C91F8201011224D
:10534000DFF8AC3602FB0131112202F067F901BD32
:1053500010B5040002F061FA702002F093FA02F036
:105360000FFD607801280BD06078022808D06078A3
:10537000032805D06078042802D06078FF2877D110
:105380002078002826D02078012823D020780228F1
:1053900020D0207803281DD0207804281AD0207827
:1053A000052817D02078072814D02078082811D095
:1053B00020780B280ED020780C280BD020780A28D3
:1053C00008D02078092805D02078062802D0207837
:1053D0000D284DD1DFF8440C21780170DFF83C0C2A
:1053E00061784170DFF8340CA1788170DFF82C0C03
:1053F000A1888180DFF8240CE188C180DFF81C0CD3
:1054000061894181DFF8140C217B0173DFF80C0CFA
:1054100021690161DFF8040C61694161DFF8FC0B6F
:10542000A1698161DFF8F40BE169C161DFF8EC0B80
:1054300094F8221080F82210DFF8E00B94F8201086
:1054400080F82010FFF721FEFFF723FF012003F073
:1054500019FC062003F0B1FD002001F02EFB012015
:1054600001F002FBDFF8200D01210170002000E0B7
:10547000032010BDF0B583B0DFF8100D00780028D0
:1054800005D0022800F0F080C0F0408176E1DFF81E
:10549000080D90F82260DFF8000D00780B2804D08A
:1054A000DFF8F40C00780C281ED100A9012001F0CF
:1054B000DBFF9DF80000CD2802D10020060013E09C
:1054C0009DF800003D2802D1012006000CE003F009
:1054D00020FE00214FF4007003F0C2FD672002F0AF
:1054E000D1F900F000FA49E1F6B23000FFF768FDAB
:1054F000DFF89C1C0C2001F0B7FFDFF8980C0C21A2
:105500000180DFF88C0C0778FFB20A2F0CDA03F069
:1055100000FE00214FF4007003F0A2FD672002F0AE
:10552000B1F900F0E0F929E1F6B2002E67D1FFB23F
:10553000380001F013FB01F0AFFB0022DFF85C3C08
:1055400001F0D2FB0022DFF8583C03F0F1FD04002B
:105550000D00FFB2380001F001FB01F09DFB0022BD
:10556000DFF8383C01F0C0FB0022DFF8343C03F0E8
:10557000DFFD03F001FF80B203F034FF02000B00F7
:105580002000290003F03CFF0022002303F0F8FF75
:1055900018D2FFB2380001F0E1FA01F07DFB0022E1
:1055A000DFF8F83B01F0A0FB0022DFF8F43B03F04A
:1055B000BFFD0022DFF8EC3B01F096FB03F0DCFEC0
:1055C00080B212E0FFB2380001F0C8FA01F064FBCB
:1055D0000022DFF8C83B01F087FB0022DFF8C03B68
:1055E00003F0A6FD03F0C8FE80B2FFB280B217EB55
:1055F0004000C01CDFF8981BA1F8400108E0F6B29B
:10560000012E05D1FFB2781CDFF8841BA1F8400100
:10561000DFF87C0BB0F84001DFF8781B0988401AEE
:10562000DFF8841B0880DFF8800B00885F2808DB28
:10563000DFF8780B30210170DFF8500B0121017089
:1056400009E0DFF8680BDFF8601B09880170DFF8FC
:105650003C0B02210170DFF8540B0078D0F16000A0
:10566000C0B203F0B6FF89E0672002F00BF9002119
:105670004FF4007003F0F4FCDFF8180B0088DFF83B
:10568000101B4118DFF8200B0088C0B201F0ECFEBF
:10569000DFF8FC0AB0F84001DFF8F81A0988401A70
:1056A000DFF8041B0988401ADFF8FC1A0880712013
:1056B00002F0E8F8542003F08CFFDFF8D00A002154
:1056C0000170DFF8EC0A0078012807D1002000F013
:1056D000B3FFDFF8DC0A0021017016E00DF10102D2
:1056E000DFF8AC0AB0F84011DFF8A40ADFF8C43ADA
:1056F0001B6898479DF80100FF2802D100F0F3F8DD
:1057000003E0DFF8B40A0121017037E0DFF8AC0AEA
:105710002F210170DFF87C0A0088DFF8741A411825
:10572000DFF8980A007801F09FFEDFF8680A008829
:10573000DFF8881A09780818DFF8581A0880DFF8A7
:10574000500AB0F84001DFF84C1A0988401ADFF817
:10575000581A0880DFF8500A00885A280BDADFF858
:10576000480A0088D0F16000C0B203F032FFDFF8D1
:105770001C0A0221017001A803F0AFFCF7BD10B5AF
:1057800082B000A803F0A9FC9DF80000C0F38000DF
:10579000C0B2002813D0DFF8280A01210170DFF819
:1057A000240A0078012840F09D800020DFF8181AB4
:1057B00009688847DFF80C0A0021017092E09DF823
:1057C000010010F00100002854D000214FF4807037
:1057D00003F046FC602003F00DFF03F0E9FE040037
:1057E000DFF8E809B0F84201E4B2201861282BDBA9
:1057F000DFF8D809B0F84001DFF8D0194118D4F12A
:105800005F00C0B201F0B3FD302003F0F3FEDFF81B
:10581000BC09B0F84201E4B2B4F15F010818DFF846
:10582000AC19A1F84201DFF8A409B0F840015F30DB
:10583000E4B2001BDFF89419A1F8400101214FF4F4
:10584000807003F00DFC12E0DFF88009B0F8400131
:10585000DFF878194118DFF87409B0F84201C0B2D6
:1058600001F085FDDFF864090021A0F8421103F082
:10587000E5FE37E09DF80100C0F34000C0B200280B
:1058800002D0FFF7F7FD2DE09DF80000C0F3801077
:10589000C0B200280CD003F03CFC00214FF4007093
:1058A00003F0DEFB672001F0EDFF00F01CF819E0CB
:1058B0009DF80300C0F34010C0B2002812D0712040
:1058C00001F0E0FFDFF8E8080078012806D1DFF8F2
:1058D000E00800210170022000F0AEFEDFF8940B1A
:1058E0000121017013BD10B5DFF8C0080C21017053
:1058F000DFF898080021017003F0DBFE04002000AF
:1059000001F02CF9DFF89018C96903F003FF0BD8F8
:10591000DFF8600B01210170DFF8940800210170AD
:10592000022000F089FE1FE0712001F0ABFF200093
:1059300001F014F90100DFF86008C06903F0FCFE13
:1059400003F042FA542003F044FE01214FF40070AA
:1059500003F086FB01215FF0005003F081FB04F0AF
:105960001AF9612001F08EFF10BD10B50400DFF8B8
:1059700028084078012815D0DFF81C084078022854
:1059800010D0DFF81408407803280BD0DFF808089F
:105990004078042806D0DFF800084078FF2801D0BE
:1059A000032024E0DFF8F00790F82000FFF789FBE0
:1059B000DFF8E407007807280ED0DFF8DC0700786E
:1059C000082809D0DFF8D00700780B2804D0DFF8CA
:1059D000C80700780C2809D1E4B2012C03D10420B7
:1059E00004F01CF902E0002004F018F9002010BDBA
:1059F000A814002049170020D41600200000C8C2B7
:105A000040150020D8160020DC16002000007AC4C3
:105A1000E01600200200107B0B7B98421DD190699C
:105A20008B69984219D110690B69984215D1506958
:105A30004B69984211D150684B6898420DD19068DB
:105A40008B68984209D1B2F90000B1F90030984250
:105A500003D1507B4B7B984201D0012000E0002015
:105A60007047020090788B78984207D150784B7835
:105A7000984203D110780B78984201D0012000E0C1
:105A80000020704710B590B0DFF8900540780128ED
:105A900015D0DFF888054078022810D0DFF87C05A3
:105AA000407803280BD0DFF874054078042806D02E
:105AB000DFF868054078FF2801D0002062E3002469
:105AC0000020ADF80400DFF854050078002820D04D
:105AD000012856D0022800F08B80032800F00481B2
:105AE000042800F03381052800F09A81072800F08F
:105AF000D981082800F0D681092800F0A7820A2859
:105B000000F0A6820B2800F05E820C2800F0718263
:105B1000A0E200208DF81100DFF8780B0290DFF88A
:105B2000780B039000208DF810004FF40040059092
:105B30004CF250300690DFF8640B079000208DF88F
:105B40000000DFF8D8044089B0F5907F04DBDFF86F
:105B5000CC044089173800E041208DF80100DFF8BF
:105B6000BC04007B022808DBDFF8B004007B0928B6
:105B700003DADFF8A804007B00E004208DF80200BF
:105B800068E200208DF81100DFF8080B0290DFF8C2
:105B9000080B039000208DF810004FF40040059092
:105BA0004CF250300690DFF8F40A079002208DF88E
:105BB0000000DFF868044089182804DBDFF85C0483
:105BC00040890F3800E01E208DF80100DFF84C04FA
:105BD000007B022808DBDFF84404007B092803DA95
:105BE000DFF83804007B00E008208DF8020031E285
:105BF00000208DF81100DFF824044089B0F58B7F78
:105C00003ADDDFF8900A0290DFF88C0A039000205A
:105C10008DF810004FF4004005904CF25030069083
:105C2000DFF8780A079000208DF80000DFF8EC0319
:105C30004089B0F58B7F01DC412003E0DFF8DC0315
:105C4000408917388DF80100DFF8D003007B002869
:105C500004D0DFF8C803007B092801DB012000E045
:105C60000020C0B2002801D0082002E0DFF8AC0319
:105C7000007B8DF8020036E0DFF8180A0290DFF8AA
:105C8000180A039000208DF810004FF40040059092
:105C90004CF250300690DFF8040A0790DFF87C03DE
:105CA00040890F388DF8010002208DF80000DFF8E0
:105CB0006C034089182804DBDFF8600340890F3843
:105CC00000E01E208DF80100DFF85003007B022861
:105CD00006DBD248007B092802DAD048007B00E0CE
:105CE00008208DF80200B5E100208DF81100DFF8E2
:105CF0008C0A0290DFF8A009039000208DF81000B4
:105D0000DFF8940905904CF250300690DFF8700AE5
:105D1000079006208DF80000C0484089182803DB52
:105D2000BE484089133800E01A208DF80100BB48B6
:105D3000007B022806DBB948007B092802DAB74855
:105D4000007B00E004208DF8020083E100208DF844
:105D50001100B248012180F82110B04890F82000CD
:105D600000282ED0DFF82C090290DFF82C090390D0
:105D700000208DF810004FF4004005904CF2503098
:105D80000690DFF81809079002208DF80000A3485C
:105D90004089182803DBA14840890F3800E01E2005
:105DA0008DF801009D48007B022806DB9B48007BA4
:105DB000092802DA9948007B00E004208DF80200EF
:105DC0002DE0DFF8B8090290DFF8CC08039000203E
:105DD0008DF81000DFF8C00805904CF250300690A6
:105DE000DFF89C09079006208DF800008B48408959
:105DF000182803DB89484089133800E01A208DF801
:105E000001008648007B022806DB8448007B0928C5
:105E100002DA8248007B00E004208DF8020019E1DC
:105E20007E4890F82000002809D042F210700390BC
:105E300000208DF81000DFF85C08029009E042F2C3
:105E400010700390754880788DF81000DFF8F80A1C
:105E5000029000208DF811004FF49650059041F209
:105E60007070069044F62060079002208DF80000C4
:105E70006A484089302803DB68484089273800E0B9
:105E800039208DF801006548007B022806DB634855
:105E9000007B092802DA6148007B00E008208DF8C9
:105EA0000200D7E05D488078002808D0022832D070
:105EB0001BD304285BD044D305286ED082E0502049
:105EC0008DF81100DFF8840A029043F2D4000390A9
:105ED00000208DF810004FF4966006904FF4FA50B1
:105EE00007904FF4965005906CE050208DF811000B
:105EF000DFF8580A029043F2D400039001208DF895
:105F000010004FF4966006904FF4FA5007904FF44B
:105F10009650059056E050208DF81100DFF82C0ABD
:105F2000029043F2D400039002208DF810004FF449
:105F3000166006904FF4FA5007904FF416600590E3
:105F400040E050208DF81100DFF8000A029043F283
:105F5000D400039003208DF810004FF416600690D3
:105F60004FF4FA5007904FF4166005902AE0502045
:105F70008DF81100DFF8D409029043F2D4000390A9
:105F800004208DF810004FF4966006904FF4FA50FC
:105F900007904FF49650059014E050208DF81100B2
:105FA000DFF8A809029043F2D400039005208DF891
:105FB00010004FF4966006904FF4FA5007904FF49B
:105FC0009650059046E000208DF81100DFF8AC07F0
:105FD00002904AF6C8700690DFF8BC060590DFF81C
:105FE0007009079044F62060039000208DF810009F
:105FF00030E00A4890F82000002811D050208DF899
:106000001100DFF85009029046F2A81006904CF2F9
:1060100050300590DFF84009079010E0740200202E
:1060200000208DF81100DFF8540702904AF6C8707E
:106030000690DFF864060590DFF81409079044F62F
:106040002060039000208DF8100003E0002099E00C
:10605000002097E002985049496A0818029001A967
:10606000DFF8F808FFF7D6FC002809D001A801F0F6
:1060700007FFDFF8E80801A91C2201F0DFFA641C21
:106080004548006900F060FDDFF8D418096803F0A6
:10609000E5FD11D04048006900F056FD01000020E8
:1060A00002F04CFD3C48006900F04EFDDFF8B018EE
:1060B0000860002002F082FD37484069DFF8A4182C
:1060C0000968884209D03448406900F027FD324809
:1060D0004069DFF890180860641C2F48C069DFF839
:1060E0008818096803F0BAFD09D02B48C06902F08E
:1060F0006BFE2948C069DFF870180860641C2648E8
:106100000078072803D02448007808280ED10CA86E
:10611000DFF85818102201F091FA0CA803F0ACFD3A
:1061200040F6FF7003F06DFE641C29E01A48007809
:106130000B2803D0184800780C280ED108A8DFF8E7
:106140003018102201F07AFA08A803F095FD40F605
:10615000FF7003F056FE641C12E0DFF8181800A868
:10616000FFF77FFC00280BD000A803F06FFE40F67D
:10617000FF7003F0E0FEDFF8FC0700990160641C8B
:106180002000C0B210B010BD4A1700204C170020EC
:10619000100700201217002074020020000022C007
:1061A000000030400000F03F101700204B17002087
:1061B00046170020E8160020441700204D17002045
:1061C0004317002047170020EC160020CC050020C4
:1061D0007CB5040001F050FB0500EDB2002D01D1AB
:1061E00003F02CFAE4B2002C12D0022C00F0B180A3
:1061F0002ED3042C00F0198180F03981EDB2002DEE
:1062000001D101F003FBDFF87407002101702EE1DA
:10621000EDB2012D04D101F000FB01F0B1FD16E05B
:10622000DFF854070078C0B24008C0B2402803D15C
:10623000622001F027FB0AE0DFF83C070078C0B2DB
:106240004008C0B2332802D1672001F01BFB0EE1E9
:10625000EDB2012D04D101F0E0FA01F091FD16E05C
:10626000DFF814070078C0B24008C0B2402803D15C
:10627000622001F007FB0AE0DFF8FC060078C0B2FC
:106280004008C0B2332802D1672001F0FBFADFF8E2
:10629000F006002101700120FFF767FBDFF8E4063C
:1062A0000078072814D0DFF8DC06007808280FD023
:1062B000DFF8D00600780B280AD0DFF8C80600788F
:1062C0000C2805D0DFF8C006B0F8400103F033FE1B
:1062D000722001F0D7FA02F01CFF002601969DF80B
:1062E000040050F004008DF8040001A802F09CFEA8
:1062F000DFF89406B0F8400161281BDB302003F082
:1063000079F901214FF4807002F0AAFEDFF87816C7
:10631000602001F02CF8DFF87006B0F8400160381A
:10632000DFF86416A1F84201DFF85C066021A0F8EE
:10633000401108E0DFF85016DFF84C06B0F84001D5
:10634000C0B201F014F803F0F8FB602001F09AFAF3
:106350008DE0EDB2012D04D101F05FFA01F010FDE6
:1063600016E0DFF814060078C0B24008C0B240283A
:1063700003D1622001F086FA0AE0DFF8FC0500781C
:10638000C0B24008C0B2332802D1672001F07AFAC7
:10639000394800210170DFF8F4050021017035480B
:1063A000002101700020FFF7E0FA4FF6F07003F0D3
:1063B000C2FD542003F00DF9712001F063FA0026AC
:1063C00000969DF8010050F002008DF801009DF844
:1063D000030050F020008DF803009DF8000050F0FD
:1063E00040008DF80000012000F03EFB022002F08A
:1063F000E4FD00A802F018FE02F08BFEDFF8900525
:106400000C210170DFF88C050078012807D1DFF836
:10641000840500210170DFF880050121017003F07F
:10642000BAFB612001F02EFA21E0EDB2012D04D17A
:1064300001F0F3F901F0A4FC16E0DFF83C05007868
:10644000C0B24008C0B2402803D1622001F01AFA5D
:106450000AE0DFF824050078C0B24008C0B2332853
:1064600002D1672001F00EFA632001F00BFA002040
:1064700076BD0000451700204C170020F8B5040039
:106480000D0016000027DFF814050660DFF8F4049D
:106490000078072804D0DFF8EC040078082829D118
:1064A000BFB2022F06DABFB2DFF8DC04552139543F
:1064B0007F1CF5E7BFB2DFF8D004F62139547F1C0A
:1064C000BFB2DFF8C4048D2139547F1C7819DFF87E
:1064D000B814A1F84001DFF8B004B0F84001BFB231
:1064E00087426CD2BFB2DFF8A00421783954641C13
:1064F0007F1CF0E7DFF88C0400780B2804D0DFF86D
:10650000840400780C2848D1BFB2042F06DABFB249
:10651000DFF87404552139547F1CF5E7BFB2DFF86A
:106520006804542139547F1CBFB2DFF85C043D215C
:1065300039547F1CBFB2DFF85004542139547F1CFA
:10654000DFF8400490F82200002806D1BFB2DFF83F
:106550003804CD2139547F1C0BE0DFF8280490F873
:106560002200012805D1BFB2DFF81C043D213954B7
:106570007F1C7819DFF81014A1F84001DFF8080437
:10658000B0F84001BFB2874219D2BFB2DFF8F803BA
:1065900021783954641C7F1CF0E700200700BFB24B
:1065A000ADB2AF4207D2BFB2DFF8DC032178395475
:1065B000641C7F1CF3E7DFF8D003A0F84051DFF83C
:1065C000E003012101700120FFF702FE002801D144
:1065D000002000E00B20F2BDF8B504000D0016000D
:1065E000002700200700FFB2FF2F06D0FFB2DFF820
:1065F0009803002139547F1CF5E7DFF8A8030560F4
:10660000002C03D0200000F0A9FA02E0DFF87403A8
:10661000C069DFF87013C861DFF88C030660DFF82B
:106620007403012101700220FFF7D2FD002801D17F
:10663000002000E00F20F2BD10B50400E4B2002CF1
:1066400003D0022C10D01AD31EE0DFF86003B0F89C
:106650004011DFF85803DFF8502312689047DFF845
:1066600030033021017013E000210020DFF83823CF
:1066700012689047DFF818033021017008E0DFF856
:1066800010033021017003E0DFF8040330210170B2
:1066900010BD0000E034C133A0860100F0490200C3
:1066A00030B504000D00E4B2200000281CD0012801
:1066B0001ED0022820D0032822D0042824D0052868
:1066C00026D0062828D007282AD0082836D009281E
:1066D00038D00A2828D00B282AD00C2836D00E28EB
:1066E00039D00F2841D044E0A6480078286042E025
:1066F000A448407828603EE0A248807828603AE0CC
:10670000A0488088286036E09E48C088286032E033
:106710009C48008928602EE09A48408928602AE039
:106720009848007B286026E096488069286022E02F
:106730009448C06903F016FC28601CE09148006989
:10674000286018E08F484069286014E08D4890F870
:10675000200028600FE08B4890F82200012801D12A
:10676000012000E00020286005E08648406A28609B
:1067700001E00F2000E0002030BD0000F01FCB330F
:1067800090D0030038B504000D00E4B220000028CA
:1067900020D0012834D0022839D0032844D004283E
:1067A0004BD0052852D0062859D0072864D0082895
:1067B00000F0A080092800F0A9800A2869D00B28E1
:1067C0006ED00C287CD00E2800F087800F2800F0B7
:1067D000AA80B5E06B48012180F821106948057056
:1067E0006848002181706748002141816548002187
:1067F000017362480078002801D0FEF74AFDA1E04D
:106800006048012180F821105E4845709AE05D489B
:10681000012180F821105B488570584800780028D5
:1068200001D0FEF736FD8DE05648012180F8211099
:1068300054482900C9B2818084E05248012180F87F
:10684000211050482900C9B2C1807BE04D48012188
:1068500080F821104B482900C9B2018172E04948F3
:10686000012180F8211047484581444800780028DC
:1068700001D0FEF70EFD65E04248012180F82110AD
:10688000404805733D480078002801D0FEF701FD1F
:1068900058E03C48012180F821103A48856151E0D8
:1068A0003848012180F82110280000F057F93549B7
:1068B000C86132480078002801D0FEF7EAFC41E0C8
:1068C0003048012180F82110002D01D0012000E086
:1068D00000202C4981F8200034E02A48002180F86B
:1068E0002110012D01D1012000E00020254981F86F
:1068F000220027E02348012180F82110280000F021
:1069000023F903F041FB1F4908611BE01D480121E9
:1069100080F821101B48456118480078002801D0F4
:10692000FEF7B7FC0EE01748012180F8211015484A
:10693000456212480078002801D0FEF7AAFC01E069
:106940000F2000E0002032BD3016BD332AEF180AB8
:10695000400D030008E6D333C0D4010040150020E9
:10696000DC160020E0160020D4160020AC850108BB
:10697000BC850108D8160020901600204A17002078
:106980004317002074020020CC050020441700208B
:106990004B1700204817002046170020EC16002057
:1069A00047170020E8160020E416002010070020FA
:1069B00070B504000D00160032002900200000F020
:1069C0002DFE200070BD70B504000D000026AC4205
:1069D00007D02178300080B200F029F80600641C4E
:1069E000F5E7B6B2F643B6B2300A28706E7070BDE5
:1069F00070B504000D000026AC4207D021783000AD
:106A000080B200F014F80600641CF5E7B6B2F64355
:106A10002878B6B2310AC9B2884206D16878310006
:106A2000C9B2884201D1012000E0002070BD10B43D
:106A300000231A00D2B2082A13DA80B2031213F02C
:106A40008003C9B211F0800494EA030F05D040001E
:106A500080F4745090F0650000E040004900521C42
:106A6000E8E780B210BC70471CB5040000AA012101
:106A70003A2000F08CFB0190DFF8C800BDF804104C
:106A80000180E4B2012C06D19DF8000050F0020014
:106A90008DF8000005E09DF8000010F0FD008DF875
:106AA000000000AA01213A2000F0DCFA0190DFF892
:106AB0009400BDF80410018013BD1CB5040000AAA9
:106AC00001213A2000F063FB01901E48BDF804103C
:106AD00001809DF8000010F03F008DF800009DF847
:106AE000000020438DF8000000AA01213A2000F0A8
:106AF000B9FA01901348BDF80410018013BD00B528
:106B000083B000AA0121C82000F041FB01900D488C
:106B1000BDF8041001809DF800000EBD1CB50400F6
:106B200020007E38C0B240008DF8000000AA01218C
:106B3000222000F097FA01900248BDF8041001806D
:106B400013BD000090160020002840F10980F44693
:106B5000404200F005F850F000406047002800BFB8
:106B60000AD0B0FA80F18840D1F19D01C905020632
:106B700072F1004241EB1020704750F8041B61B1E4
:106B800050F8042BD30744BFA9F101039A1800233E
:106B900042F8043B091FFAD1EFE7704710B5FF2315
:106BA00013EAD0541DBF13EAD1529C429A4239E0F5
:106BB000A41ADA0780EA0103134042EA012142EAFB
:106BC0000020421A3CBF641E01EB4202090AB2FBDC
:106BD000F1FE01FB1E221202B2FBF1F001FB1022BA
:106BE0006EF30F201202B2FBF1FE4EEA00207F345A
:106BF00006DDFE2C24DA53EA500050EBC45010BDE1
:106C0000D4F1020401FB1E2240F08071192C1DDC1E
:106C100021FA04F0C4F12004A140114371F10042B3
:106C2000584110BD9C421ABF03EAD1529A420FE06C
:106C300080EA010E0EF00043400004D0490016D156
:106C400043F0FF4010BD490008BFD343180010BDFA
:106C50009C4205D1D21AF7D001F00041484010BD46
:106C60004A0212BF0846484000F0004010BD4AB931
:106C70000902B1FA81F2914044B1A418C00140F078
:106C800000409EE7C90141F0004152420002B0FAC3
:106C900080F4A040141B94E75FF0FF0C1CEAD05175
:106CA00014BF614506E0C110400721F0E04101F149
:106CB0006051704779B900F0004100020AD0B0FA83
:106CC00080FC00FA0CF001F16051A1EB0C5101EBDA
:106CD000D0214005704741020CBF40F4E0016FF045
:106CE000000100207047040070B44FF0004591EAA5
:106CF000030C44BF6B4002F08DBB00BF841A71EBE4
:106D0000030603D2001BB141121973414FF4001C5A
:106D10001CEB410F34BF7CEB430443E00C0DA4EBB0
:106D20001356352E50DC45EAC323DB0A45EAC12160
:106D3000C912B6F120050DDD63FA05F6EB4086EACF
:106D40000305124218BF45F00105C01851F10001BA
:106D50000CD213E062FA06F5F2405540F3415A4076
:106D6000B340F3405A408018594107D349085FEABD
:106D700030005FEA350528BF45F0010501F58011B7
:106D8000420875F1004250F1000041EB045170BC23
:106D90004FF4001C1CEB410F38BF70470020090D59
:106DA000090570471CEB410F10D252EA43060BD085
:106DB000BCEB410F05D80C0DAB43661E342EB5DD80
:106DC00002E0AB438018594170BC704770BC7047FB
:106DD0004FEAF17CBCF1E04C2CBFBCF5001F11E088
:106DE0005FEA4C0C34BFBCF17F5F2EE05FEA9C0C85
:106DF0004FEA0C1C4FEA3C0CC10071F100414CEB16
:106E000050707047C90241EA5051C00218BF41F0AA
:106E1000010141F000414FEA6C50C0F10900212806
:106E200010D240EACC7CCCF1200C11FA0CF070F1BD
:106E30000040CCF1200C21FA0CF00CF0004C40EB9F
:106E40000C0070474FEACC707047490011F5001FE5
:106E500004D84FEACC10FF30C0057047C817704700
:106E600000B587B003F02BF9C0B2DFF8141751F862
:106E70002000DFF81017086003F021F9DFF8081789
:106E800011EB4000DFF80417086003F018F9DFF891
:106E9000001711EB8000DFF8FC16086003F00FF913
:106EA000002853D101214FF4805003F070FA0121E2
:106EB000102003F03EFA05220F21DFF8DC0603F074
:106EC00029FD05220E21DFF8D00603F023FD05225F
:106ED0000D21DFF8C40603F01DFD02208DF804002B
:106EE00000208DF8060002208DF8070003208DF8A1
:106EF00005004FF40050009000A9DFF89C0603F055
:106F000073FB4FF48040009000A9DFF88C0603F07B
:106F10006BFB4FF40040009000A9DFF87C0603F003
:106F200063FB4FF48050009001208DF80400002096
:106F30008DF8060001208DF8070003208DF805006C
:106F400000A9DFF8540603F04FFB52E001210220B4
:106F500003F0EFF905220E21DFF8400603F0DAFC1A
:106F600005220F21DFF8340603F0D4FC05220D21A1
:106F7000DFF8280603F0CEFC02208DF80400002084
:106F80008DF8060002208DF8070003208DF805001B
:106F90004FF40050009000A9DFF8000603F024FB36
:106FA0004FF40040009000A9DFF8F00503F01CFB4F
:106FB0004FF48040009000A9DFF8E00503F014FBD7
:106FC0004FF48050009001208DF8040000208DF8CF
:106FD000060001208DF8070003208DF8050000A9A8
:106FE000DFF8B80503F000FB01214FF4804003F007
:106FF000FCF9DFF89005006803F060FD4FF4827043
:10700000ADF80A000020ADF808000020ADF80C0033
:107010000020ADF80E000020ADF810004FF4007015
:10702000ADF812000820ADF814000020ADF81600ED
:107030000720ADF8180002A9DFF84805006803F042
:107040006AFD0121DFF83C05006803F00BFEDFF864
:10705000440500680068DFF8341509680988018371
:1070600007B000BD2DE9F04184B004000D0016000A
:107070000020ADF802000DF1020700208DF8040099
:107080008DF8054072B6DFF80C0500680068DFF87F
:10709000FC140968098841830020ADF80000BDF8A0
:1070A0000000002805D1BDF80000401CADF800002C
:1070B000F5E75FF00008B8F1020F2BDA0221DFF8E4
:1070C000C404006803F01CFE0028F7D001A818F8DB
:1070D000001089B2DFF8AC04006803F0FEFD012166
:1070E000DFF8A004006803F00BFE0028F7D0DFF8FB
:1070F0009404006803F0DFFDBDF8021080B2D8F1FF
:107100000102D2B2D20090404018ADF8020018F14E
:107110000108D0E75FF00008EDB2A8451FDA0221B0
:10712000DFF86004006803F0EBFD0028F7D018F8E2
:10713000061089B2DFF84C04006803F0CEFD01218F
:10714000DFF84004006803F0DBFD0028F7D0DFF82B
:107150003404006803F0AFFD18F10108DCE70221F8
:10716000DFF82004006803F0CBFD0028F7D0DFF83B
:10717000240400680068DFF8141409680988018392
:1071800062B638880290029804B0BDE8F0812DE91B
:10719000FE4304000D0016000020ADF802000DF1C2
:1071A00002074FF0FF0801208DF804008DF805401C
:1071B00072B6DFF8E00300680068DFF8D0130968F2
:1071C000098841830020ADF80000BDF800000028C8
:1071D00005D1BDF80000401CADF80000F5E75FF0F8
:1071E0000009B9F1020F2BDA0221DFF898030068D9
:1071F00003F086FD0028F7D001A819F8001089B225
:10720000DFF88003006803F068FD0121DFF87403F4
:10721000006803F075FD0028F7D0DFF86803006808
:1072200003F049FDBDF8021080B2D9F10102D2B2DB
:10723000D20090404018ADF8020019F10109D0E7E2
:107240005FF00009EDB2A9451EDA0221CD480068C1
:1072500003F056FD0028F8D05FFA88F8414689B25D
:10726000C848006803F039FD0121C648006803F0F2
:1072700047FD0028F8D0C348006803F01CFD3070BB
:10728000761C19F10109DDE70221BE48006803F010
:1072900037FD0028F8D0BF4800680068BB4909687E
:1072A0000988018362B6388802900298BDE8FE839F
:1072B00070B584B004000020ADF802000DF10205A5
:1072C00080208DF804008DF8054072B6B148006842
:1072D0000068AE490968098841830020ADF80000C4
:1072E000BDF80000002805D1BDF80000401CADF835
:1072F0000000F5E70026022E25DA0221A1480068E9
:1073000003F0FEFC0028F8D001A8315C89B29D484A
:10731000006803F0E2FC01219A48006803F0F0FCE9
:107320000028F8D09748006803F0C5FCBDF80210AB
:1073300080B2D6F10102D2B2D20090404018ADF82E
:107340000200761CD7E702218E48006803F0D8FCC3
:107350000028F8D08F48006800688C4909680988BF
:10736000018362B628880290029804B070BDFEB511
:1073700004000D000020ADF802000DF1020600200F
:107380008DF80400FF208DF8050072B68148006872
:1073900000687E490968098841830020ADF8000033
:1073A000BDF80000002805D1BDF80000401CADF874
:1073B0000000F5E70027022F25DA02217148006856
:1073C00003F09EFC0028F8D001A8395C89B26D4812
:1073D000006803F082FC01216A48006803F090FC19
:1073E0000028F8D06748006803F065FCBDF802107B
:1073F00080B2D7F10102D2B2D20090404018ADF86D
:1074000002007F1CD7E70027E4B2A74219DA022165
:107410005C48006803F074FC0028F8D0795D89B2FC
:107420005848006803F059FC01215648006803F0F1
:1074300067FC0028F8D05348006803F03CFC7F1C30
:10744000E2E702214F48006803F05AFC0028F8D018
:107450005048006800684D4909680988018362B690
:10746000308802900298FEBD2DE9F04184B00400FE
:107470000D000020ADF802000DF10206FF270120EB
:107480008DF80400FF208DF8050072B641480068B1
:1074900000683E490968098841830020ADF8000072
:1074A000BDF80000002805D1BDF80000401CADF873
:1074B0000000F5E75FF00008B8F1020F27DA0221BB
:1074C0003048006803F01CFC0028F8D001A818F828
:1074D000001089B22B48006803F0FFFB0121294806
:1074E000006803F00DFC0028F8D02648006803F07F
:1074F000E2FBBDF8021080B2D8F10102D2B2D20094
:1075000090404018ADF8020018F10108D4E75FF090
:107510000008E4B2A0451DDA02211A48006803F011
:10752000EFFB0028F8D0FFB2390089B21548006897
:1075300003F0D3FB01211348006803F0E1FB0028AE
:10754000F8D01048006803F0B6FB28706D1C18F1E5
:107550000108DEE702210B48006803F0D1FB002898
:10756000F8D00C4800680068084909680988018358
:1075700062B630880290029804B0BDE8F081000045
:107580005C030020741600201C8601087C16002075
:10759000680300207816002000100240000402401A
:1075A00070B504000D0016002A003100200003F021
:1075B000DFFB200070BD08000300002013F0030F64
:1075C00009D0521E22BF13F8010B11F801CBB0EB0A
:1075D0000C00F3D07047121F22BF53F8040B51F870
:1075E00004CB6045F7D0121D0AD200BA9CFA8CFC7D
:1075F000B0EB0C0038BF6FF0000088BF012070476F
:10760000521E22BF13F8010B11F801CBB0EB0C0096
:10761000F6D0521C08BF10467047020062B38B07B9
:1076200008D0521E11F8013B00F8013B00F0248005
:107630008B07F6D1830740F0208000BF103A07D3B4
:1076400030B4B1E83810103AA0E83810F9D230BCA4
:10765000530724BFB1E80810A0E8081044BF51F850
:10766000043B40F8043BD20724BF31F8022B20F83A
:10767000022B44BF0B7803707047083A07D3B1E878
:107680000810083A40F8043B40F804CBF7D25307FF
:10769000E4E703007FB504000D000026E4B2002CEF
:1076A0000FD0E4B2012C0CD0E4B2022C09D0E4B229
:1076B000032C06D0E4B2042C03D0F421604803F07C
:1076C000BDFCEDB2002D09D0EDB2012D06D0EDB21A
:1076D000022D03D0F5215A4803F0B0FC02F0EFFC74
:1076E0000121E4B2C0B240101422564B02FB00301C
:1076F00050F8240002F01DFE0121012002F047FE97
:10770000EDB2022D03D101208DF8040002E000202B
:107710008DF80400E4B24C48205C8DF80700E4B218
:107720004A48205C8DF80500E4B24948205C8DF899
:107730000600E4B2474830F81400009002F0BFFCA5
:1077400000A9E4B2C0B240101422434B02FB003047
:1077500050F8240002F048FFE4B2404850F82400FA
:107760000290E4B23E48205C8DF80C00E4B23D4843
:10777000205C8DF80D008DF80E60EDB2012D10D15A
:1077800002F09DFCE4B23849615CE4B2C0B2401042
:10779000364A12EB8000205C03F098FC01208DF843
:1077A0000E00E4B2042C02D002A803F00FFD7FBD4E
:1077B000F8B504000D0016001F00E4B22C48205C50
:1077C0008DF800008DF801508DF802608DF803707F
:1077D00000A803F05DFEF1BD10B5040002F06FFCDF
:1077E000E4B2C0B2401014211B4A01FB002050F843
:1077F000240003F01DF80100E4B2164830F814002C
:10780000014201D0012000E0002010BD80B54FF4FE
:107810000051184803F02EF801BD80B54FF4005117
:10782000144803F053F8002000900098B0F5F05F82
:1078300003D20098401C0090F7E701BD0000000053
:107840001C810108EC83010804860108FC850108FD
:107850000C860108DC8501084C0200209C8501088B
:10786000348601083886010830860108148601082C
:107870003C8601080008024080B50420FFF7ACFFF9
:1078800002BD070010B582B004002000C0B2FFF7AF
:107890000FFD00900248BDF80010018013BD00BF2D
:1078A0009016002080B51021DFF85C0504F071F817
:1078B000002809D0DFF85405012101701021DFF8FC
:1078C000480504F0C0F80FE00421DFF83C0504F09F
:1078D00060F8002808D0DFF8340501210170042188
:1078E000DFF8240504F0AFF801BD80B51021DFF802
:1078F000200504F04EF8002809D0DFF8100501211A
:1079000001701021DFF8080504F09DF80FE0042154
:10791000DFF8FC0404F03DF8002808D0DFF8EC04A0
:10792000012101700421DFF8E80404F08CF801BDA6
:107930002DE9F04F8FB002F0C2FB02280ED1DFF824
:10794000D0040400DFF8CC0405900121042002F0EB
:107950004CFD0121022002F0ECFC0DE0DFF8A80450
:107960000400DFF8B40405900121022002F03DFD7F
:107970000121042002F0DDFC00F03FFA012804D1CF
:107980000421DFF8940402F075FF5FF000095FF056
:10799000000800250020ADF80C000020ADF8000024
:1079A00000200690002602208DF8200003208DF88C
:1079B000210000208DF8220001208DF82300802076
:1079C000079007A9059802F00FFEDFF83C048442F7
:1079D00001D1022200E00222D2B20721059802F072
:1079E00099FF0420ADF824000020ADF82600012006
:1079F000ADF828000C20ADF82A000020ADF82C00CE
:107A000009A9200003F006FE0121200003F0B8FDC3
:107A100001220421200003F06FFFDFF8EC03844211
:107A200001D11D2000E01E208DF808000F208DF8E8
:107A300009000F208DF80A0001208DF80B0002A824
:107A400003F026FD29208DF802000DF1020201212C
:107A5000B420FFF707FBDFF8C40300680D900DA802
:107A600004F02CF9DFF8B80300680C900CA804F0BF
:107A7000B5F8012004F0FBF80027302F70D2DFF8B2
:107A80008C03007800280BD1BDF800004FF6FF7181
:107A9000884205D0BDF80000401CADF80000EEE7BC
:107AA000BDF800004FF6FF71884259D00020ADF8B4
:107AB0000000DFF8580300210170082F4ED35FFA51
:107AC00089F9B9F1000F06D1200003F02CFE8046A1
:107AD0000120814642E05FFA89F9B9F1010F3DD1F9
:107AE000200003F020FE05001FFA88F8ADB2A8457B
:107AF00005D2B5EB0800401EADF80C0005E0D8F14A
:107B000000002818801EADF80C00DFF8180300688C
:107B1000BDF80C10B0FBF1F006903000FFF71EF836
:107B2000FFF7BAF8DFF80023DFF8003304F0E0F8DD
:107B300082468B460698FFF711F8FFF7ADF85FF025
:107B40003332DFF8EC3204F0D3F852465B46FFF7ED
:107B5000CBF801F027FC0600002081467F1C8CE753
:107B60004FF4C0604643002004F081F8002120005B
:107B700003F006FD00220421200003F0BDFE0021D9
:107B8000052004F040F821208DF802000DF10202DA
:107B90000121B420FFF766FA3000FEF7DFFFFFF7A0
:107BA0007BF80022DFF88C3201F0C2FAFFF710F9FF
:107BB0000190019802F0D6F9FEF7D0FF010001987C
:107BC00001F0BAFDDFF8701201F0A4FD08D80198A9
:107BD00002F0C8F9401CDFF864124843049006E044
:107BE000019802F0BFF9DFF85412484304900021D5
:107BF0000020FFF74FFD049801F0DFF804980FB064
:107C0000BDE8F08F10B504F087FA040004F03CFAE8
:107C10000400E4B214F0F000802804D10120040034
:107C200004F0C4FA01E0002004002000C0B210BD3E
:107C300030B58BB000208DF800009DF80000FF28C3
:107C400005D09DF80000401C8DF80000F5E701F01C
:107C5000F5FC7B480078C0B24008C0B20328E9D1E7
:107C6000FFF7D0FFC0B204F0D6FB04F0D1FB002830
:107C700002D1FFF75DFE7BE002AA2021002004F084
:107C800058FB002001909DF80800002803D09DF8C3
:107C90000800FF2802D1FFF74BFE69E09DF80900BC
:107CA000002808D0022812D00BD304281BD014D3EC
:107CB00005281ED023E063480400200001F07DF871
:107CC0001FE061480400200001F077F819E05F48E8
:107CD0000400200001F071F813E05D48040020006A
:107CE00001F06BF80DE05B480400200001F065F83E
:107CF00007E059480400200001F05FF801E0FFF7B9
:107D000017FE9DF80D00002802D1002005000FE0AD
:107D10009DF80D00012802D10120050008E09DF822
:107D20000D00022802D10220050001E0002005001C
:107D30002800C0B200F064F89DF80B0000F01AF8BB
:107D400002AA0421212004F0F4FA0020C0B2042881
:107D500009DAC0B2414202AA8918C978C0B201AAA0
:107D60008154401CF2E7019802F00EF900F005F88A
:107D70000BB030BD39490870704739490860704709
:107D800010B588B000F039F80400E4B2012C1DD120
:107D9000012004F05BFB01208DF8000000AA012106
:107DA000B620FFF75FF92F480068069006A803F099
:107DB00015FF2D480068059005A803F00FFF2B481C
:107DC0000068049004A803F009FF14E0E4B2022C58
:107DD00011D127480068039003A803F0FFFE25484F
:107DE0000068029002A803F0F9FE234800680190A1
:107DF00001A803F0F3FE08B010BD204800787047DA
:107E00001E49087070470000000400401D17002044
:107E100000080040000402400008024050860108AB
:107E200054860108D40300209A9999999999D93FC9
:107E30003333E33F80842E410100003F40420F0076
:107E40009016002000366E0140787D0180BA8C01CA
:107E5000006CDC0280F0FA02007519031F17002085
:107E60008C160020588601085C860108608601088F
:107E700064860108688601086C8601081E170020C8
:107E8000F0B587B00400A0208DF803000DF10302C7
:107E900001219F20FFF7E6F8B4F90000FEF754FE39
:107EA00007006068FEF75AFE390004F0F3FADFF8C5
:107EB0001C17FEF773FE02F067F805006320FFF75A
:107EC000F7F900208DF800009DF80000FF2805D08C
:107ED0009DF80000401C8DF80000F5E701F0AEFBB6
:107EE000DFF820080078C0B24008C0B24028E8D1CE
:107EF000DFF814080068DFF8D816884203D20020A3
:107F000000F01FFF02E0012000F01BFF6220FFF7DE
:107F1000CFF900208DF800009DF80000FF2805D063
:107F20009DF80000401C8DF80000F5E701F086FB8D
:107F3000DFF8D0070078C0B24008C0B20328E8D10B
:107F40002800FEF701FE5FF0914104F0A3FA07005C
:107F5000DFF8B4070068FEF701FE01003800FEF705
:107F60001DFE02F011F80600300080B2001210F081
:107F70000F008DF80A0030008DF80B00A068400259
:107F8000DFF8841709688909B0FBF1F0401C8DF80F
:107F90000800606801F013FE0DF102020121A32028
:107FA000FFF7F5F89DF8020010F0FD008DF80200D3
:107FB0000DF102020121A320FFF754F805AA0DF1EB
:107FC0001501206900F006FB9DF815008DF81800DA
:107FD000607B9DF8141008438DF819000DF106021E
:107FE0000DF10701606900F03BFC9DF806009DF86B
:107FF000071051EA00108DF81A0001AA0DF10501D1
:10800000A06900F08BFB9DF805009DF8041051EA73
:1080100000108DF81B00DFF8F0060068DFF8EC16A2
:10802000884205D1B6208DF80100B6208DF80900F0
:10803000DFF8D4060068DFF8D816884205D1AC20F6
:108040008DF80100AC208DF80900DFF8BC0600684F
:10805000DFF8C016884205D1A3208DF80100A320C7
:108060008DF80900DFF8A0060068DFF86415884283
:1080700005D13B208DF80100B6208DF80900DFF80E
:1080800088060068DFF89016884205D136208DF802
:108090000100AC208DF80900DFF86C060068DFF8FD
:1080A000B817884205D131208DF80100A3208DF842
:1080B00009000DF1010201210720FEF7D3FF049012
:1080C000DFF84006BDF810100180DFF83C060068BC
:1080D000DFF8881788420ED3DFF82C0600684008C6
:1080E000DFF82C16884201D3012000E00020C0B246
:1080F00000F03DF80CE0DFF810060068DFF810161D
:10810000884201D3012000E00020C0B200F02FF827
:1081100014F10C0201216C20FEF7A4FF02AA042135
:108120000C20FEF79FFF06AA04211A20FEF79AFFF3
:108130000490DFF8D005BDF810100180012000F098
:108140005DFD80208DF80800E3208DF8090002AA6B
:1081500002219920FEF786FF0490DFF8A805BDF8FC
:1081600010100180606800F025F907B0F0BD1CB563
:10817000040000208DF8000000AA01210120FFF773
:1081800006F80190DFF87C05BDF804100180E4B228
:10819000012C06D19DF8000050F040008DF8000041
:1081A00005E09DF8000010F0BF008DF8000000AA67
:1081B00001210120FEF756FF0190DFF84805BDF8C8
:1081C0000410018013BD30B40100DFF87C07814248
:1081D00006D3DFF87807814202D2062003001FE0B1
:1081E000DFF86C07814206D3DFF86807814202D2CC
:1081F0000C20030014E0DFF86007814206D3DFF8AB
:108200005C07814202D21020030009E0DFF850072A
:10821000814205D3DFF84C07814201D220200300C0
:10822000DFF81807B1FBF0F0DBB258430200DFF8CB
:108230003807C08B824202D30F20040021E00020C7
:10824000040064B20F2C08DA64B2DFF81C0730F8BF
:108250001400904201D2641CF3E764B2002C10D0E9
:1082600064B2DFF8040710EB440030F8020C101A77
:1082700064B2DFF8F45635F81450AD1AA84200D2B3
:10828000641E64B2082594FBF5F000FB1540C0B2F3
:1082900030BC704700B583B000AA04210820FEF767
:1082A00076FF0190DFF85C04BDF8041001809DF8B2
:1082B000000010F01F009DF80110490311EB405021
:1082C0009DF8021010EB41109DF8031010EBD10047
:1082D0000EBD00B583B000AA01210B20FEF757FFA9
:1082E0000190DFF82004BDF8041001809DF8000023
:1082F00010F00700012801D1002010E09DF80000D7
:1083000010F00700032801D1012008E09DF80000CB
:1083100010F00700042801D1022000E003200EBD68
:1083200000B583B000AA01216C20FEF730FF019058
:10833000DFF8D003BDF8041001809DF800000EBDE9
:1083400000B583B000AA01210C20FEF720FF0190A8
:10835000DFF8B003BDF8041001809DF80000DFF8DD
:10836000A81309684843C00B0EBD1CB500AA022122
:108370000E20FEF70CFF0190DFF88803BDF8041013
:1083800001809DF800009DF8011011EB0021080507
:1083900002D551F4704101E00905090D0C0024B229
:1083A000DFF86403006800FB04F05FF4802290FBB8
:1083B000F2F016BD2DE9F04F87B00400DFF8880514
:1083C000844206D3DFF88405844202D2002081462D
:1083D0001FE0DFF87C05844206D3DFF8780584428D
:1083E00002D20120814614E0DFF86C05844206D3F6
:1083F000DFF86805844202D20220814609E0DFF8F6
:108400006005844205D3DFF85C05844201D2032075
:108410008146FFF7AAFF8046FFF792FF0500FFF7AE
:108420007FFF060018EB0400F6B206FB050082464B
:1084300000F070FC471C5FFA89F9B9F1000F2AD0EF
:10844000B9F1020F0FD01AD3B9F1030F2ED1DFF813
:108450002007824503D2002004F006F902E0012043
:1084600004F002F922E0DFF80C07824503D2002075
:1084700004F0FAF802E0012004F0F6F816E0DFF864
:10848000F806824503D2002004F0EEF802E0012055
:1084900004F0EAF80AE0DFF8E406824503D200209F
:1084A00004F0E2F802E0012004F0DEF85046FFF7A5
:1084B0008AFE8DF810005FFA89F9DFF8780419F860
:1084C000000000FB04F000F08DFFCDE90201FFB2D7
:1084D0005FF4802000FB07F000F07AFFCDE9000197
:1084E0008948006800F07EFF02000B00DDE9000112
:1084F00000F01EFEDDE9022303F0FAFB00F052FF5C
:1085000083465FEA5B5010F01F009DF81010490190
:1085100008438DF814005FEA5B308DF815005FEAC0
:108520005B108DF816005FFA89F9DFF8400419F83E
:10853000000050EACB008DF8170005AA042108209E
:10854000FEF790FD00906F48BDF800100180DFF845
:10855000A8060078012802D101F02FFA00E00020DF
:1085600007B0BDE8F08F2DE9F047FFF793FE824694
:10857000FFF7AFFE070000F0CDFB461C504600F0B1
:1085800031FF804689466048006800F02BFF0400F8
:108590000D00F6B2FFB2DFF89C03385C00FB06F07A
:1085A0005FF48021484300F013FF02000B0020001D
:1085B000290000F0BDFD42464B4603F099FB04F054
:1085C00077F800F0EFFEBDE8F08700000024744962
:1085D000006CDC022DE9FE4305000E0017000020B0
:1085E0008DF808000F245FF0000900F0CCFB8146F5
:1085F0009DF80800002812D164B2002C0FD4DFF8D7
:1086000038030068D4F1140119EB0101C840854218
:1086100003D301208DF80800EAE7641EE8E764B29E
:10862000002C03D50020040040B201E064B2200019
:108630003C700120D4F11701884000FB05F0BE49D1
:10864000096819F10502D140B0FBF1F08046002025
:10865000C0B2032824DA5FFA88F8C0B210EB080130
:10866000491E002914D05FFA88F8C0B210EB080147
:10867000FF31B14A126819F10503DA405143D4F1D0
:108680001702D140691AC0B200AA22F8101005E002
:10869000C0B200A947F6FF7221F81020401CD7E7AE
:1086A0004FF6FF700021C9B2032928DAC9B200AA27
:1086B00032F91120012A04DBC9B200AA32F91120D3
:1086C00004E0C9B200AA32F91120524280B28242BB
:1086D00013DAC9B200AA32F91120012A04DBC9B2A7
:1086E00000A830F8110004E0C9B200A830F9110068
:1086F000404211EB0802521E3270491CD3E7BDE81C
:10870000F7830000901600208816002000366E01C6
:1087100040787D0180BA8C0180F0FA022DE9F043A7
:1087200083B005000E0017005FF0010900F02BFB7D
:10873000002802D00220814601E0012081467E48C7
:1087400000685FFA89F9B0FBF9F06421B0FBF1F041
:1087500000210C0064B25A2C0CDA64B2794931F869
:108760001410414340F62822B1FBF2F18D4201D2B0
:10877000641CEFE764B2002C60D0A0460021C9B2AF
:1087800003292CDA4FFA88F8C9B211EB0802521EFD
:10879000002A07D54FFA88F8C9B211EB0802521E19
:1087A0005A2A14DA4FFA88F8C9B211EB0802654B5D
:1087B00013EB420232F8022C424340F62823B2FB6C
:1087C000F3F2AA1AC9B200AB23F8112005E0C9B22E
:1087D00000AA47F6FF7322F81130491CCFE74FF685
:1087E000FF710022D2B2032A28DAD2B200AB33F9E9
:1087F0001230012B04DBD2B200AB33F9123004E0AB
:10880000D2B200AB33F912305B4289B28B4213DA39
:10881000D2B200AB33F91230012B04DBD2B200A983
:1088200031F8121004E0D2B200A931F91210494215
:1088300012EB08035B1E1C00521CD3E764B2092133
:1088400094FBF1F1397064B2092194FBF1F201FB60
:1088500012413170BDE8F7830075190381BA8C01AC
:108860002DE9FC4F07008B469246002432480068F1
:10887000FEF774F95FF09141FEF790F905000020D2
:108880000600F6B20A2E17DA0120B04000F0A0FD73
:108890000022DFF8B43303F02BFA00F083FDFEF77B
:1088A0005DF9290003F0F6FD01F05CFB01900198F1
:1088B000874201D3761CE4E78AF8006000200600B6
:1088C000F6B2082E27DA0094F6B2300000F08AFDE6
:1088D00000221B4BFEF708FA00225FF0804300F0F5
:1088E00027FC8046894601209AF90010884000F054
:1088F0006FFD42464B4603F0FBF900F053FDFEF7D7
:108900002DF9290003F0C6FD01F02CFB0400A7425D
:1089100001D3761CD4E78BF800600098381AE11B6D
:10892000884204D29BF80000401E8BF80000BDE88E
:10893000F38F0000488601088816002040420F008F
:10894000000020407878010880565F2EE12F0C3916
:1089500080E40117616A141CC060D211E1D7CE1403
:10896000408FE10861D06F0A288501084C86010814
:108970002DE9FC4D040088460026DFF8D002844231
:108980000CD3DFF8CC02844208D200200500DFF8C7
:10899000C402844222D2012005001FE0DFF8B802A1
:1089A000844206D3DFF8B402844202D202200500DA
:1089B00014E0DFF8AC02844206D3DFF8A802844258
:1089C00002D20320050009E0DFF89C02844205D3AF
:1089D000DFF89802844201D204200500012006003D
:1089E0004046002100F096FE38D24046FEF754F98A
:1089F00002000B00CDE90023EDB21820DFF8701261
:108A000000FB05108068FEF747F902000B0000200C
:108A1000DFF8601200F08CFB82468B46EDB2182026
:108A2000DFF84C1200FB0510C068EDB21821DFF82A
:108A3000402201FB05218968FEF7B0F8FEF72CF90A
:108A400002000B005046594600F0DAFCDDE9002335
:108A500003F050FE02D2002006003CE04046002118
:108A600003F060FE37D8EDB21820DFF8041200FBE7
:108A700005108068FEF710F902000B000020DFF8F7
:108A8000F81100F055FB82468B46EDB21820DFF856
:108A9000E01100FB0510C068EDB21821DFF8D0210D
:108AA00001FB05218968FEF779F8FEF7F5F8020069
:108AB0000B005046594600F0A3FC02000B00924602
:108AC0009B464046FEF7E8F852465B4603F012FE2E
:108AD00001D202200600F6B2EDB21820DFF89011A4
